:208800005886001F01EC898813FD01FEFC02F86E9F01FE885E886B885D92209220922092E6
:2088200020922092209220922092209220922092209220922092208E568EE38F36888789C0
:208840008689AC9220922092208B848CD68C8F8C058C248C318DA88DCF8D938D6139F605EA
:208860006DC420C10027F7B7056839B6056D840181002709B60568B702F81A043986FFB7A6
:2088800002F83900000000BD9221BD92218E8AE5BD922ABD9221BD897826178E8AEDBD9290
:2088A0002ACC0560BD9237BD89D7BD88D825037E88BB8E8AF4BD922A7E88D4BD92218E8BCC
:2088C00001BD922A8600BD89198E8B12BD922A8601BD8919BD9221398600B70560BD89F12D
:2088E0002534860FBD8A81C440C1002729860ABD8A81C1012620860BBD8A81C1012617866F
:208900000CBD8A81C100260E860DBD8A81C10026051CFE7E89181A0139C60EF7888484015E
:20892000484848488AE01F898600BD8AAABD89F12534860FB78884CC00ECBD8AAABD8A189E
:208940002524BD8A468E8B23BD922AB6037BBD9240B6037ABD9240B60379BD9240B6037815
:20896000BD92407E89728E8AF4BD922ABD92211A0139BD92211CFE39BD8AD78600B7056023
:20898000B60560810039BD89F1251BBD8B26860FB78884CC0020BD8AAABD8A182508BD8A15
:2089A000464FB701F7398602B701F739BD89F12520BD8B26860FB78884CC0030BD8AAABDDE
:2089C0008A18250DBD8A62BD89F125054FB701F7398602B701F7398680B70562108E01004F
:2089E000313F108C000026F88600B70562BD8BFD3934068600B78885B78886860FBD8A8185
:208A0000C480270F7C888526F27C888626ED1A017E8A151CFE35863934268600B78885B7FD
:208A20008886860FBD8A81C488C1082715C401C101270A7C888526EA7C888626E51A017EFB
:208A40008A441CFE35A6108E00008608BD8A84E7A903003121A7A903003121108C0200260E
:208A6000E939108E00008608B78884E6A903003121A6A903003121BD8AAA108C020026E6C2
:208A800039BD8AC9B705628A40B705623402F60560B60561B788833502B705628840B7053F
:208AA000628600B70562B6888339BD8AD7F70560B70561B68884B705628A20B705628820CF
:208AC000B705628600B705623934028600B705628692B70563358234028600B705628680F3
:208AE000B7056335825050494445203A0020494F3D307800204E4F542050524553454E54E5
:208B000000205050494445303A20424C4F434B533D00205050494445313A20424C4F434BB6
:208B2000533D003078003406860EB701F3B788848600F601FBC40158585858CAE0BD8AAA89
:208B4000860DB788848600F601FCF701F4BD8AAA860CB788848600F601F9F701F5BD8AAAC0
:208B6000860BB788848600F601FAF701F6BD8AAA860AB788848600C601BD8AAABD8C8FBD25
:208B80008CD63586BD8BCD8E8E33BD922ABD92218E8E39BD922ACC0560BD92378E8E40BDCD
:208BA000922AB68E2A81FF27088E8E49BD922A20188E0000A6898E2BA78901EA30018C0078
:208BC0000826F1BD8CD6BD8DA8BD922139BD8C16262ABD8E028606B705628A80B70562846A
:208BE0007FB70562BD8BFD86A5C600BD8D71C600BD8D8481A5260586FFB78E2A39BD8E1575
:208C00008620BD8CED86DFBD8CED8E000034103510301F26F839BD8DEA8600B70560B6058F
:208C200060810039B68E2A81FF2605BD8D29840F39B68E2A81FF2629BD8C2427F48640BD7A
:208C40008CEDBD8D2E88C03402843FB78E288E0000A6898C73B18E28270C30018C001C2620
:208C6000F0350286FF39350294C0B78E281F18BA8E28390D040C14030B13020A12010911AC
:208C800000081005151D1C1B1A1918232221208E0000A68901F344444444C6001E891F022E
:208CA000A6A98E1834021F10581F023502A7A901EAA68901F3840FC6001E891F02A6A98E4E
:208CC0001834021F10581F023502A7A901EB30018C000426BD3934368E0000A68901EA1F1D
:208CE00019BD8D7130018C000826F035B6340286017E8CF834028600BD8DEA8A06B705627D
:208D00008A18B70562B78E283502B70560B68E2884FDB70562128A02B7056284E7B7056283
:208D200084E6B70562BD8E153986017E8D308600BD8E028A06B705628A18B70562847BB759
:208D40000562B78E28B605603402B68E288A04B7056284E7B7056284E6B70562BD8E153530
:208D6000828690BD8CEDC61086FFBD8CF45A26F83934021CFEC9901F98BD8CED350288FF88
:208D8000BD8CF4391CFEC9701F98BD8CEDBD8D2E88FF393416C6008E01EAA684BD8D715C1B
:208DA0003001C10826F435963416C60FBD8D848A208620C60FBD8D718E8FFF301F26FCC6B4
:208DC0000FBD8D8484DF86DFC60FBD8D71359634061CFEC401C90DBD8D84810027058A207F
:208DE0007E8DE584DFBD8D7135863402B68E298182270D8682B70563B78E298606B7056291
:208E000035823402B68E29819227088692B70563B78E2935827E8E023F065B4F666D7D0706
:208E20007F67777C395E7971000000546E5C5E6E54794044534B593A0020494F3D307800CF
:208E4000204D4F44453D4E4700204E4F542050524553454E54008E91F2BD922A8E9200BD42
:208E6000922ACC0530BD9237BD91898100270C8E9208BD922ABD922186FF398E9216BD92D0
:208E80002ABD9221860CB70536BD911A8603BD90C6867FBD90C68605BD90C6BD911ABD9144
:208EA0001ABD911ABD911ABD911ABD911A8600B701FB8610B701E6BD909C8627B701F9BD87
:208EC000907FBD909C8601B701FB8621B701E6BD909C8627B701F9BD907FBD909C860CB7D6
:208EE000053639B601E78100270139B601FB84018A10B701E68600B701E8B701E9860CBAFC
:208F000001E6B705368646B701E4BD8F81810027227C01E8B601E8810626EABD909CBD90A8
:208F20006D8600B701E87C01E9B601E9810226D586FF39860039B601E78100270139B60166
:208F4000FB84018A10B701E68600B701E8B701E98645B701E4BD8F81810027227C01E8B679
:208F600001E8810626EABD909CBD906D8600B701E87C01E9B601E9810226D586FF398600E0
:208F8000391A10BD911A81FF2710BD906DB601E4814626037E8FF17E903F8600B7053686C1
:208FA000FF1CEF391CFEB601E68401B791F1B601F884014848BA91F1B791F1B601E4BD90D8
:208FC000C6B691F1BD90C6B601F9BD90C6B601F8BD90C61CFEB601FA4CBD90C68602BD90FC
:208FE000C68609BD90C6861BBD90C686FFBD90FB398E0000108E0000BD8FA4B605302AFB23
:2090000084202722B60531A7A90300312126EC8E0000B605302AFB8420270BB60531A7A910
:209020000400312126ECB60537BD91D8BD9169B701E5BD9169810026F9B601E584C039BD2F
:209040008FA4B605302AFB8420271FA6A90300B70531312126ECB605302AFB8420270BA6B4
:20906000A90400B70531312126EC7E9026860CBA01E6B70536BD911A81FF26037E90C5B6FF
:2090800001F981002716860FBD90C6B601E68401BD90C6B601F9BD90C67E90B1860CBA016C
:2090A000E6B705368607BD90C6B601E68401BD90C634128E0064BD91E13512BD911AB60532
:2090C00030840F26F6393402108E0000B60530B791F184802609312126F2350286FF39B638
:2090E00091F18440260F3502B70531BD91D8BD91D8BD91D839B605317E90CC3402B605303F
:20910000B791F1848027F6B691F1844026063502B7053139B605317E90FD108E0000B60520
:20912000308480260ABD91D8312126F27E9137B605308440271939108E0000B60531B60588
:209140003084802607BD91D8312126EF86FF398608BD90C6BD9169B701E384C081802708FC
:20916000BD9169B601E384C039108E0000B60530B791F184802607312126F2860039B691BE
:20918000F184402703B6053139BD91B8B605308180270A81D0270686FFB701E7398E0064DB
:2091A000BD91E1B605308180270881D086FFB701E7398600B701E739B60533B605338E00EF
:2091C00096BD91E18600B70536BD91D8860CB705368E0096BD91E139340235023402350242
:2091E000393402350234023502301F8C000026F1390046443A204D4F44453D4D42432400F5
:2092000020494F3D30782400204E4F542050524553454E5424002050524553454E542400B2
:2092200039860A8D35860D8D31393406A68027048D2820F83506398D071E898D031E8939A2
:209240003402444444448D06A6E48D023582840F8B30813923048B0720007E885E340434B4
:1992600002588600F601001F01EC898813FD01FE3502AD9F01FE350439FE
:00000001FF
