:208800005886001F01EC898813FD01FEFC02F86E9F01FE884A885788498B658B658B658B6F
:20882000658B658B658B658B658B658B658B658B658B658B658B658B658B658B658877892B
:2088400079899F8B658B658B6539F6056DC420C10027F7B7056839B6056D8401810027078A
:20886000B60568B702F83986FFB702F83900000000000000000000BD8B66BD8B668E8AD533
:20888000BD8B6FBD8B66BD896B261A8E8ADDBD8B6FCC0560FD8875BD8B7CBD89CABD88CBC7
:2088A00025037E88AE8E8AE4BD8B6F7E88C7BD8B668E8AF1BD8B6F8600BD890C8E8B02BD3E
:2088C0008B6F8601BD890CBD8B66398600B70560BD89E12534860FBD8A71C440C10027295A
:2088E000860ABD8A71C1012620860BBD8A71C1012617860CBD8A71C100260E860DBD8A7156
:20890000C10026051CFE7E890B1A0139C60EF788728401484848488AE01F898600BD8A9A08
:20892000BD89E12534860FB78872CC00ECBD8A9ABD8A082524BD8A368E8B13BD8B6FB60327
:208940007BBD8B85B6037ABD8B85B60379BD8B85B60378BD8B857E89658E8AE4BD8B6FBDF6
:208960008B661A0139BD8B661CFE39BD8AC78600B70560B60560810039BD89E1251BBD8B7D
:2089800016860FB78872CC0020BD8A9ABD8A082508BD8A364FB701F7398602B701F739BD51
:2089A00089E12520BD8B16860FB78872CC0030BD8A9ABD8A08250DBD8A52BD89E125054FCD
:2089C000B701F7398602B701F7398680B70562108E0100313F108C000026F88600B70562AE
:2089E0003934068600B78873B78874860FBD8A71C480270F7C887326F27C887426ED1A011D
:208A00007E8A051CFE35863934268600B78873B78874860FBD8A71C488C1082715C401C1D2
:208A200001270A7C887326EA7C887426E51A017E8A341CFE35A6108E00008608BD8A74E7E0
:208A4000A903003121A7A903003121108C020026E939108E00008608B78872E6A9030031ED
:208A600021A6A903003121BD8A9A108C020026E639BD8AB9B705628A40B705623402F60536
:208A800060B60561B788713502B705628840B705628600B70562B6887139BD8AC7F7056079
:208AA000B70561B68872B705628A20B705628820B705628600B705623934028600B7056286
:208AC0008692B70563358234028600B705628680B7056335825050494445203A0020494F6E
:208AE0003D307800204E4F542050524553454E5400205050494445303A20424C4F434B5365
:208B00003D00205050494445313A20424C4F434B533D003078003406860EB788728600F65D
:208B200001FBC40158585858CAE0BD8A9A860DB788728600F601F8FB01FCBD8A9A860CB7AE
:208B400088728600F601F9BD8A9A860BB788728600F601FABD8A9A860AB788728600C6019C
:208B6000BD8A9A358639860A8D35860D8D31393406A68027048D2820F83506398D071E893D
:208B80008D031E89393402444444448D06A6E48D023582840F8B30813923048B0720007E5D
:1E8BA000884A34043402588600F601001F01EC898813FD01FE3502AD9F01FE35043982
:00000001FF
