:208800005886001F01EC898813FD01FEFC02F86E9F01FE885E886B885D8E548E548E548E5A
:20882000548E548E548E548E548E548E548E548E548E548E548E548E548E548E54888589F2
:208840008489AA8E548E548E548B828CD48C8D8C038C228C2F8DA68DCD8D918D5F39F60572
:208860006DC420C10027F7B7056839B6056D840181002707B60568B702F83986FFB702F8CC
:208880003900000000BD8E55BD8E558E8AE3BD8E5EBD8E55BD897626178E8AEBBD8E5ECCAA
:2088A0000560BD8E6BBD89D5BD88D625037E88B98E8AF2BD8E5E7E88D2BD8E558E8AFFBD81
:2088C0008E5E8600BD89178E8B10BD8E5E8601BD8917BD8E55398600B70560BD89EF25340A
:2088E000860FBD8A7FC440C1002729860ABD8A7FC1012620860BBD8A7FC1012617860CBD05
:208900008A7FC100260E860DBD8A7FC10026051CFE7E89161A0139C60EF78882840148489F
:2089200048488AE01F898600BD8AA8BD89EF2534860FB78882CC00ECBD8AA8BD8A162524EF
:20894000BD8A448E8B21BD8E5EB6037BBD8E74B6037ABD8E74B60379BD8E74B60378BD8E57
:20896000747E89708E8AF2BD8E5EBD8E551A0139BD8E551CFE39BD8AD58600B70560B605F9
:2089800060810039BD89EF251BBD8B24860FB78882CC0020BD8AA8BD8A162508BD8A444F47
:2089A000B701F7398602B701F739BD89EF2520BD8B24860FB78882CC0030BD8AA8BD8A16DB
:2089C000250DBD8A60BD89EF25054FB701F7398602B701F7398680B70562108E0100313F85
:2089E000108C000026F88600B70562BD8BFB3934068600B78883B78884860FBD8A7FC480B9
:208A0000270F7C888326F27C888426ED1A017E8A131CFE35863934268600B78883B788843D
:208A2000860FBD8A7FC488C1082715C401C101270A7C888326EA7C888426E51A017E8A4243
:208A40001CFE35A6108E00008608BD8A82E7A903003121A7A903003121108C020026E939BC
:208A6000108E00008608B78882E6A903003121A6A903003121BD8AA8108C020026E639BDF2
:208A80008AC7B705628A40B705623402F60560B60561B788813502B705628840B705628651
:208AA00000B70562B6888139BD8AD5F70560B70561B68882B705628A20B705628820B70501
:208AC000628600B705623934028600B705628692B70563358234028600B705628680B705F3
:208AE0006335825050494445203A0020494F3D307800204E4F542050524553454E54002081
:208B00005050494445303A20424C4F434B533D00205050494445313A20424C4F434B533D46
:208B2000003078003406860EB701F3B788828600F601FBC40158585858CAE0BD8AA8860D8A
:208B4000B788828600F601FCF701F4BD8AA8860CB788828600F601F9F701F5BD8AA8860BCA
:208B6000B788828600F601FAF701F6BD8AA8860AB788828600C601BD8AA8BD8C8DBD8CD460
:208B80003586BD8BCB8E8E31BD8E5EBD8E558E8E37BD8E5ECC0560BD8E6B8E8E3EBD8E5E8B
:208BA000B68E2881FF27088E8E47BD8E5E20188E0000A6898E29A78901EA30018C000826DC
:208BC000F1BD8CD4BD8DA6BD8E5539BD8C14262ABD8E008606B705628A80B70562847FB73A
:208BE0000562BD8BFB86A5C600BD8D6FC600BD8D8281A5260586FFB78E2839BD8E1386200F
:208C0000BD8CEB86DFBD8CEB8E000034103510301F26F839BD8DE88600B70560B60560815A
:208C20000039B68E2881FF2605BD8D27840F39B68E2881FF2629BD8C2227F48640BD8CEBEC
:208C4000BD8D2C88C03402843FB78E268E0000A6898C71B18E26270C30018C001C26F0357C
:208C60000286FF39350294C0B78E261F18BA8E26390D040C14030B13020A120109110008CD
:208C80001005151D1C1B1A1918232221208E0000A68901F344444444C6001E891F02A6A9E7
:208CA0008E1634021F10581F023502A7A901EAA68901F3840FC6001E891F02A6A98E163455
:208CC000021F10581F023502A7A901EB30018C000426BD3934368E0000A68901EA1F19BD93
:208CE0008D6F30018C000826F035B6340286017E8CF634028600BD8DE88A06B705628A18B7
:208D0000B70562B78E263502B70560B68E2684FDB70562128A02B7056284E7B7056284E6BF
:208D2000B70562BD8E133986017E8D2E8600BD8E008A06B705628A18B70562847BB7056262
:208D4000B78E26B605603402B68E268A04B7056284E7B7056284E6B70562BD8E1335828695
:208D600090BD8CEBC61086FFBD8CF25A26F83934021CFEC9901F98BD8CEB350288FFBD8C4D
:208D8000F2391CFEC9701F98BD8CEBBD8D2C88FF393416C6008E01EAA684BD8D6F5C30013B
:208DA000C10826F435963416C60FBD8D828A208620C60FBD8D6F8E8FFF301F26FCC60FBD1D
:208DC0008D8284DF86DFC60FBD8D6F359634061CFEC401C90DBD8D82810027058A207E8D46
:208DE000E384DFBD8D6F35863402B68E278182270D8682B70563B78E278606B705623582ED
:208E00003402B68E27819227088692B70563B78E2735827E8E003F065B4F666D7D077F67DD
:208E2000777C395E7971000000546E5C5E6E54794044534B593A0020494F3D307800204D48
:208E40004F44453D4E4700204E4F542050524553454E540039860A8D35860D8D31393406C7
:208E6000A68027048D2820F83506398D071E898D031E89393402444444448D06A6E48D02C3
:208E80003582840F8B30813923048B0720007E885E34043402588600F601001F01EC898876
:0D8EA00013FD01FE3502AD9F01FE350439C2
:00000001FF
