S01E00005B6C77746F6F6C7320342E32325D2063756269786472762E61736D39
S12388005886001F01EC898813FD01FEFC02F86E9F01FE885E886B885D8B7B8B7B8B7B8BED
S12388207B8B7B8B7B8B7B8B7B8B7B8B7B8B7B8B7B8B7B8B7B8B7B8B7B8B7B8B7B888789CD
S12388408689AC8B7B8B7B8B7B8B7B8B7B8B7B8B7B8B7B8B7B8B7B8B7B8B7B8B7B39F6DFFD
S12388605DC420C10027F7B7DF5839B6DF5D840181002709B6DF58B702F81A043986FFB754
S123888002F83900000000BD8B7CBD8B7C8E8AE2BD8B85BD8B7CBD897826178E8AEABD8B49
S12388A085CCDF88BD8B92BD89D7BD88D825037E88BB8E8AF1BD8B857E88D4BD8B7C8E8A73
S12388C0FEBD8B858600BD89198E8B0FBD8B858601BD8919BD8B7C398600B7DF88BD89EE34
S12388E02534860FBD8A7EC440C1002729860ABD8A7EC1012620860BBD8A7EC10126178674
S12389000CBD8A7EC100260E860DBD8A7EC10026051CFE7E89181A0139C60EF78884840160
S1238920484848488AE01F898600BD8AA7BD89EE2534860FB78884CC00ECBD8AA7BD8A15A6
S12389402524BD8A438E8B20BD8B85B6037BBD8B9BB6037ABD8B9BB60379BD8B9BB60378C7
S1238960BD8B9B7E89728E8AF1BD8B85BD8B7C1A0139BD8B7C1CFE39BD8AD48600B7DF88D3
S1238980B6DF88810039BD89EE251BBD8B23860FB78884CC0020BD8AA7BD8A152508BD8A1B
S12389A0434FB701F7398602B701F739BD89EE2520BD8B23860FB78884CC0030BD8AA7BDE6
S12389C08A15250DBD8A5FBD89EE25054FB701F7398602B701F7398680B7DF8A108E010052
S12389E0313F108C000026F88600B7DF8A3934068600B78885B78886860FBD8A7EC480275C
S1238A000F7C888526F27C888626ED1A017E8A121CFE35863934268600B78885B7888686D3
S1238A200FBD8A7EC488C1082715C401C101270A7C888526EA7C888626E51A017E8A411CA7
S1238A40FE35A6108E00008608BD8A81E7A903003121A7A903003121108C020026E93910C5
S1238A608E00008608B78884E6A903003121A6A903003121BD8AA7108C020026E639BD8A73
S1238A80C6B7DF8A8A40B7DF8A3402F6DF88B6DF89B788833502B7DF8A8840B7DF8A8600CA
S1238AA0B7DF8AB6888339BD8AD4F7DF88B7DF89B68884B7DF8A8A20B7DF8A8820B7DF8A8C
S1238AC08600B7DF8A3934028600B7DF8A8692B7DF8B358234028600B7DF8A8680B7DF8BE4
S1238AE035825050494445203A0020494F3D307800204E4F542050524553454E5400205090
S1238B0050494445303A20424C4F434B533D00205050494445313A20424C4F434B533D0092
S1238B203078003406860EB701F3B788848600F601FBC40158585858CAE0BD8AA7860DB7CE
S1238B4088848600F601FCF701F4BD8AA7860CB788848600F601F9F701F5BD8AA7860BB7C4
S1238B6088848600F601FAF701F6BD8AA7860AB788848600C601BD8AA7358639860A8D35BE
S1238B80860D8D31393406A68027048D2820F83506398D071E898D031E89393402444444CE
S1238BA0448D06A6E48D023582840F8B30813923048B0720007E885E34043402588600F683
S1178BC001001F01EC898813FD01FE3502AD9F01FE3504397C
S503001FDD
