S0220000687474703A2F2F737265636F72642E736F75726365666F7267652E6E65742F1D
S12310008682B7DF528683B7DF538E1200108EE000A680A7A0108C000026F68685B7DF52B4
S12310208E3300108E8800A680A7A0108CBF0026F68681B7DF518682B7DF528683B7DF5311
S10610407EE10842
S1231200FFFF2000108E10507EF997F710DDBF10DE10BF10E0F610F3F710E2316AAEA4E69B
S123122080AFA4C1712437588EF8B53AEC84FD10D310BF10E3B610A32606357F6E9F10D332
S1231240BDE54E5353522000AEA4E61FBDE47DBDE54E202D2000357F8D336E9F10D31F2409
S1231260BDE54E496E76616C6964205353522000BDE47DBDE54E206174202400ECE18300E4
S123128002BDE545BDE5887EE1C68D01393407BDE54E50433D00EC65830002BDE545BDE5F1
S12312A04E2043433D00A6E4BDE55ABDE54E2044503D001FB8BDE55ABDE54E20413D00A68B
S12312C061BDE55ABDE54E20423D00A662BDE55ABDE54E20583D001F10BDE545BDE54E204F
S12312E0593D001F20BDE545BDE54E20553D001F30BDE545BDE54E20533D001F40C300078D
S1231300BDE545BDE588358710CE12008E10006F808C120025F9BDE004BDE6257F10F4BD1A
S1231320E57E0A43554249582076657273696F6E20312E350A0D0A436F707972696768740D
S123134020313938332D3230303520446176652044756E6669656C640A0D416C6C2072698A
S1231360676874732072657365727665640A0D00B610F42618108EF761BDE377CEE18D34A7
S12313804010FF10E3BDE69226037EE25B10CE1200BDE633BDE4A58D3427F21F89BDE54E70
S12313A052633D00BDE47DBDE58820E134018E0000BF10F1BE10EE2604350120DC35017E9F
S12313C0F5D010FF10F14F5FFD10EE20C010FF10E3B610F3B710E2BDE4DC271A10BF10D7D3
S12313E08140102712D98EF843BDE505C10E2434588EF8996E9539BDE2968645C658ED8130
S1231400A784BDE659A688178520102706A4EC8813AE8815BF10D5BDEEBFF610F3BDE4DC80
S12314206E9F10D57F10D58E10AEBDE3B38D6F862AA784B610BFB710F3CC0000BDE5FCBD76
S1231440E32327173088208C140025F3FC10E7BDE5DF26E88EF76B86FF2062A68812B71034
S1231460D2EC8810FD10D0108340001027126581452609C1582605A1881227891F128E10C1
S1231480C8ED81A6A812A7806F808C10D025F910BE10D77EE1FABDE3B086FFB710D5C608C5
S12314A0BDE4E92706812F2605313F7EE3A9A7805A2AED7D10D5279C8EF78086013401F6A8
S12314C0106DC108240A108E107E5810AEA52605C601F7106DF6106CC108240A108E106EC2
S12314E05810AEA52605C601F7106C7D10A22706BDE574BDE58835013401F610E2F710F3DF
S1231500BE10DE10BE10E0F610DD3501270510FE10E33910FE10E31A04398E10AEBDE3B3E7
S12315207EE2993436108E10C0A68426034A2010C6088D0E260AC6088D082604C6038D028B
S123154035B6A6A0812A2708A18026065A26F33930015A2704312120F7812A393416C6135D
S12315608E10C0A680812A27045A26F74F4D35968D058DE82620398D37C6088D26812E278E
S123158007A7805A2AF5200E8D1FC603BDE4E92708A7805A2AF67EE2B88D0EBDE4DC8E10D5
S12315A0C04F39BDE4E927EE395A2B516F8020F98E10A5A680B710BFBDE4DC270BE621C1C3
S12315C03A26058D3DB710BF34201F128E10C0C608A6A0A7805A26F93520A6A4815B261DFD
S12315E08E10C03121C608BDE3A3815D2708A7805A2AF47EE2B88DB17D10C027F64F39BD75
S1231600E4DCECA1C13A26EB8041810424E51A0439BDE4DC27DD812426433121BDE4DC2742
S1231620D28E0000BDE4E927288030810A250A81112DC08007811024BAB710D48605B710A1
S1231640D31F10308B7A10D326F7FA10D41F0120D3BDE4DC4F39BDE4DC1027FE5B8E0000BE
S1231660BDE4E927EC803081091022FE4B3402CC000ABDF6F0EBE089001F0120E34F343635
S1231680108E00001F01CC000ABDF710340431218C000026F135028B30BDE59A313F26F508
S12316A035B6BDE588862ABDE59A108E10001F20C15022EEBDE5DA817F27048108260B3185
S12316C03FBDE54E0820080020E4BDE59A8D2BA7A0810D26D9108E10007EE588A6A081205B
S12316E027FA6DA22702810D39A6A0270881202708810D2604313F1A0439816125FB817A05
S123170022F7845F395F8DD4A6802AFC301F3420847F272CB710D330017A10D3A6848DDAD2
S1231720B710D48DC42714B110D427EB812F2709813D270535205C20CF313FBA10D32AF442
S12317408D9A5D35908D131E898D0F1E89393410AE628D20AF621A0435903402444444443E
S12317608D06A6E48D023582840F8B308139232A8B0720263402A680271E8D1E20F834102D
S1231780AE628DF0AF6235103402860A8D0C860D2004340286208D0235823416F6106D204D
S12317A0023416C108240D8E107E58AE852705AD844F35968EF81E860A7EE2BD8D0326FCBE
S12317C0393414C10824ED8E106E58AE8527E5AD8435943414F6106C20E98DF726FC393437
S12317E00258498401C312001F013504CB014F34108D093510EC841083FFFF3934028E1245
S123180000B610F3B110E62608A6E410B310E727108D20B610F3B710E6A6E4FD10E7BDEA83
S1231820E435828D0E3406CCFFFFFD10E7B710E64F35867D10E527C33416B610F33402B674
S123184010E6B710F3FC10E78E1200BDEB177F10E53502B710F34F35968D372758108EF72B
S12318609B860234037D10A22721BDE54E4572726F722070726F63657373696E672066694D
S12318806C653A2000BDE6D7BDE5881F2135037EE2BDB610BFB710F3CC0000BDE5FCBDE397
S12318A02327123088208C140025F3FC10E7BDE5DF26E88602398DA18D30BDE58830882008
S12318C08C1400250BFC10E7BDE5DF27E8BDE5FCBDE32326E820E134168E10BFA6808B41A8
S12318E0BDE59A863ABDE59A20023416865BBDE59A8D12865DBDE59A8D0B862EBDE59AC617
S1231900038D043596C608A6802703BDE59A5A26F639B610F33450BDEB0EE643A6423D1FFB
S1231920014FE641BDF6F035D0BDE35C1026FB88BDE6922609108EF7AA86077EE6638D6FDC
S1231940FD10D5CC0000BDE5FCC6106D8427323088205A26F6FC10E7BDE5DF26E9FC10D565
S1231960ED84BDE7A634068D46FD10D5BDE6383506FD10E78E12006F808C140025F98E12C2
S1231980003420108E10C0C613A6A0A7805A26F935203088EDFC10DBED881586F0A788179B
S12319A0FC10D5ED88137F10E57A10E51A0439BDE712FD10D38300018B0134027D10E7260A
S12319C00EF610E8B110E82506C10125028D11C6018D0D5CE1E423F98EF7BE86087EE2BD20
S12319E04F3434BDE5FCEC8127078C140025F735B41F108312024456A6E4800110B310D33D
S1231A0024ED3261108EFFFF10AF1E3530326320953414BDE8A8EC8813ED42ED444F5FEDDF
S1231A2048ED46F610BF8601EDC4B610E2B710F34F35943414304AA641B710F3EC482612E1
S1231A40A6C44A2676EC441083FFFF2776BDEAE4EC48308BC3000110830200250F3410EC9D
S1231A6044ED46BDE5DFED4435104F5FED48B610E2B710F3A68081FF27491A04359434146A
S1231A80A6C44A2636A641B710F3EC441083FFFF2731ED46BDEAE4BDE5DFED44B610E2B7A9
S1231AA010F34F5FED483594BDE659A6881785802635108EF80486037EE6638EF7D5860404
S1231AC07EE2BD86067EE2F83406EC42ED444F5FED48ED463586BDE6922705BDE729200742
S1231AE0A68817854027CBFC10E71A043934148DE5EC8813ED42ED444F5FED48ED46B6101F
S1231B00BFA7418602A7C4B610E2B710F34F35943416304AEC481083020025048D19EC481D
S1231B20308BC30001ED48A6E4A7841A0435968EF7EC86057EE2BD3414A6C4810226F0A645
S1231B4041B710F3EC441083FFFF2613BDE7AF3406EC46BDE5DF3506ED84BDE7A6AE61ED5A
S1231B6046BDEB17BDE5DFED44B610E2B710F34F5FED4835943414A6C481022639A641B76A
S1231B8010F3EC482604AE462617304A308B1083020024096F846380C3000120F1304A8D06
S1231BA096EC46BDE5DFCCFFFFED84EC441083FFFF2703BDEE106FC4B610E2B710F34F35DE
S1231BC094BDE8C83416E6C45A1026FEEEA641B710F3EC48E3E410830200251A3406EC44B6
S1231BE01083FFFF1027FEDBED46BDE5DFED44350683020020E0ED48270FEC441083FFFF6F
S1231C001027FEBF304ABDEAE4B610E2B710F34F35963430A641B710F3108E0000EC42106A
S1231C20A344270931A90200BDE5DF26F2EC483420E3E13402B610E2B710F34F35B23506BF
S1231C40FD10DBEC46AE4810AE423436ECC434068102262D8C00002728A641B710F3EC449A
S1231C601083FFFF2610BDE7AF3406EC46BDE5DF3506ED84ED44304ABDEB17B610E2B710D4
S1231C80F3BE10DE10BE10E0F610DD4F6E9F10DB3506FD10DB3506EDC4F710F33536AF484E
S1231CA010AF42ED46260510AF442005BDE5DFED44EC482707EC44304ABDEAE4B610E2B7F1
S1231CC010F320B234161F01A643E6423DBDF7106F45E1432506E0436C4520F6E7461F1066
S1231CE0E744359634767F10F48D20ECE48DD5AE62BDF74127137C10F4F610F4C105273CFC
S1231D00C10326EBBDF73720E235F6B610F3C6073DC310501F033934767F10F48DEDECE41A
S1231D208DA2AE62BDF74527E07C10F4F610F4C1052709C10326EBBDF73720E2B710D3355F
S1231D407610B310E726123402B610F3B110E635022606BDE6257F10E5BDE54E4572726F5A
S1231D607220616363657373696E6720626C6F636B2000BDE47EBDE54E206F6E2064726967
S1231D8076653A2000B610F38B41BDE59ABDE5888EEBAD7A10D3270AA68026FCA68426F3E0
S1231DA03001BDE574BDE58886097EE2F84469736B20666F726D6174206572726F72004207
S1231DC0616420736563746F7200536563746F72206E6F7420666F756E64004469736B20C2
S1231DE077726974652070726F74656374656400004469736B2073797374656D2065727211
S1231E006F7200BDE623BDE3FFB710F3BDEB0BCC0203FD10DBBDE4DC27288EF45ABDF115E7
S1231E203404BDE41135024D2605F710DB20E64A2605F710DC20DE4A81031022F67AE7C6AA
S1231E4020D3BDE54E466F726D617474696E672000B610F3BDF2628EF45A4FF610DBBDF2DB
S1231E60A18601F610DCBDF29BBDE54E0A0D4F6B3F2000BDE5DABDE59A84DF81591026F9C6
S1231E8007BDE588B610DBBDF733B610DCB710DB8E12006F808C140025F98E1200CC000088
S1231EA0BDEB17BDE7128300011F89FD10D9CC00027C10DA7C10DB7A10DA2708BDEB17C3E7
S1231EC0000120F37A10DB2708BDEB17C3000120F3CCFFFFED843002108E01FECC00027C6C
S1231EE010D97A10D9270BED81313F313FC3000120F034067D10DC2703FD1200CCFFFFEDAB
S1231F0081313F313FCC0001FD10D935067C10DC108C000026028D1E7A10DC270BC300013B
S1231F20ED81313F313F20E8CCFFFFED1E8E1200FC10D97EEB1734068E1200FC10D9BDEB06
S1231F4017108E02004FA780313F26F97C10DA8E1200108E0200350639BDE3FFB710F3BD91
S1231F60E4113410BDE41C34108E0001BDE4DC2703BDE4111F1235103506BDEAE430890244
S1231F8000C30001313F26F239BDE3FFB710F3BDE4113410BDE41C34108E0001BDE4DC2735
S1231FA003BDE4111F1235103506BDEB1730890200C30001313F26F2398E10C0C6136F8092
S1231FC05A26FB862AB710C8B710D03420BDE3B0BDE4E935202703BDE3777EE6B6FCE002F0
S1231FE0FD10DBBDE370BDE4DC2706BDE41CBF10DB7EE729BDE377BDE659BDE35C262CA63F
S1232000881785101027FAAA6F84BDE7A6EC8813BDE5DF270F1083000027096F846F01BD4F
S1232020E7A620EC6F846F017EE7A6CC0000BDE5FCBDE3232654BDE6EAA688178510261051
S1232040BDE57E2050726F74656374656400203ABDE54E2028592F4E2F51293F00BDE5DAC6
S1232060BDE59ABDE58884DF8151272E8159261A6F84BDE7A63414FC10E7FD10D5EC881371
S12320808D8EFC10D5BDE5FC35143088208C1400259FFC10E7BDE5DF2694393410BDE8A825
S12320A0EC881335102018BDE370BDE8A8EC88133406AE8815BDE4DC2703BDE41C3506BD53
S12320C0EAE4308902003410BDE5DF351026F039BF10DBFD10D9200FBDE370BDE41CBF10BF
S12320E0DBBDE411BF10D97D10DA1027F3CABDE8D6EC8813FD10D7BE10DBBDEB1730890243
S123210000BF10DBFC10D77A10DA2719BDE5DF26E3BDE7AF3406FC10D7BDE5DF3506ED8463
S1232120BDE7A620CFBDE5DF27A53406CCFFFFED84B710E535067EEE10FC10F127041F04F2
S12321404F39BDE57E4E6F2073757370656E6465642070726F6772616D0010FE10E34F398A
S1232160BDF14EF710D77F10DACCFFFFFD10DB4F5F3406860DBDE59AB610DABDE55A7C1087
S1232180DA8D282608ACE423EAAFE420E6BDE5883506B310DB830001444CB710DABDE4DC13
S12321A027BCBDE3707EEEE7B710D78D5B815326FA8D55813027F481392603860639813153
S12321C0263E8D4AB710D88003B710D98D4034028D3C1F89ABE4BB10D8B710D835021F0162
S12321E010B310DB2403FD10DB8D23A780BB10D8B710D87A10D926F18D14BB10D84C271ABA
S12322008EF82D860B7EE2BDF610D77EE5BC8D0B4848484834028D03AAE0398DEB80308173
S123222009230A811125D98007811024D339BDF14EF710D7BDE5D3260C811B1027F549F604
S123224010D7BDE5A1F610D7BDE5C126E7BDE59A20E28EF3D2BDE505BDE4DC27778EF41519
S1232260586E95BDE3B0BDE4DC266934368E10A520108E10AEBDE3B3BDE4DC265734368E35
S123228010AE108E10BFC609A6A0A7805A26F935B6BDE370BDE65934108EF441BDF1155D3C
S12322A0260CBDE41C1F103510ED8815200A5A26238D0D3510A78817BDE4DC26DA7EE7A6B3
S12322C04F34168EF0DFBDE4E92712C680A18027065426F97EE2B8EAE4E7E420E635965266
S12322E05745443F3F3F3FBDE623BDE3FFB710F3BDEB0B3420BDF73735208EF479BDF115DA
S12323003404BDE4111F103502810322C7E7C6BDE4DC26E639BDE505A6A0813D26B639BD10
S1232320E41C3410BDE41C1F103510E780BDE4DC26F0398EF4A8BDF115C102249734048DC1
S12323400D35028E106CE786BDE4DC26E639BDE4118C00081024F45C1F10395434048EF4BC
S1232360A0BDE50535025D270B5A1026F14A3414C6FF200334145F81031024F13B8E10A286
S12323803086A684E7841A0435948EF3D2BDE505588EF42B6E958E10A520038E10AEA6802D
S12323A08B41BDE59ABDE54E3A5B00C608A6802703BDE59A5A26F6865DBDE59A7EE588BDF5
S12323C0E370BDE659BDE54E46696C653A2000BDE6EABDE54E0A0D4469736B206164647206
S12323E06573733D00EC8813BDE47EBDE54E2C204C6F616420616464726573733D2400EC9C
S12324008815BDE545BDE54E2C2050726F74656374696F6E3D00E68817108EF0DFA6A05804
S12324202403BDE59A5D26F5BDE588108E0000EC88133121BDE5DF26F9BDE54E46696C650C
S123244020636F6E7461696E7320001F20BDE47EBDE57E20626C6F636B2873292E0039BD48
S1232460E3FF3442BDEB0EBDE54E44726976653A2000A6E48B41BDE59ABDE5888EF4794F00
S1232480E6C48D1D8601E6418D118602E6428D0B8603E6438D0535427EE588BDE54E2C206E
S12324A0008D08863DBDE59A7EE47D34144CE6802AFCC47F270F4A26F5A6802B05BDE59A15
S12324C020F74F3594860135948EF4A84FF6106C8DCF8601F6106D8DC27EE588541F988E65
S12324E0F3D28DC7863DBDE59A8E10A2A685270286018EF4A08DB47EE588BDE41C3410BD99
S1232500E4DC2703BDE41CBF10D535101F10BDE545C610C5032603BDE592BDE592A680BDFF
S1232520E55A5A26EEC604BDE5925A26FA3010C610A68081202504817F2502862EBDE59A55
S12325405A26EEBDE588BDE5D32705BC10D523BC4F39BDE3FFB710F38D3EBDE54E44726903
S123256076652000B610F38B41BDE59ABDE54E206861732000FC10D7BDE47EBDE54E2062BB
S12325806C6F636B732C2000FC10D5BDE47EBDE57E206672656500393430BDE712FD10D7B6
S12325A01F024F5FFD10D5C601FD10D3BDE5FCEC8126075CF310D5FD10D5313F270D8C142D
S12325C00025ECFC10D3C3000120DEFC10D51A0435B0834D657373616765834465627567AF
S12325E08254726163658344454641554C548253595354454D8246494C45824452495645D9
S1232600834D454D4F525982434F4E534F4C45824652454580F15BF15BF15BF063F072F018
S123262091F0E7F11FF133E2B8E2B8F2DCF2DCF2DCF196F19BF1BFF25FF2FAF2C9F352E27A
S1232640B8814C4F41445F414444524553538150524F54454354494F4E8081496E7465722D
S12326606C65617665814469726563746F727920657874656E73696F6E8141646472657342
S1232680738143796C696E6465727381486561647381536563746F72732F547261636B8027
S12326A0824F4646824F4E8081496E707574814F7574707574803506FD10EEB610F03931A1
S12326C021B710D5BDE3B0BDE29ECC4000ED816F80BDE659A6881785201027F3D5B610BFD9
S12326E0B710E9EC8813FD10EA4F5FFD10ECFC10EE34067F10F010BE10D7BDF5F98E100050
S1232700BDF66D27B1813F262DBDF66D803081092308C63FE7808B30201C1F89108E10F577
S1232720BDE4DC5A2B07BDE4E926FB20F3BDE4E927CEA78020F7A780810D26C4108E1000C4
S12327407D10A42717862ABDE59A1F21A6802709810D2705BDE59A20F3BDE588BDE4DC8153
S12327603F2659ECA1BDE4DCC14F2704C1502616A6A02709810D2705BDE59A20F3C14F274F
S123278066BDE5882061C1462607B610F0275820CBC15326035F2009C152260CBDE4111FF5
S12327A010F110F0264120B4C145263EBDE4DC2708BDE4111F10F710F07EF4B6BE10ECFC0D
S12327C010EA3416B610E9340210FF10EEBDE1CD26014FB710F010FE10EE3502B710E935FF
S12327E016FD10EABF10EC7EF4FDC13D2707C1492618BDE4A58D0220EE34108E10F5A6A02A
S1232800A7802704810D26F63590C14026083506FD10EE7EF4C4C1412613BDE4113001300A
S12328201F27C48D482792810D26F820F2C14B2608BDE5DAB710F02031C13F262DBDE4DCB0
S123284027161F21A6A0810D270E812026F6A68081202708A1A027F686FF200BA6A0810D59
S12328602704812026F24FB710F07EF4FD3410B610E9B710F3FC10EC10830200250DFC1083
S1232880EABDE5DF271EFD10EA4F5F8E1200308BC30001FD10EC3410FC10EABDE5FC3510AA
S12328A0A68081FF3590B6106C2020B6106D201B3404F6106CB7106C20083404F6106DB762
S12328C0106D1F981A043584B710F31A04393440CE106E48ECC6200C3440CE106E4833C6F1
S12328E0ECC4AFC41A0435C0CC10B739CC1050393416A661E6633D3406A662E6653DEBE4FD
S1232900E7E4A663E6643DEBE4E7E435063264393416CC00008E00111CFE69636962301FFF
S1232920270D594910A3E425EFA3E41A0120EB32623590AD9F10946F446F456F466E9F10E3
S12329408E6E9F10906E9F10926E9F10966E9F10986E9F109A6E9F109C6E9F109E6E9F10D9
S1232960A0535441525455502E2A00556E7265636F676E697A656420636F6D6D616E64003C
S12329804F706572616E64206D697373696E67206F7220696E76616C69640046696C6520A8
S12329A06E6F7420666F756E640046696C6520616C72656164792065786973747300496E8D
S12329C0737566666963656E74206469736B2073706163650046696C65206E6F74206F7045
S12329E0656E20666F7220726561640046696C65206E6F74206F70656E20666F72207772AA
S1232A006974650046696C652070726F74656374696F6E2076696F6C6174696F6E00496EDD
S1232A2076616C69642064657669636500446F776E6C6F616420666F726D617420657272A8
S1232A406F720084464F524D415482524541448257524954458246494C4553824352454107
S1232A6054458344454C455445824C4F414482534156458252554E8252455455524E825382
S1232A8045548253484F5782444F574E4C4F414482434F4E4E45435480EC03ED59ED89ED58
S1232AA0B9EDDDEDF4EEA7EED8E1F7EF39F052F18AEF60F02EE1ACE4A5E4A2E4AAE4DCE45B
S1232AC0E9E456E41CE411E377E370E296E31AE31DE3B0E3B3E3FFF0C0E505E323E35CE5E9
S1232AE092E588E574E54EE57EE47EE545E55AE568E6D7E6EAF2ABE59AE5DAE5D3E5A1E541
S1232B00BCE5C1F6A6F6ABF6B0F6BAE2B8E65DE8B2E8BBE92FE735E7D8E5B4F000E663EEEF
S1232B209BEED0E811E8EDE975E87EE833E937E910E8C8E9C4E9C1EA12EA3EEA90E692E66F
S1232B4059E8A8E8D6E729EDF7F06BF07DF6C8E5DFEEBFE7AFEE10E715E712F398E5FCE703
S1232B60A6E633E638E623EB0EEB0BEAC4EAE4EB17E6B6E004F737F741F745F733E1CDE123
S1232B80C2F6CEF6D8F16EF174F5F9F6F0F710E08AEFA8F6E8F6EC8EFF09C66FA680A7A045
S1232BA05A26F98600B70100BDFBABBDE57E0A5F5F5F5F5F5F5F5F5F5F5F5F5F5F5F5F5F7E
S1232BC05F5F5F5F5F5F5F5F5F5F5F5F5F5F5F5F5F5F5F5F5F5F5F5F5F5F5F5F5F5F5F5F11
S1232BE05F5F5F5F5F5F5F5F5F5F5F5F5F5F5F5F5F5F5F5F5F0D0A0D0A4375626978202D90
S1232C002D20646574656374696E672068617264776172650D0A5F5F5F5F5F5F5F5F5F5F71
S1232C205F5F5F5F5F5F5F5F5F5F5F5F5F5F5F5F5F5F5F5F5F5F5F5F5F5F5F5F5F5F5F5FB0
S1232C405F5F5F5F5F5F5F5F5F5F5F5F5F5F5F5F5F5F5F5F5F5F5F5F5F5F5F5F00C602BD87
S1232C600200C612BD0200C615BD0200C61BBD0200C625BD0200C628BD0200C618BD020089
S1232C80BDE57E5F5F5F5F5F5F5F5F5F5F5F5F5F5F5F5F5F5F5F5F5F5F5F5F5F5F5F5F5F4D
S1232CA05F5F5F5F5F5F5F5F5F5F5F5F5F5F5F5F5F5F5F5F5F5F5F5F5F5F5F5F5F5F5F5F30
S1232CC05F5F5F5F5F5F5F5F5F0039C6007E0200C601BD020081FF27031A043986FF39864F
S1232CE0FF393939BDFB8484F08110260DC613BD02008D30B601F78100398120260DC61645
S1232D00BD02008D1FB601F78100398130261434108E0300C619BD020035108D07B601F7F7
S1232D20810039393420108E0000A6A90300A7803121108C020026F23520393420108E00A9
S1232D4000A680A7A903003121108C020026F23520BDFB8484F08110260BC614BD0200B6D8
S1232D6001F78100398120260BC617BD0200B601F78100398130260BC61ABD0200B601F798
S1232D80810039393420A645B701F8A644B701F9A646B701FA4FE6C4581F02A6A910B7E6A6
S1232DA0A910B8B701FBF701FC35A08E0000A689FBBEA789020030018C010026F139FD026D
S1232DC0F8BF02FA10BF02FCFF02F610FF02FE10CE02F58684B7DF518685B7DF52BD88006B
S11F2DE08681B7DF518682B7DF5210FE02FEBE02FA10BE02FCFE02F6FC02F8393C
S12331003B030002000003040100FF01FF00000001FF01FF00000002FF01FF000000035010
S123312002090000000101FADFFAD0000000000000000000000000FAE1FACB00000000003B
S123314000000000000000FAE3FAE4FB3BFAE2E00BFF00FF00FF00FF00FF00FF0000004D6C
S11B316041494E000000000053595354454D000021002101350011000D
S11131F2F751F74DF759F755F749F75DE10826
S12333005886001F01EC898813FD01FEFC02F86E9F01FE886C8879886B96E596E596E596AE
S1233320E596E596E596E596E596E596E596E596E596E596E596E58E618EE78F338895898F
S12333409189B7927B9306934E8B8F8CE18C9A8C108C2F8C3C8DB38DDA8D9E8D6C9239921D
S1233360739277942F951B94BB946639F6DF5DC420C10027F7B7DF5839B6DF5D84018100C4
S12333802709B6DF58B702F81A043986FFB702F83900000000BD96E68E8AF0BD96FABD96B4
S12333A0E6BD898326178E8AF8BD96FACCDF88BD9706BD89E2BD88E325037E88C68E8AFFD8
S12333C0BD96FA7E88DFBD96E68E8B0CBD96FA8600BD89248E8B1DBD96FA8601BD8924BDEB
S12333E096E6398600B7DF88BD89FC2534860FBD8A8CC440C1002729860ABD8A8CC101260D
S123340020860BBD8A8CC1012617860CBD8A8CC100260E860DBD8A8CC10026051CFE7E8958
S1233420231A0139C60EF788928401484848488AE01F898600BD8AB5BD89FC2534860FB70C
S12334408892CC00ECBD8AB5BD8A232524BD8A518E8B2EBD96FAB6037BBD9712B6037ABD31
S12334609712B60379BD9712B60378BD97127E897D8E8AFFBD96FABD96E61A0139BD96E6C2
S12334801CFE39BD8AE28600B7DF88B6DF88810039BD89FC251BBD8B31860FB78892CC0004
S12334A020BD8AB5BD8A232508BD8A514FB701F7398602B701F739BD89FC2520BD8B318690
S12334C00FB78892CC0030BD8AB5BD8A23250DBD8A6DBD89FC25054FB701F7398602B701DD
S12334E0F7398680B7DF8A108E0100313F108C000026F88600B7DF8ABD8C083934068600B9
S1233500B78893B78894860FBD8A8CC480270F7C889326F27C889426ED1A017E8A201CFE69
S123352035863934268600B78893B78894860FBD8A8CC488C1082715C401C101270A7C8899
S12335409326EA7C889426E51A017E8A4F1CFE35A6108E00008608BD8A8FE7A903003121D3
S1233560A7A903003121108C020026E939108E00008608B78892E6A903003121A6A9030089
S12335803121BD8AB5108C020026E639BD8AD4B7DF8A8A40B7DF8A3402F6DF88B6DF89B769
S12335A088913502B7DF8A8840B7DF8A8600B7DF8AB6889139BD8AE2F7DF88B7DF89B6881D
S12335C092B7DF8A8A20B7DF8A8820B7DF8A8600B7DF8A3934028600B7DF8A8692B7DF8BAF
S12335E0358234028600B7DF8A8680B7DF8B35825050494445203A0020494F3D30780020CD
S12336004E4F542050524553454E5400205050494445303A20424C4F434B533D002050509D
S1233620494445313A20424C4F434B533D003078003406860EB701F3B788928600F601FBC4
S1233640C40158585858CAE0BD8AB5860DB788928600F601FCF701F4BD8AB5860CB7889273
S12336608600F601F9F701F5BD8AB5860BB788928600F601FAF701F6BD8AB5860AB78892C3
S12336808600C601BD8AB5BD8C9ABD8CE13586BD8BD88E8E3EBD96FABD96E68E8E44BD9662
S12336A0FACCDF88BD97068E8E4BBD96FAB68E3581FF27088E8E54BD96FA20188E0000A67A
S12336C0898E36A78901EA30018C000826F1BD8CE1BD8DB3BD96E639BD8C21262ABD8E0DF7
S12336E08606B7DF8A8A80B7DF8A847FB7DF8ABD8C0886A5C600BD8D7CC600BD8D8F81A500
S1233700260586FFB78E3539BD8E208620BD8CF886DFBD8CF88E000034103510301F26F8C6
S123372039BD8DF58600B7DF88B6DF88810039B68E3581FF2605BD8D34840F39B68E35812A
S1233740FF2629BD8C2F27F48640BD8CF8BD8D3988C03402843FB78E338E0000A6898C7E7A
S1233760B18E33270C30018C001C26F0350286FF39350294C0B78E331F18BA8E33390D04BD
S12337800C14030B13020A1201091100081005151D1C1B1A1918232221208E0000A6890196
S12337A0F344444444C6001E891F02A6A98E2334021F10581F023502A7A901EAA68901F301
S12337C0840FC6001E891F02A6A98E2334021F10581F023502A7A901EB30018C000426BDCF
S12337E03934368E0000A68901EA1F19BD8D7C30018C000826F035B6340286017E8D0334B7
S1233800028600BD8DF58A06B7DF8A8A18B7DF8AB78E333502B7DF88B68E3384FDB7DF8A86
S1233820128A02B7DF8A84E7B7DF8A84E6B7DF8ABD8E203986017E8D3B8600BD8E0D8A06D2
S1233840B7DF8A8A18B7DF8A847BB7DF8AB78E33B6DF883402B68E338A04B7DF8A84E7B751
S1233860DF8A84E6B7DF8ABD8E2035828690BD8CF8C61086FFBD8CFF5A26F83934021CFE34
S1233880C9901F98BD8CF8350288FFBD8CFF391CFEC9701F98BD8CF8BD8D3988FF393416BC
S12338A0C6008E01EAA684BD8D7C5C3001C10826F435963416C60FBD8D8F8A208620C60F7D
S12338C0BD8D7C8E8FFF301F26FCC60FBD8D8F84DF86DFC60FBD8D7C359634061CFEC4019C
S12338E0C90DBD8D8F810027058A207E8DF084DFBD8D7C35863402B68E348182270D8682F2
S1233900B7DF8BB78E348606B7DF8A35823402B68E34819227088692B7DF8BB78E3435824D
S12339207E8E0D3F065B4F666D7D077F67777C395E79710000005E1C5C5E6E547940445384
S12339404B593A0020494F3D307800204D4F44453D4E4700204E4F542050524553454E547F
S123396000BD96E68E9203BD96FA8E9209BD96FACCDF80BD9706BD91838100270C8E9210EA
S1233980BD96FABD96E686FF398E921FBD96FABD96E6860CB7DF86BD91148603BD90BC86F2
S12339A07FBD90BC8605BD90BCBD9114BD9114BD9114BD9114BD9114BD91148610B701E667
S12339C0BD90928627B701F9BD9075BD90928621B701E6BD90928627B701F9BD9075BD9074
S12339E092860CB7DF8639B601E78100270139BD91EB860CBA01E6B7DF868600B701E8B765
S1233A0001E98646B701E4BD8F7F810027227C01E8B601E8810626EABD9092BD906386000B
S1233A20B701E87C01E9B601E9810226D586FF39860039B601E78100270139BD91EB860C96
S1233A40BA01E6B7DF868600B701E8B701E98645B701E4BD8F7F810027227C01E8B601E8DE
S1233A60810626EABD9092BD90638600B701E87C01E9B601E9810226D586FF39860039BD38
S1233A80911481FF2710BD9063B601E4814626037E90097E90418600B7DF8686FF39B6010E
S1233AA0FBB701F3B601F8B701F4B601F9B701F5B601FAB701F6BD8C9ABD8CE11CFEB60167
S1233AC0E68401B79202B601F884014848BA9202B79202B601E4BD90BCB69202BD90BCB622
S1233AE001F9BD90BCB601F8BD90BC1CFEB601FA4CBD90BC8602BD90BC8609BD90BC861B1D
S1233B00BD90BC86FFBD90F539BD8F9E108E0000B6DF802AFB8420270FB6DF81A7A9030093
S1233B203121108C020026E8B6DF87BD91D2BD9163B701E5BD9163810026F9B601E584C0C8
S1233B4039BD8F9E108E0000B6DF802AFB8420270FA6A90300B7DF813121108C020026E825
S1233B607E9028860CBA01E6B7DF86BD911481FF26037E90BBB601F981002716860FBD9098
S1233B80BCB601E68401BD90BCB601F9BD90BC7E90A7860CBA01E6B7DF868607BD90BCB631
S1233BA001E68401BD90BC34128E0064BD91DB3512BD9114B6DF80840F26F6393402108EB1
S1233BC00000B6DF80B792028480260D3121108C010026EE350286FF39B692028440260F0F
S1233BE03502B7DF81BD91D2BD91D2BD91D239B6DF817E90C23402B6DF80B7920284802733
S1233C00F6B69202844026063502B7DF8139B6DF817E90F7108E0000B6DF808480260ABD2A
S1233C2091D2312126F27E9131B6DF808440271939108E0000B6DF81B6DF8084802607BD6A
S1233C4091D2312126EF86FF398608BD90BCBD9163B701E384C081802708BD9163B601E336
S1233C6084C039108E0000B6DF80B7920284802607312126F2860039B6920284402703B67D
S1233C80DF8139BD91B2B6DF808180270A81D0270686FFB701E7398E0064BD91DBB6DF8035
S1233CA08180270881D086FFB701E7398600B701E739B6DF83B6DF838E0096BD91DB8600C1
S1233CC0B7DF86BD91D2860CB7DF868E0096BD91DB393402350234023502393402350234BC
S1233CE0023502301F8C000026F139B601FB84018100260886008610B701E6398621B70124
S1233D00E6390046443A0D0A0020494F3D3078000D0A204E4F542050524553454E54000D92
S1233D200A2050524553454E542C204D4F44453D44554F44594E452000BD96E68E93D9BD5E
S1233D4096FACCDF54BD9706BD96E68E93EEBD96FA8600B7DF548E0008F6DF54860059894A
S1233D60303404BD972C3504301F8C000026EDBD96E639B7DF5439B6DF5439BD96E68E931F
S1233D80F8BD96FABD96E6B694BA810026698E93FFBD96FA8625BD9712BD96E68E942D1077
S1233DA08E00018625BD94CC8E942C108E00018625BD94CC8E0300108E00058625BD952C96
S1233DC0B6030081532630B60301814426298E9415BD96FAB60302BD9712B60303BD971267
S1233DE0B60304BD9712B60305BD9712BD96E68600B794251CFE398E9408BD96FABD96E646
S1233E0086FFB7942539B694258100263BBD93A28E9427108E0005B69426BD94CC81FF270D
S1233E20278E942C108E0001B69426BD94CC81FF27168E0300108E0200B69426BD952C8180
S1233E40FF27054FB701F7398602B701F739B69425810026473420108E0201313FA6A90378
S1233E6000A7A90301108C000026F035208657B70300BD93A28E9427108E0005B69426BD41
S1233E8094CC81FF27168E0300108E0201B69426BD94CC81FF27054FB701F7398602B7011F
S1233EA0F7393406B601FBB701F3840F8A20B794268600B79428F601FCF701F4F79429F607
S1233EC001F9F701F5F7942AF601FAF701F6F7942BBD8C9ABD8CE1358646524F4E542050EC
S1233EE0414E454C3A0D0A20494F3D307800205357495443483A200046502D53443A0020B0
S1233F00414444523D307800204E4F542050524553454E540020544F54414C204259544553
S1233F20533D307800FFFF5300000000524900BD96E68E9455BD96FACCDF56BD9706BD96AE
S1233F40F2BD9466B694BA810026068E962DBD96FABD96E639493243205043463A0D0A20CB
S1233F60494F3D3078008680B7DF5712B6DF57847F263E8655B7DF5612B6DF568155102698
S1233F80016186A0B7DF5712B6DF578618B7DF5612B6DF56841F81181026014E86C1B7DF85
S1233FA05712B6DF578181102601468600B794BA39BD95DC86FFB794BA3900B694BA8100EF
S1233FC0264EBE02FA10BE02FCFC02F83432BD95BD81002708353286FFB702F83935324843
S1233FE084FEB7DF5686C5B7DF57BD958E8100261FA680B7DF56313F108C000026ECBD95EF
S12340008E8100260B86C3B7DF578600B702F83986C3B7DF5786FFB702F839B694BA81008C
S12340202661BE02FA10BE02FCFC02F8488A01B7DF563432BD95BD81002708353286FFB7F2
S123404002F839353286C5B7DF57BD958EB6DF56BD958E8100262C108C00012709B6DF5654
S1234060A780313F20EA8640B7DF57B6DF56A780BD958E86C3B7DF57B6DF56A7808600B771
S123408002F83986C3B7DF5786FFB702F83934108EFDE8B6DF57B795BC301F8C0000271780
S12340A08480810026EDB695BC840881002704860120068600200286FF351039008EFDE85A
S12340C0B6DF57840181012709301F810026F186FF3986003934108E9697204634108E9688
S12340E035203F34108E9641203834108E965A203134108E9669202A34108E9679202334A1
S1234100108E96A3201C34108E96B4201534108E96C2200E34108E96D3200734108E96DC39
S12341202000BD96FA86FFB794BA35103950524553454E54004E4F542050524553454E54B3
S12341400053455454494E4720444556494345204944204641494C454400434C4F434B206F
S1234160534554204641494C004255532049444C45204641494C4544004641494C45442061
S1234180544F20524543454956452041434B4E4F574C454447450052454144204641494CB9
S12341A0454400524541444259544553204641494C45440054494D454F5554204552524F8B
S12341C052004C4F5354204152424954524154494F4E0050494E204641494C0042555320BB
S12341E04255535900393406860A8D40860D8D3C3586340686208D3435863406A6802704AA
S12342008D2A20F8358634068D081E898D041E8935863406444444448D06A6E48D023586F6
S1234220840F8B30813923048B0720007E886C34043402588600F601001F01EC898813FDB7
S10E424001FE3502AD9F01FE3504397C
S503016398
