S01E00005B6C77746F6F6C7320342E32325D2063756269786472762E61736D39
S12388005886001F01EC898813FD01FEFC02F86E9F01FE885E886B885D8E568E568E568E50
S1238820568E568E568E568E568E568E568E568E568E568E568E568E568E568E56888789CE
S12388408689AC8E568E568E568B848CD68C8F8C058C248C318DA88DCF8D938D6139F6DF76
S12388605DC420C10027F7B7DF5839B6DF5D840181002709B6DF58B702F81A043986FFB754
S123888002F83900000000BD8E57BD8E578E8AE5BD8E60BD8E57BD897826178E8AEDBD8EC8
S12388A060CCDF88BD8E6DBD89D7BD88D825037E88BB8E8AF4BD8E607E88D4BD8E578E8BFA
S12388C001BD8E608600BD89198E8B12BD8E608601BD8919BD8E57398600B7DF88BD89F191
S12388E02534860FBD8A81C440C1002729860ABD8A81C1012620860BBD8A81C1012617866B
S12389000CBD8A81C100260E860DBD8A81C10026051CFE7E89181A0139C60EF7888484015A
S1238920484848488AE01F898600BD8AAABD89F12534860FB78884CC00ECBD8AAABD8A189A
S12389402524BD8A468E8B23BD8E60B6037BBD8E76B6037ABD8E76B60379BD8E76B6037849
S1238960BD8E767E89728E8AF4BD8E60BD8E571A0139BD8E571CFE39BD8AD78600B7DF8855
S1238980B6DF88810039BD89F1251BBD8B26860FB78884CC0020BD8AAABD8A182508BD8A0F
S12389A0464FB701F7398602B701F739BD89F12520BD8B26860FB78884CC0030BD8AAABDDA
S12389C08A18250DBD8A62BD89F125054FB701F7398602B701F7398680B7DF8A108E010049
S12389E0313F108C000026F88600B7DF8ABD8BFD3934068600B78885B78886860FBD8A817F
S1238A00C480270F7C888526F27C888626ED1A017E8A151CFE35863934268600B78885B7F9
S1238A208886860FBD8A81C488C1082715C401C101270A7C888526EA7C888626E51A017EF7
S1238A408A441CFE35A6108E00008608BD8A84E7A903003121A7A903003121108C0200260A
S1238A60E939108E00008608B78884E6A903003121A6A903003121BD8AAA108C020026E6BE
S1238A8039BD8AC9B7DF8A8A40B7DF8A3402F6DF88B6DF89B788833502B7DF8A8840B7DF57
S1238AA08A8600B7DF8AB6888339BD8AD7F7DF88B7DF89B68884B7DF8A8A20B7DF8A882099
S1238AC0B7DF8A8600B7DF8A3934028600B7DF8A8692B7DF8B358234028600B7DF8A8680E5
S1238AE0B7DF8B35825050494445203A0020494F3D307800204E4F542050524553454E54DF
S1238B0000205050494445303A20424C4F434B533D00205050494445313A20424C4F434BB2
S1238B20533D003078003406860EB701F3B788848600F601FBC40158585858CAE0BD8AAA85
S1238B40860DB788848600F601FCF701F4BD8AAA860CB788848600F601F9F701F5BD8AAABC
S1238B60860BB788848600F601FAF701F6BD8AAA860AB788848600C601BD8AAABD8C8FBD21
S1238B808CD63586BD8BCD8E8E33BD8E60BD8E578E8E39BD8E60CCDF88BD8E6D8E8E40BDFF
S1238BA08E60B68E2A81FF27088E8E49BD8E6020188E0000A6898E2BA78901EA30018C0010
S1238BC00826F1BD8CD6BD8DA8BD8E5739BD8C16262ABD8E028606B7DF8A8A80B7DF8A8430
S1238BE07FB7DF8ABD8BFD86A5C600BD8D71C600BD8D8481A5260586FFB78E2A39BD8E156F
S1238C008620BD8CED86DFBD8CED8E000034103510301F26F839BD8DEA8600B7DF88B6DFAF
S1238C2088810039B68E2A81FF2605BD8D29840F39B68E2A81FF2629BD8C2427F48640BD4E
S1238C408CEDBD8D2E88C03402843FB78E288E0000A6898C73B18E28270C30018C001C261C
S1238C60F0350286FF39350294C0B78E281F18BA8E28390D040C14030B13020A12010911A8
S1238C8000081005151D1C1B1A1918232221208E0000A68901F344444444C6001E891F022A
S1238CA0A6A98E1834021F10581F023502A7A901EAA68901F3840FC6001E891F02A6A98E4A
S1238CC01834021F10581F023502A7A901EB30018C000426BD3934368E0000A68901EA1F19
S1238CE019BD8D7130018C000826F035B6340286017E8CF834028600BD8DEA8A06B7DF8A77
S1238D008A18B7DF8AB78E283502B7DF88B68E2884FDB7DF8A128A02B7DF8A84E7B7DF8A75
S1238D2084E6B7DF8ABD8E153986017E8D308600BD8E028A06B7DF8A8A18B7DF8A847BB74F
S1238D40DF8AB78E28B6DF883402B68E288A04B7DF8A84E7B7DF8A84E6B7DF8ABD8E153522
S1238D60828690BD8CEDC61086FFBD8CF45A26F83934021CFEC9901F98BD8CED350288FF84
S1238D80BD8CF4391CFEC9701F98BD8CEDBD8D2E88FF393416C6008E01EAA684BD8D715C17
S1238DA03001C10826F435963416C60FBD8D848A208620C60FBD8D718E8FFF301F26FCC6B0
S1238DC00FBD8D8484DF86DFC60FBD8D71359634061CFEC401C90DBD8D84810027058A207B
S1238DE07E8DE584DFBD8D7135863402B68E298182270D8682B7DF8BB78E298606B7DF8A89
S1238E0035823402B68E29819227088692B7DF8BB78E2935827E8E023F065B4F666D7D0700
S1238E207F67777C395E79710000005E1C5C5E6E54794044534B593A0020494F3D30780013
S1238E40204D4F44453D4E4700204E4F542050524553454E540039860A8D35860D8D313990
S1238E603406A68027048D2820F83506398D071E898D031E89393402444444448D06A6E414
S1238E808D023582840F8B30813923048B0720007E885E34043402588600F601001F01ECF4
S1128EA0898813FD01FE3502AD9F01FE350439AB
S5030036C6
