S1232020414E544152455300524947454C0050524F43594F4E00564547410043414E4F505D
S1202040555300414C5441495200534147495454415249555300504F4C4C555800E6
S1136C6420202028202E2036203B2043204A205652
S123205D5349524955530044454E454200434150454C4C4100424554454C4745555345004B
S123207D414C4445424152414E00524547554C5553004152435455525553005350494341B5
S104209D003E
S1136C74205D2064206A2072207D2087208F209844
S113209E2049002049490020494949002049560059
S10B6C84209E20A120A520AAF6
S12320AE5741525020454E47494E45530053484F52542052414E47452053454E534F525341
S12320CE004C4F4E472052414E47452053454E534F52530050484153455220434F4E54527B
S12320EE4F4C0050484F544F4E2054554245530044414D41474520434F4E54524F4C005385
S122210E4849454C4420434F4E54524F4C004C4942524152592D434F4D50555445520056
S1236C8C20AE20BB20CF20E220F120FE210D211C000100010000FFFFFFFFFFFF00000001B3
S1236CAC0000FFFFFFFFFFFF000000010001000100010002000000020001000200000002BD
S1236CCC0003807F87C07F8FE01C1FF00E1FF007FFF007FFF00E1FF01C1FF07F8FE07F87FD
S1236CECC00003800000F00003F80007FC000FFE000FFE000FFE000FFE0087FC01C7F803D9
S1236D0C8EF007FC000E7800043900001B80001F00001E00003C000078000030001F803F85
S1236D2CC07FE0FFF0FFF0FFF07FE03FC01F8006000600666066606F607FE079E070E0608B
S1236D4C6060600F00001FC0003FE0007FF0007FF0007FF0007FF0003FE1001FE3800F7118
S1236D6CC0003FE0001E70009C2001D80000F800007800003C00001E00000C0001C0000367
S1236D8CE1FE07F1FE0FF8380FF8700FFFE00FFFE00FF8700FF83807F1FE03E1FE01C0002D
S1236DAC000C00001E00003C0000780000F80001D800009C20001E70003FE00F71C01FE369
S1236DCC803FE1007FF0007FF0007FF0007FF0003FE0001FC0000F00006060606070E079F1
S1236DECE07FE06F6066606660060006001F803FC07FE0FFF0FFF0FFF07FE03FC01F800016
S1236E0C3000007800003C00001E00001F00001B800439000E780007FC00038EF001C7F89F
S1236E2C0087FC000FFE000FFE000FFE000FFE0007FC0003F80000F06CCC6CF06D296D4FB7
S11A6E4C6D886DAC6DE56E0BE0DCDC0A0E0A262439101818130C13A3
S1236E6310925438FE3854921000E00001F00001F00000E00000400000400001F00067FC3B
S1236E83C0F7FDE0FFFFE0F7FDE067FCC003F80001F00000400000400000E00001F0000144
S1236EA3F00000E000FF00FF000C0E0C1F0FFF0FFF0C1F0C0EFF00FF0000000E00001F002C
S1236EC3001F00001F00083E001C700038E0007DC000E78001C3100081B80000F00000E002
S1236EE30001C00003800007000002000F001F801F801F800F0006000600060066606660A5
S1236F037FE07FE06060606060606060700000F80000F80000F800007C10000E3800071C5F
S1236F230003BE0001E70008C3801D81000F000007000003800001C00000E000004000003E
S1236F43FF00FF7030F830FFF0FFF0F830703000FF00FF00400000E00001C0000380000755
S1236F6300000F00001D810008C38001E70003BE00071C000E38007C1000F80000F8000084
S1236F83F8000070000060606060606060607FE07FE0666066600600060006000F001F8078
S1236FA31F801F800F000002000007000003800001C00000E00000F00081B801C31000E76C
S1236FC380007DC00038E0001C7000083E00001F00001F00001F00000E6EA86EBC6EEF6F8C
S11B6FE30F6F426F566F896FA9DCDCDC0A0A0A201433101018100A1181
S1076FFBACE1000100
S123212D3440327C33E4AF42AE42AFC4ECC4108300002C08ECC440508200EDC4AEC432640F
S123214D35C03460327C33E4AF42BD6AB84FBE6FFB308BBF6FFBBE6FFBAFC4ECC4445644CC
S123216D56EDC4BE6FFBECC43410A8E0E8E01F0110BE6FFB10AFC4ECC4445644564456ED95
S123218DC4ECC43410A8E0E8E01F01FC6FFB445644564456445644563410A8E0E8E04FC4F7
S12321AD01FD7096BE6FFBAFC4ECC444561F01FC70961F985F464684803410AAE0EAE0FDC8
S12321CD6FFB10BE6FFBAE42341030A4BD6A2D3262326435E03460327C33E4AFC48E000057
S12321EDAF422007EC42C30001ED42EC4210AEC430ABE6845D26EDAE42326435E0346032CF
S123220D7A33E4AF428E0000AF44201BEC44AE42318BEC44AE4C308BAFC4AEC4E684E7A4D4
S123222DEC44C30001ED44EC4410AE4C30ABE6845D26D9EC4410AE4230AB6F84326635E0E2
S123224D3460327833E4AF42AE42BD21E2AF448E0000AF462021EC44E3461F011F10AE4228
S123226D318BEC46AE4E308BAFC4AEC4E684E7A4EC46C30001ED46EC4610AE4E30ABE68422
S123228D5D26D3EC44E3461F011F1010AE4230AB6F84326835E03460327333E4AF498E00DC
S12322AD00AF4B2041EC4B10AE4930ABE684E742EC4B10AEC81330ABE684E1422721EC4B4F
S12322CD10AE4930ABE6844FED45EC4B10AEC81330ABE6844FEDC4EC45A3C4ED432041ECF6
S12322ED4BC30001ED4BEC4B10AE4930ABE6845D270FEC4B10AEC81330ABE6845D1026FFC9
S123230DA4EC4B10AE4930ABE6844FED47EC4B10AEC81330ABE6844FEDC4EC47A3C4ED4323
S123232DAE43326D35E03440327F33E4BD5CAAE7C4E6C4BD5CF6E7C4E6C4BD6AA8E6C43284
S123234D6135C03460327B33E4AFC48E0000AF422023BD2333E744E644C10A2722E644C122
S123236D0D271CEC4210AEC430ABE644E784EC42C30001ED42EC4BC3FFFF10A3422ED3ECE1
S123238D4210AEC430AB6F84326535E053544152205452454B00344033E4BD5E735FBD5ECB
S12323AD31C604BD60D48E239934108E000034108E000934108E00643410C6178E0064BD23
S12323CD5DF43268BD5CAA35C0535441524441544500434F4E444954494F4E00515541441F
S12323ED52414E5400534543544F520050484F544F4E20544F525045444F455300454E4542
S123240D52475900534849454C4453004B4C494E474F4E5300444556494345004845414C7E
S123242D5448003460327C33E4BD5E735FBD5E31C60CBD60D48E01DF34108E027F34108E07
S123244D000034108E0000BD5F953266C603BD60D48E00C834108E027E34108E00C8341010
S123246D8E0001BD5F7032668E008734108E00C834108E008734108E0001BD5F7032668E0B
S123248D00C834108E00C834108E000134108E00C8BD5F7032668E00C834108E019B341030
S12324AD8E000134108E019BBD5F703266C606BD60D48E23D634108E000034108E000634C8
S12324CD108E000A3410C6078E000ABD5DF432688E23DF34108E000034108E000634108EE6
S12324ED00193410C6078E000ABD5DF432688E23E934108E000034108E000634108E002823
S123250D3410C6078E000ABD5DF432688E23F234108E000034108E000634108E00373410BF
S123252DC6078E000ABD5DF432688E23F934108E000034108E000634108E00463410C60700
S123254D8E000ABD5DF432688E240A34108E000034108E000634108E00553410C6078E00FE
S123256D0ABD5DF432688E241134108E000034108E000634108E00643410C6078E000ABD8F
S123258D5DF432688E241934108E000034108E000634108E00733410C6078E000ABD5DF4CE
S12325AD32688E242234108E000034108E000634108E01A43410C6078E000ABD5DF432682A
S12325CD8E242934108E000034108E000634108E02083410C6078E000ABD5DF432688E00AA
S12325ED00AF422045EC425849108E6C8C30AB10AE84AE42AFC4ECC458495849584958495B
S123260DEDC4ECC43410A3E1C3001934208E000034108E000634103406C6078E01A4BD5D52
S123262DF43268EC42C30001ED42AE428C00072FB47F70957F708B7F708C326435E00A0D39
S123264D2A2A2A2053484F52542052414E47452053454E534F525320415245204F55542031
S123266D2A2A2A0A0D0A0D0025640025642C256400346032E8AA33E45FBD60D45FBD60A8F3
S123268D8E008234108E00C634108E000A34108E007DBD5FDF32668E00AA34108E019A34EA
S12326AD108E000A34108E00DCBD5FDF32668E01D634108E019034108E00D234108E000AD8
S12326CDBD5FDF3266BE71AC8C00002C0D8E264B3410BD68D632621605E5C605BD60D4BE6A
S12326ED700E34108E2675341030C8323410BD68F2326630C83234108E000034108E0008A7
S123270D34108E000A3410C6198E0087BD5DF43268BE702210BE7020341034208E26783446
S123272D1030C8323410BD68F2326830C83234108E000034108E000834108E00283410C67F
S123274D198E0087BD5DF43268BE702610BE7024341034208E2678341030C8323410BD6841
S123276DF2326830C83234108E000034108E000834108E00373410C6198E0087BD5DF43265
S123278D68BE701634108E2675341030C8323410BD68F2326630C83234108E000034108EE0
S12327AD000834108E00463410C6198E0087BD5DF43268BE701434108E2675341030C832EB
S12327CD3410BD68F2326630C83234108E000034108E000834108E00553410C6198E0087C0
S12327EDBD5DF43268BE701834108E2675341030C8323410BD68F2326630C83234108E0010
S123280D0034108E000834108E00643410C6198E0087BD5DF43268BE701C34108E267534CC
S123282D1030C8323410BD68F2326630C83234108E000034108E000834108E00733410C635
S123284D198E0087BD5DF43268F67095BD60D48E708B34108E000034108E000834108E009E
S123286D193410C6198E0087BD5DF43268C607BD60D48E0000AFC85016043A8E0000AFC8E2
S123288D5216041EECC85058495849584910AEC85230ABE6897036C12A1026006BC603BDDC
S12328AD60D4AEC850AFC816ECC81658495849EDC816ECC8165849584910AEC81630AB31F5
S12328CD0FAEC852AFC814ECC81458495849EDC814ECC81458495849EDC4ECC4E3C814ED9B
S12328ED42EC42C300E28E6E6334108E000934108E000034108E000934108E000834103479
S123290D201F01BD5F35326CECC85058495849584910AEC85230ABE6897036C1451026018B
S123292D5DC60ABD60D4F6700B4F5849108E6E4430ABAE84AFC818F6700B4FC300105849E7
S123294D108E6C9C30ABAE84E6896E5A4FEDC81AF6700B4FC300105849108E6C9C30ABAEFB
S123296D84E6896E604FEDC81CF6700B4FC300105849108E6C9C30ABAE84E6896E5D4FED08
S123298DC81EAEC850AFC812ECC81258495849EDC812ECC81258495849AEC812318BF67070
S12329AD0B4FC3001058498E6C9C308BAF42AE42AE84AF42AE42E6896E574F31AB10AFC80D
S12329CD20AEC852AFC810ECC81058495849EDC810ECC81058495849AEC810318BF6700BF3
S12329ED4FC3001058498E6C9C308BAF42AE42AE84AF42AE42E6896E544F31ABECC8183462
S1232A0D06AEC81A34108E00003410ECC81C3406AEC81E3410ECC820340630A4BD5F3532B2
S1232A2D6CC602BD60D4BE70188C00002F50AEC850AF4EEC4E58495849ED4EEC4E58495862
S1232A4D4910AE4E30AB308813AFC822AEC852AF4CEC4C58495849ED4CEC4C5849584910D1
S1232A6DAE4C30AB318900E58E001434108E001E3410ECC822340630A4BD5F103266ECC89F
S1232A8D5058495849584910AEC85230ABE6897036C15810260061C60CBD60D4AEC850AF42
S1232AAD4AEC4A58495849ED4AEC4A5849584910AE4A30AB310AAEC852AF48EC485849588A
S1232ACD49ED48EC4858495849EDC4ECC4E348ED42EC42C300DC8E6E6C34108E003C3410AF
S1232AED8E000034108E001434108E0018341034201F01BD5F35326CECC850584958495822
S1232B0D4910AEC85230ABE6897036C14B102601888E0000AFC854BE7026ACC8522F2ABE3E
S1232B2D7024ACC8502F068E0007AFC854BE7024ACC85026068E0000AFC854BE7024ACC836
S1232B4D502C068E0001AFC854BE7026ACC8522C2ABE7024ACC8502F068E0005AFC854BEB1
S1232B6D7024ACC85026068E0004AFC854BE7024ACC8502C068E0003AFC854BE7026ACC8F7
S1232B8D52261CBE7024ACC8502F068E0006AFC854BE7024ACC8502C068E0002AFC854C67D
S1232BAD09BD60D4ECC8545849108E6FDC30ABAE84AFC824AEC8541F10C300105849108EC5
S1232BCD6C9C30ABAE84E6896FF24FEDC826AEC8541F10C300105849108E6C9C30ABAE84B5
S1232BEDE6896FF84FEDC828AEC8541F10C300105849108E6C9C30ABAE84E6896FF54FED93
S1232C0DC82AAEC850AF46EC4658495849ED46EC4658495849AE46318BAEC8541F10C3006F
S1232C2D1058498E6C9C308BAF42AE42AE84AF42AE42E6896FEF4F31AB10AFC82CAEC8521A
S1232C4DAF44EC4458495849ED44EC4458495849AE44318BAEC8541F10C3001058498E6C46
S1232C6D9C308BAF42AE42AE84AF42AE42E6896FEC4F31ABECC8243406AEC82634108E0083
S1232C8D003410ECC8283406AEC82A3410ECC82C340630A4BD5F35326CECC852C30001ED51
S1232CADC852AEC8528C0007102FFBD8ECC850C30001EDC850AEC8508C0007102FFBBCF66A
S1232CCD700B4F5849108E6C9C30AB10AE84BE70261F20318B10AFC852F6700B4FC3000802
S1232CED5849108E6C9C30AB10AE84BE70241F20318B10AFC850ECC8505849584958491044
S1232D0DAEC85230ABE6897036C12A2653C603BD60D46FE26FE26FE26FE2C601E7E2C60131
S1232D2DE7E25FBD611B32668E6E6334108E000934108E000034108E000934108E00083494
S1232D4D108E010E34108E012CBD5F35326C6FE26FE26FE26FE26FE26FE25FBD611B3266B1
S1232D6DECC85058495849584910AEC85230ABE6897036C14B10260070C609BD60D46FE2D0
S1232D8D6FE26FE26FE2C601E7E2C601E7E25FBD611B326610BE6FE6BE6CC6E6896FF24FAD
S1232DADEDC82EBE6CC6E6896FF84FEDC830BE6CC6E6896FF54F3420AEC82E34108E000049
S1232DCD341010AEC830342034068E010E34108E012CBD5F35326C6FE26FE26FE26FE26F1C
S1232DEDE26FE25FBD611B3266ECC85058495849584910AEC85230ABE6897036C15826531E
S1232E0DC60CBD60D46FE26FE26FE26FE2C601E7E2C601E7E25FBD611B32668E6E6C34109E
S1232E2D8E003C34108E000034108E001434108E001834108E010E34108E012CBD5F3532B2
S1232E4D6C6FE26FE26FE26FE26FE26FE25FBD611B3266BD53B732E85635E0346032E8E005
S1232E6D33E48E0014BD214FAF48EC4858495849ED48EC4858495849AE48308BAF48EC4867
S1232E8D5849584910AE4830AB308907D0BF700EBE700EBF70108E000ABD214F308819BF61
S1232EAD70128E0BB8BF70148E000ABF70168E0000BF70188E0000BF701A8E0000BF701C89
S1232ECD8E0000BF70327F700B8E0000AFC8162018ECC81658498E71AA318B8E0064AFA490
S1232EEDECC816C30001EDC816AEC8168C00072FE08E0000AFC8161601318E0000AFC818BA
S1232F0D1601158E0000AFC81A8E0000AFC81C8E0008BD214F3001AFC81E8E0064BD214F8C
S1232F2D8C00622F108E0003AFC81ABE701C3003BF701C20348E0064BD214F8C005F2F10CC
S1232F4D8E0002AFC81ABE701C3002BF701C20198E0064BD214F8C00502F0E8E0001AFC801
S1232F6D1ABE701C3001BF701C8E0064BD214F8C00602F0E8E0001AFC81CBE701A3001BFBE
S1232F8D701A10AEC81610AF4AECC818ED4CAEC81AAF46EC4658495849ED46EC4658495895
S1232FAD49AE46308BAF46EC4658495849AE46318BAEC81CAF44EC445849ED44EC44584997
S1232FCD5849ED42EC42E344EDC4ECC431AB10AF4210AE421E02E3C81E1E02EC4A58495845
S1232FED495849E34C58498E7098308BAFC4AEC410AF84ECC816AEC818584958495849341E
S123300D10E3E158498E712A318B8E0000AFA4ECC818C30001EDC818AEC8188C0007102FA7
S123302DFEE1ECC816C30001EDC816AEC8168C0007102FFEC5BE701A8C0000102600C48ECA
S123304D0007BD214FAFC8168E0007BD214FAFC818ECC816AEC8185849584958493410E3EB
S123306DE15849108E709830ABAE848C00C72E49ECC816ED4EAEC818AFC810ECC816AEC8E6
S123308D185849584958493410E3E15849108E709830ABAE84318878EC4E5849584958497A
S12330ADE3C81058498E7098308BAFC4AEC410AF84BE701C3001BF701C8E0001BF701A107C
S12330CDAEC81610AFC812ECC818EDC814ECC816AEC8185849584958493410E3E158491031
S12330ED8E709830ABAE84310AECC812584958495849E3C81458498E7098308BAFC4AEC4A2
S123310D10AF848E0007BD214FBF70208E0007BD214FBF70228E0007BD214FBF70248E0094
S123312D07BD214FBF7026BE701CBF701E10BE701CBE7012341010ACE12F08BE701C300131
S123314DBF70128E0000AFC8162012AEC816C620E7897036ECC816C30001EDC816AEC81663
S123316D8C00402FE632E82035E00A0D0A0D0A0D0A0D0A0D0A0D0A0D0A0D0A0D0A0D0A0D11
S123318D00202020202020202020202020202020202C2D2D2D2D2D2D2A2D2D2D2D2D2D2C80
S12331AD0A0D002C2D2D2D2D2D2D2D2D2D2D2D2D2D202020272D2D2D20202D2D2D2D2D2D16
S12331CD270A0D0020272D2D2D2D2D2D2D2D202D2D272020202020202F202F0A0D002020BB
S12331ED20202C2D2D2D2720272D2D2D2D2D2D2D2F202F2D2D2C0A0D0020202020272D2D06
S123320D2D2D2D2D2D2D2D2D2D2D2D2D2D2D270A0D0A0D0020205448452055535320454EE3
S123322D5445525052495345202D2D2D204E43432D313730310A0D000A0D0A0D0A0D0A0D0B
S123324D0A0D00594F5552204F52444552532041524520415320464F4C4C4F57533A0A0DC5
S123326D00202020202044455354524F5920544845202564204B4C494E474F4E205741528D
S123328D5348495053205748494348204841564520494E56414445440A0D00202020544891
S12332AD452047414C415859204245464F524520544845592043414E2041545441434B20BB
S12332CD46454445524154494F4E204845414451554152544552530A0D002020204F4E201F
S12332ED53544152444154452025642E205448495320474956455320594F5520256420446E
S123330D4159532E205448455245002049530A0D20203120535441524241534520494E2059
S123332D5448452047414C41585920464F52205245535550504C59494E4720594F5552209D
S123334D534849500A0D00204152450A0D202025642053544152424153455320494E205446
S123336D48452047414C41585920464F52205245535550504C59494E4720594F555220535E
S123338D4849500A0D000A0D00346033E48E31773410BD68D632628E318E3410BD68D6329B
S12333AD628E31B03410BD68D632628E31D13410BD68D632628E31EB3410BD68D632628EEA
S12333CD32063410BD68D632628E32213410BD68D632628E32453410BD68D632628E325035
S12333ED3410BD68D63262BE701C34108E326E3410BD68D632648E32A83410BD68D632621D
S123340DFC701210BE7010BE70121E02308B1E02340634108E32E73410BD68D63266BE706A
S123342D1A8C0001260C8E33183410BD68D63262200FBE701A34108E33543410BD68D632B5
S123344D648E33933410BD68D6326235E0594F5552204D495353494F4E20424547494E5352
S123346D205749544820594F5552205354415253484950204C4F43415445440A0D00494E18
S123348D205448452047414C4143544943205155414452414E542C20272573272E0A0D00CB
S12334AD4E4F5720454E544552494E47202573205155414452414E54202E202E202E0A0D52
S12334CD00434F4D4241542041524541202020202020434F4E444954494F4E205245440A80
S12334ED0D00202020534849454C44532044414E4745524F55534C59204C4F570A0D003478
S123350D60327233E4FC7020BE70225849584958493410E3E15849108E709830AB10AE8454
S123352D8E0064341030A4BD6A093262BF7028FC7020BE70225849584958493410E3E15836
S123354D49108E709830AB10AE848E0064341030A4BD6A14326231848E000A341030A4BD53
S123356D6A093262BF702AFC7020BE70225849584958493410E3E15849108E709830AB10E1
S123358DAE848E000A341030A4BD6A143262BF702C8E0000AF4C200FAE4CC620E789703660
S12335ADEC4CC30001ED4CAE4C8C00402FEA8E0000AF4C16006AAE4CAF46EC465849ED46E8
S12335CDEC46308BAF46EC465849ED46AE46318971188E0000AFA4AE4CAF44EC445849ED2F
S12335ED44EC44308BAF44EC44C3000158498E7118318B8E0000AFA4AE4CAF42EC42584995
S123360DED42EC42308BAF42EC425849ED42AE423189711C8E0000AFA4EC4CC30001ED4C45
S123362DAE4C8C0002102FFF8DBE702210BE7020341030A4BD391D326210BE7010BE700E2F
S123364D341010ACE1261B8E345A3410BD68D632628E707734108E348B3410BD68D632646D
S123366D200F8E707734108E34AD3410BD68D63264BE70288C00002F1C8E34CE3410BD68E7
S123368DD63262BE70188C00C82E0A8E34EF3410BD68D63262BD377BBD36EB10BE7020109E
S12336ADAF48FC7022ED4AFC7020BE70225849584958493410E3E15849108E709830AB1044
S12336CDAE84EC48584958495849E34A58498E712A308BAFC4AEC410AF84326E35E034408D
S12336ED327C33E48E0001AFC48E0000AF4216005CFC7024584958495849BE7026308BE699
S123370D897036C1202741BE70263001BF7026EC42C30001ED42BE70268C00072F068E007B
S123372D00BF7026AE428C00082622BE70243001BF70248E0000AF42BE70248C00072F0DE1
S123374D8E0000BF702420058E0000AFC4AEC48C00001026FF9BFC7024584958495849BE52
S123376D7026308BC645E7897036326435C0346032E8EE33E48E0000AF4C1600E78E00076D
S123378DBD214FAF4E8E0007BD214FAFC810EC4E58495849584910AEC81030ABE689703602
S12337ADC12026D9AE4CAF48EC485849ED48EC48308BAF48EC485849ED48AE4831897118F4
S12337CDAE4EAFA4AE4CAF46EC465849ED46EC46308BAF46EC46C3000158498E7118318B48
S12337EDAEC810AFA410AE4C10AF4A8E0032BD214FAF44EC44584958495849ED44EC445820
S123380D495849AE44308BAF44EC445849584910AE4430AB318927108E0064341030A4BD06
S123382D6A0932623184EC4AED42EC425849ED42EC42E34AED42EC425849ED42AE42308927
S123384D711CAFC4AEC410AF84EC4E58495849584910AEC81030ABC64BE7897036EC4CC3F2
S123386D0001ED4CBE7028AC4C102EFF10BE702A8C00002F468E0007BD214FAF4E8E0007B5
S123388DBD214FAFC810EC4E58495849584910AEC81030ABE6897036C12026D9AE4EBF70B5
S12338AD2EAEC810BF7030EC4E58495849584910AEC81030ABC658E78970368E0000AF4C99
S12338CD20428E0007BD214FAF4E8E0007BD214FAFC810EC4E58495849584910AEC810308A
S12338EDABE6897036C12026D9EC4E58495849584910AEC81030ABC62AE7897036EC4CC388
S123390D0001ED4CBE702CAC4C2EB732E81235E03460327A33E4AF44AE4C8C00032E18ECDF
S123392D445849108E6C6430ABAE8434108E7077BD220A32622016EC445849108E6C74302B
S123394DABAE8434108E7077BD220A3262EC4CEDC4ECC48480C403ED42AE428C00002C16F2
S123396DEC42C3FFFFED42EC428AFFCAFCED42EC42C30001ED42EC425849108E6C8430AB13
S123398DAE8434108E7077BD224D3262326635E00A0D2A2A20464154414C204552524F5221
S12339AD202A2A202020594F55275645204A55535420535452414E44454420594F555220F9
S12339CD5348495020494E2053504143450A0D00594F55204841564520494E5355464649D3
S12339ED4349454E54204D414E4555564552494E4720454E455247592C20414E442053481E
S1233A0D49454C4420434F4E54524F4C0A0D0049532050524553454E544C5920494E434162
S1233A2D5041424C45204F462043524F53532D43495243554954494E4720544F20454E47D7
S1233A4D494E4520524F4F4D21210A0D00434F4E47524154554C4154494F4E532C20434176
S1233A6D505441494E2120544845204C415354204B4C494E474F4E20424154544C452043D2
S1233A8D5255495345520A0D004D454E4143494E47205448452046454445524154494F4EE0
S1233AAD20484153204245454E2044455354524F5945442E0A0D0A0D00594F555220454696
S1233ACD46494349454E435920524154494E472049532025640A0D0049542049532053540A
S1233AED4152444154452025640A0D003460327733E4BD267EBD5CBEE748E648C1612614FF
S1233B0DF6700B5CF7700BF6700BC10723037F700BBD267EE648C1642617F6700B5D27090D
S1233B2DF6700B5AF7700B2005C607F7700BBD267EE648C173260EBE70148C00002F06BD1C
S1233B4D3E5EBD267EE648C1772619BE70148C00082F11BE71AA8C00002D098E0001BD4273
S1233B6DB4BD267EE648C1742606BD5036BD267EE648C13E2625BE71B68C00002F1DBE7089
S1233B8D148C00642F12BE7018308864BF7018BE701430889CBF7014BD267EE648C13C269B
S1233BAD25BE71B68C00002F1DBE70188C00642F12BE701830889CBF7018BE70143088645C
S1233BCDBF7014BD267EE648C16C2606BD4585BD267EE648C1272606BD5BFE160126E648FE
S1233BEDC1202606BD4A0BBD267EE648C1632606BD5545BD267EBE701810BE70141E023016
S1233C0D8B1E028C000A2E34BE70148C000A2F08BE71B68C00002C248E399D3410BD68D67D
S1233C2D32628E39DD3410BD68D632628E3A1C3410BD68D63262BD5BFE1600C8BE701C8CE7
S1233C4D0000102E00938E3A5A3410BD68D632628E3A963410BD68D6326210BE701EBE70D2
S1233C6D1E341030A4BD69EA3262AF44EC4458495849ED44EC44584958495849584958496E
S1233C8DED42EC42A344ED42EC42308BAF42EC42584958495849ED42AE42AF46FC700EED3A
S1233CADC4BE7010ECC43410A3E11F02FC700EBE70103410A3E1340630A4BD69EA326234F2
S1233CCD10AE46BD6A09326234108E3AC63410BD68D63264BD5BFE202B10BE7010BE701275
S1233CED1E0131AB1E01BE700E341010ACE1102CFE03BE700E34108E3AE53410BD68D632A1
S1233D0D64BD5BFE326935E0444F434B45440000534849454C44532044524F505045442064
S1233D2D464F5220444F434B494E4720505552504F5345530A0D002A5245442A00005945E7
S1233D4D4C4C4F570000475245454E0000344033E48E0000BF7032BE702A8C00002F5CFCBE
S1233D6D7024BE702E3410A3E11F01BD212D8C00012E48FC7026BE70303410A3E11F01BDB7
S1233D8D212D8C00012E348E0001BF70328E3D1534108E708BBD220A3262C60CF770958E5F
S1233DAD0BB8BF70148E000ABF70168E3D1D3410BD68D632628E0000BF7018BE70328C0093
S1233DCD00264ABE70288C00002F148E3D4434108E708BBD220A3262C609F77095202EBE0D
S1233DED70148C012B2E148E3D4B34108E708BBD220A3262C60BF7709520128E3D53341073
S1233E0D8E708BBD220A3262C60AF7709535C0494D50554C534520454E47494E455320530F
S1233E2D48555420444F574E20415420534543544F522025642C25642044554520544F2044
S1233E4D424144204E415649474154494F4E0A0D00346032E8E433E4F6700B4FC3000858D7
S1233E6D49108E6C9C30AB10AE84BE70241F20318B10AFC814F6700B4F5849108E6C9C3006
S1233E8DAB10AE84BE70261F20318B10AFC816AEC8148C00002D31AEC8148C00072E29AEA2
S1233EADC8168C00002D2110AEC816108C00072E17ECC81458495849584910AEC81630AB93
S1233ECDE6897036C1202717AEC8163410AEC81434108E3E1C3410BD68D63266160263FCC9
S1233EED7024584958495849BE7026308BC620E7897036AEC814BF7024AEC816BF7026FC75
S1233F0D7024584958495849BE7026308BC645E7897036BE7014301FBF70148E0000AFC810
S1233F2D181602038E0009BD214FAFC81AAEC81A8C0007102E01E7AEC818AFC812ECC812C2
S1233F4D5849EDC812ECC812308BAFC812ECC8125849EDC81210AEC81230A9711CAE848CF4
S1233F6D0000102F01B8AEC818AFC810ECC8105849EDC810ECC810308BAFC810ECC81058D7
S1233F8D49EDC81010AEC81030A9711810AE84ECC81A584958495849C3000158498E6C9C1C
S1233FAD308BAFC4AEC4AE84AFC4ECC431AB10AFC814AEC818AF4EEC4E5849ED4EEC4E3079
S1233FCD8BAF4EEC4EC300015849108E711830AB10AE84ECC81A58495849584958498E6C19
S1233FED9C308BAFC4AEC4AE84AFC4ECC431AB10AFC816AEC8148C0000102D0121AEC816A5
S123400D8C0000102D0117AEC8148C0007102E010D10AEC816108C0007102E0101ECC814FE
S123402D58495849584910AEC81630ABE6897036C120102600E8AEC818AF4CEC4C5849EDB2
S123404D4CEC4C308BAF4CEC4CC300015849108E711830AB10AE84AEC818AF4AEC4A5849D6
S123406DED4AEC4A308BAF4AEC4A5849ED4AAE4A30897118AFC4AEC4EC845849584958498E
S123408D30ABC620E7897036AEC818AF48EC485849ED48EC48308BAF48EC485849ED48AE0B
S12340AD4831897118AEC814AFA4AEC818AF46EC465849ED46EC46308BAF46EC46C3000126
S12340CD58498E7118318BAEC816AFA4AEC818AF44EC445849ED44EC44308BAF44EC44C328
S12340ED00015849108E711830AB10AE84AEC818AF42EC425849ED42EC42308BAF42EC4244
S123410D5849ED42AE4230897118AFC4AEC4EC8458495849584930ABC64BE7897036ECC89E
S123412D18C30001EDC818BE7028ACC818102EFDF3BD3D5ABD5716BD5A49BE700E3001BFAB
S123414D700E32E81C35E05741525020454E47494E4553205348555420444F574E204154B1
S123416D20534543544F522025642C25642044554520544F20424144204E4156494741540E
S123418D494F4E0A0D004C542E205548555241205245504F525453204D455353414745200A
S12341AD46524F4D2053544152464C45455420434F4D4D414E443A0A0D0020202750455232
S12341CD4D495353494F4E20544F20415454454D50542043524F5353494E47204F46204706
S12341ED414C414354494320504552494D455445520A0D00202049532048455245425920FE
S123420D2A44454E4945442A2E20205348555420444F574E20594F555220454E47494E4541
S123422D532E270A0D00434849454620454E47494E4545522053434F5454205245504F528D
S123424D54532020275741525020454E47494E4553205348555420444F574E0A0D002020C9
S123426D415420534543544F522025642C2564204F46205155414452414E542025642C251B
S123428D642E27200A0D002057454C434F4D4520544F205155414452414E542025642C25B4
S12342AD642E27200A0D00346032E8EE33E4AF46BE7024AF48BE7026AF4A8E0000AF4E8EA6
S12342CD0000AF4C160100EC4858495849584910AE4A30ABC620E7897036F6700B4FC30042
S12342ED085849108E6C9C30ABAE84EC48308BAF48F6700B4F5849108E6C9C30ABAE84EC6B
S123430D4A308BAF4AAE488C0000102D00C2AE488C0007102E00B9AE4A8C0000102D00B01C
S123432D10AE4A108C0007102E00A5EC4858495849584910AE4A30ABE6897036C1201027B7
S123434D0068F6700B4FC300085849108E6C9C30ABAE84EC483410A3E1ED48F6700B4F58BC
S123436D49108E6C9C30ABAE84EC4A3410A3E1ED4AAE48BF7024AE4ABF7026AE4A3410AE7B
S123438D4834108E41543410BD68D632668E0001AF4EEC4858495849584910AE4A30ABC63A
S12343AD45E7897036BD267E2026EC4858495849584910AE4A30ABC645E7897036BD267E6E
S12343CDEC4CC30001ED4CAE4C8C0007102FFEF7AE4E8C000010260150F6700B4FC300083C
S12343ED5849108E6C9C30AB10AE84AE46341030A4BD69EA32623184BE70201E02308B1E9C
S123440D02BF7020F6700B4F5849108E6C9C30AB10AE84AE46341030A4BD69EA32623184B1
S123442DBE70221E02308B1E02BF7022AE46AF42EC425849584958495849ED42EC4258493A
S123444D584910AE4230AB1E01405082001E0110BE70141E02308B1E02BF7014BE70208C15
S123446D00002D1ABE70208C00072E12BE70228C00002D0ABE70228C0007102F00888E4137
S123448D933410BD68D632628E41C73410BD68D632628E42013410BD68D632628E42333461
S12344AD10BD68D63262BE70208C00002C068E0000BF7020BE70228C00002C068E0000BF08
S12344CD7022BE70208C00062F068E0007BF7020BE70228C00062F068E0007BF7022FC70D7
S12344ED22EDC410BE7020FC7026BE7024AF44AEC434103420340610AE4434208E426B349A
S123450D10BD68D6326ABD350CBE702210BE7020341034208E42943410BD68D63266BD5A4D
S123452D49FC700EE346FD700E32E81235E04C4F4E472052414E47452053454E534F5253B8
S123454D2041524520494E4F50455241424C450A0D004C4F4E472052414E47452053434186
S123456D4E20464F52205155414452414E540025303364002A2A2A00346032E8D433E48EC4
S123458D0000AFC8288E0000AFC82ABE71AE8C00002C0D8E453B3410BD68D632621602ADF4
S12345ADC60FBD60D48E455F34108E000034108E000634108E00D23410C6078E0023BD5DC8
S12345CDF43268BE7020301FAFC8241601FDAEC82AAF4EEC4E5849584958495849ED4EEC6E
S12345ED4E3410A3E1ED42EC42C300E9EDC810AEC82AAF4CEC4C5849584958495849ED4C36
S123460DEC4C3410A3E18E00E9318BECC81034068E00AA341034208E0041BD5F703266BED7
S123462D7022301FAFC82616017DAEC8248C0000102D0106AEC8248C0007102E00FCAEC810
S123464D268C0000102D00F210AEC826108C0007102E00E6ECC824AEC8265849584958499E
S123466D3410E3E15849108E709830ABAE8434108E457C341030C81A3410BD68F23266EC05
S123468DC82810830001260DAEC82A8C00012605C60BBD60D4AEC82AAF4AEC4A5849584927
S12346AD58495849ED4AEC4A3410A3E1ED42EC42C300EBEDC812AEC828AF48EC48584958DE
S12346CD495849ED48EC485849584910AE4830AB31884630C81A34108E000034108E000698
S12346ED3410ECC8123406C60730A4BD5DF43268C60FBD60D4AEC824AFC81410AEC8261075
S123470DAFC816ECC824AEC8265849584958493410E3E15849108E709830AB10AE84ECC884
S123472D14584958495849E3C81658498E712A308BAFC4AEC410AF84205BAEC82AAF46EC07
S123474D465849584958495849ED46EC463410A3E1ED42EC42C300EBEDC818AEC828AF44E8
S123476DEC44584958495849ED44EC445849584910AE4430AB3188468E458134108E000070
S123478D34108E00063410ECC8183406C60730A4BD5DF43268ECC828C30001EDC828ECC86C
S12347AD26C30001EDC826BE70223001ACC826102CFE77ECC82AC30001EDC82A8E0000AF99
S12347CDC828ECC824C30001EDC824BE70203001ACC824102CFDF78E011634108E00413430
S12347ED108E00E934108E0041BD5F7032668E011634108E006434108E00E934108E00641E
S123480DBD5F7032668E011634108E008734108E00E934108E0087BD5F7032668E01163454
S123482D108E00AA34108E00E934108E00AABD5F7032668E011634108E00AA34108E0116BA
S123484D34108E0041BD5F703266BD5CAA32E82C35E05048415345525320494E4F504552EF
S123486D41544956450A0D00534349454E4345204F4646494345522053504F434B20524528
S123488D504F52545320202753454E534F52532053484F57204E4F20454E454D5920534864
S12348AD4950530A0D002020202020202020202020202020202020202020202020202020A4
S12348CD202020202020494E2054484953205155414452414E54270A0D00434F4D50555482
S12348ED4552204641494C5552452048414D504552532041434355524143590A0D0050489E
S123490D4153455253204C4F434B4544204F4E205441524745543B2020454E45524759202D
S123492D415641494C41424C45203D20256420554E4954530A0D004E554D424552204F4697
S123494D20554E49545320544F20464952453F2000494E53554646494349454E5420454EF1
S123496D455247590A0D00256420554E495420484954204F4E204B4C494E474F4E20415446
S123498D20534543544F522025642C25640A0D002A2A2A204B4C494E474F4E2044455354A1
S12349AD524F594544202A2A2A0A0D002020202853454E534F52532053484F5720256420CF
S12349CD554E4954532052454D41494E494E47290A0D0053454E534F52532053484F57208B
S12349ED4E4F2044414D41474520544F20454E454D592041542025642C25640A0D0034602B
S1234A0D32E8C833E4BE71B08C00002C0D8E485F3410BD68D63262160489BE70288C00005B
S1234A2D2E178E48753410BD68D632628E48B33410BD68D6326216046ABE71B88C00002C83
S1234A4D0A8E48E73410BD68D63262BE701434108E490B3410BD68D632648E49443410BD52
S1234A6D68D632628E0064AFC830AEC8308C0000102F042FFC7014A3C830108300002C0D2F
S1234A8D8E495E3410BD68D63262160416FC7014A3C830FD7014BE71B68C00002C258E00E1
S1234AAD64BD214F3184AEC830341030A4BD69EA326231848E0064341030A4BD6A093262BA
S1234ACDAFC830BE702810AEC830341030A4BD6A093262AFC8328E0000AFC8341603B7AED6
S1234AEDC834AFC822ECC8225849EDC822ECC822308BAFC822ECC8225849EDC82210AEC8C4
S1234B0D2230A9711CAE848C0000102F037FAEC834AFC820ECC8205849EDC820ECC82030EE
S1234B2D8BAFC820ECC820C300015849108E711830ABAE84AFC824AEC834AFC81EECC81E29
S1234B4D5849EDC81EECC81E308BAFC81EECC81E5849EDC81E10AEC81E30A97118AE84AF81
S1234B6DC410BE7026FC7024AEC8243410AEC4341034201F01BD59E23266300110AEC832EB
S1234B8D341030A4BD6A09326231848E0003BD214F3002341030A4BD69EA3262AFC836AE6C
S1234BADC834AFC81CECC81C5849EDC81CECC81C308BAFC81CECC81C5849EDC81C10AEC82D
S1234BCD1C30A9711CAE84AFC81AECC81A5849584958495849EDC81AECC81A3410A3E18E3A
S1234BED006434101F01BD6A093262ACC836102C024410AEC834AEC834AFC818ECC81858D5
S1234C0D49EDC818ECC818308BAFC818ECC8185849EDC818AEC8183089711CAFC4AEC4AEB6
S1234C2D84AF42EC42A3C836EDC82610AFC816ECC8165849EDC816ECC81631AB10AFC8162E
S1234C4DECC8165849EDC81610AEC81630A9711CECC826ED84AEC834AFC814ECC814584922
S1234C6DEDC814ECC814308BAFC814ECC814C300015849108E711830AB10AE84AEC834AF82
S1234C8DC812ECC8125849EDC812ECC812308BAFC812ECC8125849EDC812AEC81230897111
S1234CAD18AFC4AEC4AE84AFC4342010AEC43420AEC83634108E49743410BD68D63268AE55
S1234CCDC834AFC810ECC8105849EDC810ECC810308BAFC810ECC8105849EDC81010AEC860
S1234CED1030A9711CAE848C0000102E01198E499D3410BD68D63262BE7028301FBF7028D4
S1234D0DBE701C301FBF701CAEC834AF4EEC4E5849ED4EEC4E308BAF4EEC4EC30001584950
S1234D2D108E711830AB10AE84AEC834AF4CEC4C5849ED4CEC4C308BAF4CEC4C5849ED4C67
S1234D4DAE4C30897118AFC4AEC4EC8458495849584930ABC620E7897036AEC834AF4AEC68
S1234D6D4A5849ED4AEC4A308BAF4AEC4A5849ED4AAE4A3189711C8E0000AFA410BE70208A
S1234D8D10AFC828FC7022EDC82AFC7020BE70225849584958493410E3E15849108E7098D8
S1234DAD30ABAE8431889CECC828584958495849E3C82A58498E7098308BAFC4AEC410AF56
S1234DCD8410BE702010AFC82CFC7022EDC82EFC7020BE70225849584958493410E3E1589D
S1234DED49108E709830AB10AE84ECC82C584958495849E3C82E58498E712A308BAFC4AE54
S1234E0DC410AF84160086AEC834AF48EC485849ED48EC48308BAF48EC485849ED4810AE85
S1234E2D4830A9711CAE8434108E49B93410BD68D63264160057AEC834AF46EC465849ED0C
S1234E4D46EC46308BAF46EC46C300015849108E711830AB10AE84AEC834AF44EC445849D0
S1234E6DED44EC44308BAF44EC445849ED44AE4430897118AFC4AEC4AE84AFC4342010AE40
S1234E8DC434208E49E03410BD68D63266ECC834C30001EDC834BE7028ACC834102EFC3F4F
S1234EADBD571632E83835E0414C4C2050484F544F4E20544F525045444F4553204558509D
S1234ECD454E4445440A0D0050484F544F4E20545542455320415245204E4F54204F5045C2
S1234EED524154494F4E414C0A0D00544F525045444F20545241434B3A0A0D00544F5250E8
S1234F0D45444F204D49535345440A0D0020202020202020202020202020202025642C25F2
S1234F2D640A0D00535441522041542025642C2564204142534F5242454420544F5250458C
S1234F4D444F20454E455247592E0A0D002A2A2A2053544152424153452044455354524F9A
S1234F6D594544202A2A2A0A0D005448415420444F45532049542C204341505441494E21E3
S1234F8D2120594F5520415245204845524542592052454C4945564544204F4620434F4DC7
S1234FAD4D414E440A0D00414E442053454E54454E43454420544F2039392053544152442A
S1234FCD415445532041542048415244204C41424F52204F4E204359474E555320313221B5
S1234FED210A0D0053544152464C45455420434F4D4D414E4420524556494557494E4720AF
S123500D594F5552205245434F524420544F20434F4E534944455220434F555254204D41BC
S123502D525449414C210A0D00346032E8D933E4BE70168C00002E0D8E4EB53410BD68D632
S123504D326216035BBE71B28C00002C0D8E4ED53410BD68D63262160346F6700B4FC3002B
S123506D085849108E6C9C30ABAE84AFC818F6700B4F5849108E6C9C30ABAE84AFC81ABED1
S123508D7024AFC81CBE7026AFC81EBE7014301EBF7014BE7016301FBF70168E4EF834102C
S12350ADBD68D63262ECC81CE3C818EDC81CECC81EE3C81AEDC81EAEC81CAFC820AEC81EC5
S12350CDAFC822AEC8208C00002D1AAEC8208C00072E12AEC8228C00002D0A10AEC8221041
S12350ED8C00072F0D8E4F093410BD68D632621602ABAEC8223410AEC82034108E4F1A3473
S123510D10BD68D63266ECC82058495849584910AEC82230ABE6897036C1201027FF86EC03
S123512DC82058495849584910AEC82230ABE6897036E7C826E6C826C14B1026013C8E49FC
S123514D9D3410BD68D63262BE7028301FBF7028BE701C301FBF701C8E0000AFC8241600AF
S123516D77AEC824AF46EC465849ED46EC46308BAF46EC465849ED4610AE4630A97118AE16
S123518D84ACC8202649AEC824AF44EC445849ED44EC44308BAF44EC44C300015849108ED7
S12351AD711830ABAE84ACC8222624AEC824AF42EC425849ED42EC42308BAF42EC42584936
S12351CDED42AE423189711C8E0000AFA42013ECC824C30001EDC824AEC8248C0002102F68
S12351EDFF7FECC82058495849584910AEC82230ABC620E7897036BE7020AF4810BE702245
S123520D10AF4AFC7020BE70225849584958493410E3E15849108E709830ABAE8431889C04
S123522DEC48584958495849E34A58498E7098308BAFC4AEC410AF8410BE702010AF4CFC9A
S123524D7022ED4EFC7020BE70225849584958493410E3E15849108E709830AB10AE84EC59
S123526D4C584958495849E34E58498E712A308BAFC4AEC410AF84160123E6C826C12A26F1
S123528D17AEC8223410AEC82034108E4F313410BD68D63266160105E6C826C1581026FE0E
S12352AD048E4F5A3410BD68D63262BE702A301FBF702ABE701A301FBF701AECC82058497A
S12352CD5849584910AEC82230ABC620E7897036BE7020AFC81010BE702210AFC812FC70C2
S12352ED20BE70225849584958493410E3E15849108E709830ABAE843116ECC810584958EA
S123530D495849E3C81258498E7098308BAFC4AEC410AF8410BE702010AFC814FC7022ED47
S123532DC816FC7020BE70225849584958493410E3E15849108E709830AB10AE84ECC8148B
S123534D584958495849E3C81658498E712A308BAFC4AEC410AF84BE701A8C00002E34FCB9
S123536D700EBE70103410A3E1BE70123410A3E1BE701C341010A3E12C198E4F773410BDD4
S123538D68D632628E4FB43410BD68D63262BD5BFE200D8E4FF13410BD68D63262BD5716B8
S12353AD32E82735E025642525003460327233E45FBD60D48E00BE34108E027634108E00AC
S12353CD0A34108E0230BD5FDF3266C606BD60D48E0000AF4C16008DEC4C5849108E71AAA0
S12353ED30ABAE8434108E53B2341030423410BD68F23266EC4C5849108E71AA30ABAE8470
S123540D8C003C2F07C60ABD60D4201DEC4C5849108E71AA30ABAE848C00192F07C60BBD77
S123542D60D42005C609BD60D4AE4CAFC4ECC45849584958495849EDC4ECC43410A3E18EEA
S123544D0019318B304234108E000034108E000634103420C6078E0230BD5DF43268EC4C45
S123546DC30001ED4CAE4C8C0007102FFF6A326E35E0434F4D505554455220444953414242
S123548D4C45440A0D002020202020202020434F4D5055544552205245434F5244204F460C
S12354AD2047414C41585920464F52205155414452414E542025642C25640A0D0020202099
S12354CD20202020312020202020322020202020332020202020342020202020352020205C
S12354ED2020362020202020372020202020380A0D0020202020202D2D2D2D2D202D2D2D37
S123550D2D2D202D2D2D2D2D202D2D2D2D2D202D2D2D2D2D202D2D2D2D2D202D2D2D2D2D1B
S123552D202D2D2D2D2D0A0D002020202A2A2A0020202025303364003460327C33E4BE7190
S123554DB88C00002C0D8E547F3410BD68D632621600BEBE702210BE7020341034208E548D
S123556D933410BD68D632668E54CA3410BD68D632628E54FF3410BD68D632628E0000AF40
S123558DC4160084ECC4C3000134068E26753410BD68D632648E0000AF422054ECC4AE425D
S12355AD5849584958493410E3E15849108E712A30ABAE848C0000260C8E55363410BD68C8
S12355CDD632622024ECC4AE425849584958493410E3E15849108E712A30ABAE8434108EC8
S12355ED553D3410BD68D63264EC42C30001ED42AE428C00072FA58E33933410BD68D632F6
S123560D62ECC4C30001EDC4AEC48C0007102FFF73326435E0535441524241534520534881
S123562D49454C44532050524F544543542054484520454E54455250524953450A0D002549
S123564D6420554E495420484954204F4E20454E54455250524953452046524F4D20534586
S123566D43544F522025642C25640A0D000A0D54484520454E5445525052495345204841AA
S123568D53204245454E2044455354524F5945442E205448452046454445524154494F4E69
S12356AD2057494C4C20424520434F4E5155455245440A0D002020202020203C53484945D8
S12356CD4C445320444F574E20544F20256420554E4954533E0A0D0044414D414745204308
S12356ED4F4E54524F4C205245504F525453202725732044414D4147454420425920544813
S123570D4520484954270A0D00346032E8DA33E4BE70288C0000102F02B6BE70328C00008C
S123572D270D8E56223410BD68D632621602A18E0000AFC82016028EAEC820AFC812ECC8F4
S123574D125849EDC812ECC812308BAFC812ECC8125849EDC81210AEC81230A9711CAE8456
S123576D8C0000102F0256AEC820AFC810ECC8105849EDC810ECC810308BAFC810ECC810E4
S123578D5849EDC81010AEC81030A9711CAE84AFC814AEC820AF4EEC4E5849ED4EEC4E30C6
S12357AD8BAF4EEC4EC300015849108E711830ABAE84AFC816AEC820AF4CEC4C5849ED4C4D
S12357CDEC4C308BAF4CEC4C5849ED4C10AE4C30A97118AE84AFC410BE7026FC7024AEC83D
S12357ED163410AEC4341034201F01BD59E232663410AEC814BD6A09326231848E0003BDEF
S123580D214F3002341030A4BD69EA3262AFC822FC7018A3C822FD701810AEC82010AFC8BD
S123582D18AEC820AF4AEC4A5849ED4AEC4A308BAF4AEC4A5849ED4A10AE4A30A9711C102C
S123584DAE848E0003BD214F3003341030A4BD6A0932623184ECC818ED48EC485849ED4878
S123586DEC48E3C818ED48EC485849ED48AE483089711CAFC4AEC410AF84AEC820AF46EC06
S123588D465849ED46EC46308BAF46EC46C300015849108E711830AB10AE84AEC820AF4497
S12358ADEC445849ED44EC44308BAF44EC445849ED44AE4430897118AFC4AEC4AE84AFC437
S12358CD342010AEC43420AEC82234108E564C3410BD68D63268BE70188C00002E108E56B4
S12358ED7A3410BD68D63262BD5BFE1600E2BE701834108E56C23410BD68D63264ECC82261
S123590D10830013102F00B58E000ABD214F8C00062E36AEC822AF42EC4258495849ED42F9
S123592DEC4258495849AE42308BAF42EC4258495849AE42318BBE7018341030A4BD6A09A0
S123594D32628C0002102F00748E0008BD214FAFC82410AEC82410AFC81AECC8245849102F
S123596D8E71AA30ABAE84AFC81CBE701810AEC822341030A4BD6A093262ECC81C3410A34C
S123598DE1EDC81E8E0005BD214FECC81E3410A3E11F02ECC81A58498E71AA308BAFC4AED3
S12359ADC410AF84ECC8245849108E6C8C30ABAE8434108E56E53410BD68D63264ECC820FD
S12359CDC30001EDC820BE7028ACC820102EFD6832E82635E03460327A33E4AFC4EC4EA394
S12359EDC4ED42ECC810A34CED44AE423410AE42BD69EA32623184AE443410AE44BD69EA0A
S1235A0D32621E02308B1E02326635E044414D41474520434F4E54524F4C205245504F52B1
S1235A2D543A20200025732052455041495220434F4D504C455445442E0A0D0034603278CC
S1235A4D33E48E0000AF468E0000AF441600ADEC445849108E71AA30ABAE848C0000102CF8
S1235A6D0093EC44ED42EC445849108E71AA30ABAE843101EC4258498E71AA308BAFC4AE06
S1235A8DC410AF84EC445849108E71AA30ABAE848C00002D21EC445849108E71AA30ABAE6A
S1235AAD848C00002C10EC4458498E71AA318B8EFFFFAFA4203FEC445849108E71AA30ABB0
S1235ACDAE848C00002D2EAE468C0000260F8E0001AF468E5A193410BD68D63262EC445807
S1235AED49108E6C8C30ABAE8434108E5A323410BD68D63264EC44C30001ED44AE448C00D3
S1235B0D07102FFF4A326835E054484552452057455245202564204B4C494E474F4E20422E
S1235B2D4154544C45204352554953455253204C4546542041540A0D0054484520454E445B
S1235B4D204F4620594F5552204D495353494F4E2E0A0D0A0D0054484520464544455241CA
S1235B6D54494F4E20495320494E204E454544204F462041204E45572053544152534849CD
S1235B8D5020434F4D4D414E4445520A0D00464F5220412053494D494C4152204D49535302
S1235BAD494F4E202D2D204946205448455245204953204120564F4C554E544545522C0AF6
S1235BCD0D004C45542048494D205354455020464F525741524420414E4420454E544552A2
S1235BED2027415945273A2000415945000A0D0D003460327633E4BE701C34108E5B1634D6
S1235C0D10BD68D632648E5B463410BD68D63262BE701A8C00002F478E5B633410BD68D6FB
S1235C2D32628E5B9B3410BD68D632628E5BCF3410BD68D6326231C48E000A341030A4BD7B
S1235C4D2350326231C48E5BF6341030A4BD22A332628C000026088E0001BF700C200D8EEB
S1235C6D5BFA3410BD68D63262BD200E326A35E03440327E33E4BD23A3BD2430BD2E68BD70
S1205C8D267EBD3396BD350CBD3AF9BE700C8C000026E3BD200EBD2000326235C0BE
S1235CAA3440327F33E4C620E7C43F22A7C4E6C4326135C03440327F33E4C620E7C43F23DC
S1235CCAA7C4E6C4326135C03440327E33E4E7C4E6C4E741E641C140230CE641C15A2206A0
S1235CEAE641C820E741E641326235C03440327E33E4E7C4E6C4E741E641C160230CE64159
S1235D0AC17A2206E641C820E741E641326235C03440327D33E4E742E642C160230DE64227
S1235D2AC17A22078E0001AFC42005CC0000EDC4E641326335C03440327D33E4E742E64211
S1235D4AC140230DE642C15A22078E0001AFC42005CC0000EDC4E641326335C03440327D20
S1235D6A33E4E742E642C12F230DE642C13922078E0001AFC42005CC0000EDC4E6413263E2
S1235D8A35C03440327B33E4E743E643E744E644BD5D665D2706C601E7C42022E644CA204E
S1235DAAE744E644C160230DE644C16622078E0001AF412005CC0000ED41EC41E7C4E6C495
S1235DCA326535C03440327D33E4E742E642C11F230DE642C17E22078E0001AFC42005CC0B
S10D5DEA0000EDC4E641326335C049
S1096FFF11001101110252
S1235DF43440327C33E4AF41E7C4E6D80EE743EC4EC30001ED4E6D43271FE6C4E7E2AE4829
S1235E143410E643AE41BD5EE93263EC41E34AED41EC48E34CED4820D1326435C034403233
S1235E347F33E4E7C4C605BD6224E6C4BD6224326135C03440327F33E4E7C4C60FBD622487
S1235E54E6C4BD6224326135C03440327F33E4E7C4C610BD6224E6C4BD6224326135C0340C
S1235E744033E4C611BD622435C03440327E33E4AFC4C612BD6224AEC4BD6392AE46BD63A3
S1235E9492AE48BD6392AE4ABD6392AE4CBD6392AE4EBD6392326235C03440327D33E4AF3A
S1235EB441E7C4C613BD6224AE41BD6392AE47BD6392AE49BD6392AE4BBD6392E6C4BD625D
S1235ED424AE4DBD6392AE4D3410AE4FBD632C3262326335C03440327D33E4AF41E7C4C698
S1235EF414BD6224AE41BD6392AE47BD6392E6C4BD6224E649BD6224326335C03440327EDE
S1235F1433E4AFC4C615BD6224AEC4BD6392AE46BD6392AE48BD6392AE4ABD6392326235DC
S1235F34C03440327E33E4AFC4C616BD6224AEC4BD6392AE46BD6392AE48BD6392AE4ABD95
S1235F546392AE4CBD6392AE4EBD6392AE4E3410AEC810BD632C3262326235C03440327E87
S1235F7433E4AFC4C617BD6224AEC4BD6392AE46BD6392AE48BD6392AE4ABD63923262357A
S1235F94C03440327E33E4AFC4C618BD6224AEC4BD6392AE46BD6392AE48BD6392AE4ABD33
S1235FB46392326235C03440327E33E4AFC4C619BD6224AEC4BD6392AE46BD6392AE48BDFE
S1235FD46392AE4ABD6392326235C03440327E33E4AFC4C61ABD6224AEC4BD6392AE46BDDB
S1235FF46392AE48BD6392AE4ABD6392326235C03440327D33E4C61BBD6224AE47BD6392B4
S1236014AE49BD6392BD62AE1F10E7C4BD62AE1F10E741BD62AE1F10E742326335C03440D1
S1236034327E33E4AFC4C61CBD6224AEC4BD6392AE46BD6392AE48BD6392AE4ABD6392329B
S12360546235C03440327E33E4AFC4C61DBD6224AEC4BD6392AE46BD6392326235C0344036
S1236074327E33E4AFC4C61EBD6224AEC4BD6392AE46BD6392326235C03440327E33E4AF6A
S1236094C4C61FBD6224AEC4BD6392AE46BD6392326235C03440327F33E4E7C4C620BD62BD
S12360B424E6C4BD6224326135C03440327F33E4E7C4C621BD6224E6C4BD6224326135C0A9
S12360D43440327F33E4E7C4C622BD6224E6C4BD6224326135C03440327F33E4E7C4C62351
S12360F4BD6224E6C4BD6224326135C03440327E33E4AFC4C624BD6224AEC4BD6392AE46DD
S1236114BD6392326235C03440327F33E4E7C4C625BD6224E6C4BD6224E645BD6224E64690
S1236134BD6224E647BD6224E648BD6224E649BD6224E64ABD6224326135C03440327F335E
S1236154E4E7C4C626BD6224E6C4BD6224E645BD6224E646BD6224E647BD6224326135C0A7
S12361743440327F33E4E7C4C627BD6224E6C4BD6224326135C03440327E33E4AFC4C628DF
S1236194BD6224AEC4BD6392AE46BD6392326235C0344033E4C629BD622435C03440327D7C
S12361B433E4E742AFC4C62ABD6224E642BD6224AEC4BD6392AE47BD6392E649BD6224AE8B
S12361D44ABD6392AE4A3410AE4CBD632C3262326335C03440327D33E4AF41E7C4C62BBD88
S12361F46224AE41BD6392AE47BD6392E6C4BD6224326335C03440327F33E4E7C4C62CBDAC
S11362146224E6C4BD6224E645BD6224326135C00D
S10970051100110111024B
S12362243440327B33E4E7428E2500AF432015EC43C3FFFFED43AE438C000026078EFFFFC5
S1236244AFC4201BBE7009E6844F4FC4021083000026DCBE7005E642E7848E0000AFC4AE79
S1236264C4326535C03440327B33E4E7428E2500AF432015EC43C3FFFFED43AE438C0000EE
S123628426078EFFFFAFC4201BBE7009E6844F4FC4101083000026DCBE7007E642E7848E91
S12362A40000AFC4AEC4326535C03440327C33E48EFF00AF422015EC42C3FFFFED42AE426B
S12362C48C000026078EFFFFAFC42017BE7009E6844F4FC4011083000027DCBE7005E68490
S12362E44FEDC4AEC4326435C03440327C33E48EFF00AF422015EC42C3FFFFED42AE428C13
S1236304000026078EFFFFAFC42017BE7009E6844F4FC4081083000027DCBE7007E6844F83
S1236324EDC4AEC4326435C03440327B33E4AF418E0000AF438E0000AF432018E6D801E7A1
S1236344C4EC41C30001ED41E6C4BD6224EC43C30001ED43AE43AC492DE2326535C034404D
S123636433E4304230023003E684BD6224304230023002E684BD6224304230023001E684B8
S1236384BD622430423002E684BD622435C03440327E33E4AFC430C43001E684BD622430BC
S12363A4C4E684BD6224326235C03440327B33E4AF418E0000AF438E0000AF432018E6D8BD
S12363C401E7C4EC41C30001ED41E6C4BD6269EC43C30001ED43AE43AC492DE2326535C014
S12363E4344033E4304230023003E684BD6269304230023002E684BD6269304230023001A4
S1236404E684BD626930423002E684BD626935C03440327E33E4AFC430C43001E684BD629B
S12364246930C4E684BD6269326235C03460327E33E4AFC4AEC48C0000271110AED4AE48F0
S12364441F10E7A4AED43001AFD42005AE48BD6AA8326235E03440327633E4AFC48E00007D
S1236464AF428E0020AF44AEC8108C00002F478E0000AF46AE4EAF48200EEC46C30001ED73
S123648446EC48C30001ED48E6D8085D26ECAE46ACC8102D088E0000AFC8102008ECC8109E
S12364A4A346EDC810ECC8124FC4021083000027058E0030AF44ECC8124FC401108300006E
S12364C42642201BAE443410AEC4BD64303262EC42C30001ED42ECC810C3FFFFEDC810AE6B
S12364E4C8108C00002EDD201BE6D80E4F3406AEC4BD64303262EC42C30001ED42EC4EC320
S12365040001ED4EE6D80E5D26DF201BAE443410AEC4BD64303262EC42C30001ED42ECC86C
S123652410C3FFFFEDC810AEC8108C00002EDDAE42326A35C0346032E8E433E4AF448E00F5
S123654400AFC8168E0000AFC818AEC822AFC81AAEC8228C00002620C630E7466F47AEC8A7
S12365642A3410AEC828341030463410AE44BD64593266AF421600F6AEC8268C0000272297
S1236584AEC8248C000A261AAEC8228C00002C128E0001AFC816ECC822405082001F01AF4E
S12365A4C81A3046300BAFC8126FD812204FAEC82410AEC81A341030A4BD6A2D3262AFC83E
S12365C414AEC8148C00092F0EECC82CC3FFC6AEC814308BAFC814ECC812C3FFFFEDC812BD
S12365E4AEC8141F10CB30E7D812AEC82410AEC81A341030A4BD6A223262AFC81AAEC81ABE
S12366048C000026A9AEC8168C00002742AEC8288C0000272CECC82A4FC40210830000276C
S1236624208E002D3410AE44BD64303262ECC818C30001EDC818ECC828C3FFFFEDC8282065
S12366440EECC812C3FFFFEDC812C62DE7D812AEC82A3410AEC8283410AEC8123410AE448E
S1236664BD64593266AFC4ECC4E3C818ED42AE4232E81C35E0286E756C6C2900346032E8F6
S1236684EE33E4AF448E0000AF4CAED818AF4EECC818C30002EDC81816021CE6D80EC12592
S12366A4102601F8EC4EC30001ED4E8E0000AF4AAE4AAF48E6D80E5D10270203E6D80EC102
S12366C425102701D7E6D80EC12D261BEC4EC30001ED4E8E0001AF4A200DEC4EC30001EDAA
S12366E44EEC4ACA02ED4AE6D80EC13027EC202DAE48AFC4ECC45849EDC4ECC45849584991
S1236704AEC4308BAF48E6D80E4F108EFFD030ABEC48308BAF48EC4EC30001ED4EE6D80EFF
S1236724C12F2307E6D80EC13923C5E6D80EC1732643AEC818AE84AFC810ECC818C3000248
S1236744EDC818AEC8108C00002707AEC810AF422007108E667910AF42AE4A3410AE4834A2
S123676410EC423406AE44BD64593266EC4C308BAF4C16013BE6D80EC164263610AED8185A
S1236784ECC818C30002EDC8188E00613410AE4A3410AE4834108E000134108E000A34103B
S12367A43420AE44BD6539326CEC4C308BAF4C1600FEE6D80EC178263610AED818ECC818B5
S12367C4C30002EDC8188E00613410AE4A3410AE4834108E000034108E001034103420AEC0
S12367E444BD6539326CEC4C308BAF4C1600C1E6D80EC158263610AED818ECC818C300020F
S1236804EDC8188E00413410AE4A3410AE4834108E000034108E001034103420AE44BD65FE
S123682439326CEC4C308BAF4C160084E6D80EC175263510AED818ECC818C30002EDC81888
S12368448E00613410AE4A3410AE4834108E000034108E000A34103420AE44BD6539326C9A
S1236864EC4C308BAF4C2048E6D80EC1632641AED8181F10E746ECC818C30002EDC8186F9C
S123688447AE4A3410AE48341030463410AE44BD64593266EC4C308BAF4C2014E6D80E4F38
S12368A43406AE44BD64303262EC4CC30001ED4CEC4EC30001ED4EE6D80E5D1026FDDCAE6B
S12368C4448C00002705AED8046F84AE4C32E81235E03440327E33E430443002AFC4AEC436
S12368E434108E0000BD66803262326235C03440327E33E4304430023002AFC4AEC43410C2
S123690430443002BD66803262326235C03440327C33E4AF421F103F1B326435C034103057
S12369241F8CFFFF2704584920F535903410301F8CFFFF2704475620F535903410301F8C22
S1236944FFFF2704445620F535906803690269016984393440C1102D06C010EE02EF84C1C0
S1236964082D02C0085D270B68036902690169845A26F535C06784660166026603396484A6
S12369846601660266033934101F108E14001F894FE68B260A35064FE68B50CB1020055036
S12369A4CB0835101F013580AE621026FFD9AE64BD698B308810391F104353C30001340241
S12369C434041F10E4E0A4E01F01BD698B1F1083001043531F0139AE641026FFDAAE62BD90
S12369E469BB308810393410A665E6E43D1F985F1F01E661A6643D1F985F308BE661A6652D
S1236A043D308B3586EC6226003410BD6A6D3590EC6226003410BD6A6D32621F0139EC6223
S1236A2426003410BD6A3B3590EC6226003410BD6A3B32621F0139327D6F606C604D2B06EE
S1236A446C60584920F8ED61EC656F656F66A3612406E3611CFE20021A0169666965646136
S1236A6466626A6026E8326339327CED626F606F61EC662C066C606C618D243406EC642C80
S1236A84046A638D1ABD6A3BED6435066D6127028D0DED66EC626D6027028D0332643940C1
S1076AA450820039DF
S113200010CEDFFF1F213410BD5C7D7E200E3F000B
S1236AA83440327F33E4E7C41F983F21326135C03440327E33E48E1F90AFC4E6D4326235D6
S1236AC8C0346032E8E133E431848E1F90AFC8118E1F91AFC8138E1F92AFC8158E1F93AF48
S1236AE8C8178E1F94AFC8198E1F95AFC81B8E1F9FAFC81DC604E7D81DE6D811E742C60FB3
S1236B08E442E74BE6D8134F4FC40FED49EC495849ED49EC4958495849EDC4ECC4E349ED9C
S1236B2843E644EB4BE7C810E6D815E742C60FE442E74CE6D8174F4FC40FED47EC4758496F
S1236B48ED47EC4758495849EDC4ECC4E347ED43E644EB4CE74FE6D819E742C60FE442E74C
S1236B684DE6D81B4F4FC40FED45EC455849ED45EC4558495849EDC4ECC4E345ED43E644E6
S1236B88EB4DE74EAE4EAFA4E6C810E72230A432E81F35E0346032E8E333E431848E1F96A4
S1236BA8AFC8118E1F97AFC8138E1F98AFC8158E1F99AFC8178E1F9AAFC8198E1F9BAFC838
S1236BC81BE6D811E742C60FE442E74BE6D8174F4FC40FED49EC495849ED49EC49584958B3
S1236BE849EDC4ECC4E349ED43E644EB4BE74FE6D815E742C60FE442E74CE6D8174F4FC48C
S1236C080FED47EC475849ED47EC4758495849EDC4ECC4E347ED43E644EB4CE74EE6D81980
S1236C28E742C60FE442E74DE6D81B4F4FC40FED45EC455849ED45EC4558495849EDC4EC60
S11F6C48C4E345ED43E644EB4DE7C810AE4EAFA4E6C810E72230A432E81D35E0B9
S9032000DC
