:20600000FFFF2000108EDC507EF90FF7DCD5BFDCD610BFDCD8F6DCEBF7DCDA316AAEA4E639
:2060200080AFA4C16F2435588EF8313AEC84FDDCCB10BFDCDBB6DCA32606357F6E9FDCCB58
:20604000BDE53553535220AEA4E61FBDE464BDE535202D20357F8D316E9FDCCB1F24BDE5A6
:2060600035496E76616C69642053535220BDE464BDE5352061742024ECE1830002BDE52CB7
:20608000BDE56F7EE1AD8D01393407BDE53550433DEC65830002BDE52CBDE5352043433DDC
:2060A000A6E4BDE541BDE5352044503D1FB8BDE541BDE53520413DA661BDE541BDE535209B
:2060C000423DA662BDE541BDE53520583D1F10BDE52CBDE53520593D1F20BDE52CBDE5355C
:2060E00020553D1F30BDE52CBDE53520533D1F40C30007BDE52CBDE56F358710CEDE00BD0D
:20610000E004BDE60CBDE5650A43554249582076657273696F6E206F737665720A0D0A4387
:206120006F7079726967687420313938332D3230303520446176652044756E6669656C6415
:206140000A0D416C6C207269676874732072657365727665640A0D00B6DCEC2618108EF677
:20616000E8BDE35ECEE175344010FFDCDBBDE67826037EE24210CEDE00BDE61ABDE48C8DC2
:206180003327F21F89BDE53552633DBDE464BDE56F20E234018E0000BFDCE9BEDCE6260439
:2061A000350120DD35017EF55F10FFDCE94F5FFDDCE620C110FFDCDBB6DCEBB7DCDABDE431
:2061C000C3271A10BFDCCF81401027127F8EF7BFBDE4ECC10E2434588EF8156E9539BDE2F2
:2061E0007D8645C658ED81A784BDE640A6881785201027069EEC8813AE8815BFDCCDBDEE13
:2062000048F6DCEBBDE4C36E9FDCCD7FDCCD8EDCAEBDE39A8D6F862AA784B6DCB7B7DCEB47
:20622000CC0000BDE5E3BDE30A27173088208CE00025F3FCDCDFBDE5C626E88EF6F186FFA2
:206240002062A68812B7DCCAEC8810FDDCC8108340001027120B81452609C1582605A18871
:206260001227891F128EDCC0ED81A6A812A7806F808CDCC825F910BEDCCF7EE1E1BDE397DF
:2062800086FFB7DCCDC608BDE4D02706812F2605313F7EE390A7805A2AED7DDCCD279C8E62
:2062A000F70586013401F6DC6DC108240A108EDC7E5810AEA52605C601F7DC6DF6DC6CC10C
:2062C00008240A108EDC6E5810AEA52605C601F7DC6C7DDCA22706BDE55BBDE56F35013414
:2062E00001F6DCDAF7DCEBBEDCD610BEDCD8F6DCD53501270510FEDCDB3910FEDCDB1A0457
:20630000398EDCAEBDE39A7EE2803436108EDCB8A68426034A2010C6088D0E260AC6088DB5
:20632000082604C6038D0235B6A6A0812A2708A18026065A26F33930015A2704312120F7B0
:20634000812A393416C6138EDCB8A680812A27045A26F74F4D35968D058DE82620398D37F0
:20636000C6088D26812E2707A7805A2AF5200E8D1FC603BDE4D02708A7805A2AF67EE29F3C
:206380008D0EBDE4C38EDCB84F39BDE4D027EE395A2B516F8020F98EDCA5A680B7DCB7BD7B
:2063A000E4C3270BE621C13A26058D3DB7DCB734201F128EDCB8C608A6A0A7805A26F93533
:2063C00020A6A4815B261D8EDCB83121C608BDE38A815D2708A7805A2AF47EE29F8DB17D62
:2063E000DCB827F64F39BDE4C3ECA1C13A26EB8041810424E51A0439BDE4C327DD8124268E
:20640000433121BDE4C327D28E0000BDE4D027288030810A250A81112DC08007811024BA5D
:20642000B7DCCC8605B7DCCB1F10308B7ADCCB26F7FADCCC1F0120D3BDE4C34F39BDE4C3E7
:206440001027FE5B8E0000BDE4D027EC803081091022FE4B3402CC000ABDF677EBE089005B
:206460001F0120E34F3436108E00001F01CC000ABDF697340431218C000026F135028B3043
:20648000BDE581313F26F535B6BDE56F862ABDE581108EDC001F20C15022EEBDE5C1817F42
:2064A00027048108260B313FBDE5350820080020E4BDE5818D2BA7A0810D26D9108EDC0053
:2064C0007EE56FA6A0812027FA6DA22702810D39A6A0270881202708810D2604313F1A0458
:2064E00039816125FB817A22F7845F395F8DD4A6802AFC301F3420847F272CB7DCCB30019D
:206500007ADCCBA6848DDAB7DCCC8DC42714B1DCCC27EB812F2709813D270535205C20CF09
:20652000313FBADCCB2AF48D9A5D35908D131E898D0F1E89393410AE628D20AF621A0435FB
:20654000903402444444448D06A6E48D023582840F8B308139232A8B0720263402A6802752
:206560001E8D1E20F83410AE628DF0AF6235103402860A8D0C860D2004340286208D02355D
:20658000823416F6DC6D20023416C108240D8EDC7E58AE852705AD844F35968EF79C860AEF
:2065A0007EE2A48D0326FC393414C10824ED8EDC6E58AE8527E5AD8435943414F6DC6C20BB
:2065C000E98DF726FC39340258498401C3DE001F013504CB014F34108D093510EC84108360
:2065E000FFFF3934028EDE00B6DCEBB1DCDE2608A6E410B3DCDF27108D20B6DCEBB7DCDED2
:20660000A6E4FDDCDFBDEAC535828D0E3406CCFFFFFDDCDFB7DCDE4F35867DDCDD27C334EF
:2066200016B6DCEB3402B6DCDEB7DCEBFCDCDF8EDE00BDEAF87FDCDD3502B7DCEB4F3596DA
:206640008D362757108EF71F860234037DDCA22720BDE5354572726F722070726F636573B7
:2066600073696E672066696C653A20BDE6BDBDE56F1F2135037EE2A4B6DCB7B7DCEBCC00CF
:2066800000BDE5E3BDE30A27123088208CE00025F3FCDCDFBDE5C626E88602398DA28D305C
:2066A000BDE56F3088208CE000250BFCDCDFBDE5C627E8BDE5E3BDE30A26E820E134168E11
:2066C000DCB7A6808B41BDE581863ABDE58120023416865BBDE5818D12865DBDE5818D0B82
:2066E000862EBDE581C6038D043596C608A6802703BDE5815A26F639B6DCEB3440BDEAEF27
:20670000E643A6423DA6413D35C0BDE3431026FB8EBDE6782609108EF72D86077EE64A8D9C
:206720006FFDDCCDCC0000BDE5E3C6106D8427323088205A26F6FCDCDFBDE5C626E9FCDC7F
:20674000CDED84BDE78734068D46FDDCCDBDE61F3506FDDCDF8EDE006F808CE00025F98EF5
:20676000DE003420108EDCB8C613A6A0A7805A26F935203088EDFCDCD3ED881586F0A78822
:2067800017FCDCCDED88137FDCDD7ADCDD1A0439BDE6F8FDDCCB8300018B0134027DDCDF36
:2067A000260EF6DCE0B1DCE02506C10125028D11C6018D0D5CE1E423F98EF74086087EE283
:2067C000A44F3434BDE5E3EC8127078CE00025F735B41F1083DE024456A6E4800110B3DCF7
:2067E000CB24ED3261108EFFFF10AF1E3530326320953414BDE889EC8813ED42ED444F5FF7
:20680000ED48ED46F6DCB78601EDC4B6DCDAB7DCEB4F35943414304AA641B7DCEBEC4826CC
:2068200012A6C44A2676EC441083FFFF2776BDEAC5EC48308BC3000110830200250F34106C
:20684000EC44ED46BDE5C6ED4435104F5FED48B6DCDAB7DCEBA68081FF27491A04359434F9
:2068600014A6C44A2636A641B7DCEBEC441083FFFF2731ED46BDEAC5BDE5C6ED44B6DCDAD2
:20688000B7DCEB4F5FED483594BDE640A6881785802635108EF78386037EE64A8EF7568696
:2068A000047EE2A486067EE2DF3406EC42ED444F5FED48ED463586BDE6782705BDE70A2086
:2068C00007A68817854027CBFCDCDF1A043934148DE5EC8813ED42ED444F5FED48ED46B63A
:2068E000DCB7A7418602A7C4B6DCDAB7DCEB4F35943416304AEC481083020025048D19ECE0
:2069000048308BC30001ED48A6E4A7841A0435968EF76C86057EE2A43414A6C4810226F012
:20692000A641B7DCEBEC441083FFFF2613BDE7903406EC46BDE5C63506ED84BDE787AE610A
:20694000ED46BDEAF8BDE5C6ED44B6DCDAB7DCEB4F5FED4835943414A6C481022639A641BB
:20696000B7DCEBEC482604AE462617304A308B1083020024096F846380C3000120F1304AEE
:206980008D96EC46BDE5C6CCFFFFED84EC441083FFFF2703BDED9B6FC4B6DCDAB7DCEB4F63
:2069A0003594BDE8A93416E6C45A1026FEEEA641B7DCEBEC48E3E410830200251A3406ECF6
:2069C000441083FFFF1027FEDBED46BDE5C6ED44350683020020E0ED48270FEC441083FF19
:2069E000FF1027FEBF304ABDEAC5B6DCDAB7DCEB4F35963430A641B7DCEB108E0000EC4225
:206A000010A344270931A90200BDE5C626F2EC483420E3E13402B6DCDAB7DCEB4F35B2351C
:206A200006FDDCD3EC46AE4810AE423436ECC434068102262D8C00002728A641B7DCEBEC26
:206A4000441083FFFF2610BDE7903406EC46BDE5C63506ED84ED44304ABDEAF8B6DCDAB70A
:206A6000DCEBBEDCD610BEDCD8F6DCD54F6E9FDCD33506FDDCD33506EDC4F7DCEB3536AF00
:206A80004810AF42ED46260510AF442005BDE5C6ED44EC482707EC44304ABDEAC5B6DCDAAA
:206AA000B7DCEB20B234161F01A643E6423DBDF6976F45E1432506E0436C4520F6E7461F4B
:206AC00010E744359634767FDCEC8D20ECE48DD5AE62BDF6C827137CDCECF6DCECC105272C
:206AE0003CC10326EBBDF6BE20E235F6B6DCEBC6073DC3DC501F033934767FDCEC8DEDECBF
:206B0000E48DA2AE62BDF6CC27E07CDCECF6DCECC1052709C10326EBBDF6BE20E2B7DCCB2E
:206B2000357610B3DCDF26123402B6DCEBB1DCDE35022606BDE60C7FDCDDBDE5354572728C
:206B40006F7220616363657373696E6720626C6F636B20BDE465BDE535206F6E2064726900
:206B600076653A20B6DCEB8B41BDE581BDE56F8EEB8C7ADCCB270AA68026FCA68426F33051
:206B800001BDE55BBDE56F86097EE2DF4469736B20666F726D6174206572726F7242616493
:206BA00020736563746F72536563746F72206E6F7420666F756E644469736B207772697497
:206BC000652070726F746563746564004469736B2073797374656D206572726F72BDE60A1F
:206BE000BDE3E6B7DCEBBDEAECCC0203FDDCD3BDE4C327288EF3E7BDF09D3404BDE3F83517
:206C0000024D2605F7DCD320E64A2605F7DCD420DE4A81031022F687E7C620D3BDE53546FA
:206C20006F726D617474696E6720B6DCEBBDF1E38EF3E74FF6DCD3BDF2328601F6DCD4BD2A
:206C4000F22DBDE5350A0D4F6B3F20BDE5C1BDE58184DF81591026F916BDE56FB6DCD3BDD3
:206C6000F6BAB6DCD4B7DCD38EDE006F808CE00025F98EDE00CC0000BDEAF8BDE6F88300BE
:206C8000011F89FDDCD1CC00027ADCD22B08BDEAF8C3000120F37ADCD32B08BDEAF8C30044
:206CA0000120F3CCFFFFED843002CC00027ADCD12B07ED81C3000120F434067DDCD4270355
:206CC000FDDE00CCFFFFED8135067ADCD42B07C30001ED8120F4CCFFFFED1E8EDE00CC00B7
:206CE000017EEAF8BDE3E6B7DCEBBDE3F83410BDE40334108E0001BDE4C32703BDE3F81F97
:206D00001235103506BDEAC530890200C30001313F26F239BDE3E6B7DCEBBDE3F83410BD98
:206D2000E40334108E0001BDE4C32703BDE3F81F1235103506BDEAF830890200C300013173
:206D40003F26F2398EDCB8C6136F805A26FB862AB7DCC0B7DCC83420BDE397BDE4D035208F
:206D60002703BDE35E7EE69CFCE002FDDCD3BDE357BDE4C32706BDE403BFDCD37EE70ABD9B
:206D8000E35EBDE640BDE343262CA6881785101027FB006F84BDE787EC8813BDE5C6270F4B
:206DA0001083000027096F846F01BDE78720EC6F846F017EE787CC0000BDE5E3BDE30A2606
:206DC00052BDE6D0A688178510260FBDE5652050726F7465637465642039BDE5352028593D
:206DE0002F4E2F51293FBDE5C1BDE581BDE56F84DF8151272E8159261A6F84BDE78734148D
:206E0000FCDCDFFDDCCDEC88138D90FCDCCDBDE5E335143088208CE00025A1FCDCDFBDE59B
:206E2000C62696393410BDE889EC881335102018BDE357BDE889EC88133406AE8815BDE44F
:206E4000C32703BDE4033506BDEAC5308902003410BDE5C6351026F039BFDCD3FDDCD120C7
:206E60000FBDE357BDE403BFDCD3BDE3F8BFDCD17DDCD21027F428BDE8B7EC8813FDDCCFED
:206E8000BEDCD3BDEAF830890200BFDCD3FCDCCF7ADCD22719BDE5C626E3BDE7903406FCD3
:206EA000DCCFBDE5C63506ED84BDE78720CFBDE5C627A53406CCFFFFED84B7DCDD35067E27
:206EC000ED9BFCDCE927041F044F39BDE5654E6F2073757370656E6465642070726F67729A
:206EE000616D10FEDCDB4F39BDF0D6F7DCCF7FDCD2CCFFFFFDDCD34F5F3406860DBDE58111
:206F0000B6DCD2BDE5417CDCD28D282608ACE423EAAFE420E6BDE56F3506B3DCD3830001B5
:206F2000444CB7DCD2BDE4C327BCBDE3577EEE70B7DCCF8D5B815326FA8D55813027F481D5
:206F40003926038606398131263E8D4AB7DCD08003B7DCD18D4034028D3C1F89ABE4BBDC39
:206F6000D0B7DCD035021F0110B3DCD32403FDDCD38D23A780BBDCD0B7DCD07ADCD126F163
:206F80008D14BBDCD04C271A8EF7AA860B7EE2A4F6DCCF7EE5A38D0B4848484834028D0373
:206FA000AAE0398DEB80308109230A811125D98007811024D339BDF0D6F7DCCFBDE5BA26B0
:206FC0000C811B1027F5A8F6DCCFBDE588F6DCCFBDE5A826E7BDE58120E28EF35FBDE4ECE0
:206FE000BDE4C327778EF3A2586E95BDE397BDE4C3266934368EDCA520108EDCAEBDE39AEC
:20700000BDE4C3265734368EDCAE108EDCB7C609A6A0A7805A26F935B6BDE357BDE640342E
:20702000108EF3CEBDF09D5D260CBDE4031F103510ED8815200A5A26238D0D3510A7881784
:20704000BDE4C326DA7EE7874F34168EF067BDE4D02712C680A18027065426F97EE29FEAC8
:20706000E4E7E420E63596525745443F3F3F3FBDE60ABDE3E6B7DCEBBDEAEC3420BDF6BE59
:2070800035208EF406BDF09D3404BDE3F81F103502810322C7E7C6BDE4C326E639BDE4EC43
:2070A000A6A0813D26B639BDE4033410BDE4031F103510E780BDE4C326F0398EF435BDF039
:2070C0009DC102249734048D0D35028EDC6CE786BDE4C326E639BDE3F88C00081024F4BB91
:2070E0001F10395434048EF42DBDE4EC35025D270B5A1026F1A93414C6FF200334145F8118
:20710000031024F19A8EDCA23086A684E7841A0435948EF35FBDE4EC588EF3B86E958EDC04
:20712000A520038EDCAEA6808B41BDE581BDE5353A5BC608A6802703BDE5815A26F6865D54
:20714000BDE5817EE56FBDE357BDE640BDE53546696C653A20BDE6D0BDE5350A0D4469732E
:207160006B20616464726573733DEC8813BDE465BDE5352C204C6F6164206164647265739E
:20718000733D24EC8815BDE52CBDE5352C2050726F74656374696F6E3DE68817108EF067C3
:2071A000A6A0582403BDE5815D26F5BDE56F108E0000EC88133121BDE5C626F9BDE5354643
:2071C000696C6520636F6E7461696E73201F20BDE465BDE56520626C6F636B2873292E3934
:2071E000BDE3E63442BDEAEFBDE53544726976653A20A6E48B41BDE581BDE56F8EF4064F71
:20720000E6C48D2E8601E6418D238602E6428D1D8603E6438D1735427EE56F7EE56F7EE57D
:207220006F7EE56F7EE56F7EE56F7EE56FBDE5352C208D08863DBDE5817EE46434144CE6B9
:20724000802AFCC47F270F4A26F5A6802B05BDE58120F74F3594860135948EF4354FF6DCDA
:207260006C8DCF8601F6DC6D8DC37EE56F541F988EF35F8DC7863DBDE5818EDCA2A68527DB
:207280000286018EF42D8DB47EE56FBDE4033410BDE4C32703BDE403BFDCCD35101F10BDF0
:2072A000E52CC610C5032603BDE579BDE579A680BDE5415A26EEC604BDE5795A26FA3010AA
:2072C000C610A68081202504817F2502862EBDE5815A26EEBDE56FBDE5BA2705BCDCCD235B
:2072E000BC4F39BDE3E6B7DCEB8D3ABDE535447269766520B6DCEB8B41BDE581BDE535202B
:2073000068617320FCDCCFBDE465BDE53520626C6F636B732C20FCDCCDBDE465BDE56520D1
:2073200066726565393430BDE6F8FDDCCF1F024F5FFDDCCDC601FDDCCBBDE5E3EC812607CC
:207340005CF3DCCDFDDCCD313F270D8CE00025ECFCDCCBC3000120DEFCDCCD1A0435B083DE
:207360004D6573736167658344656275678254726163658344454641554C54825359535410
:20738000454D8246494C45824452495645834D454D4F525982434F4E534F4C45824652456D
:2073A0004580F0E3F0E3F0E3EFEBEFFAF019F06FF0A7F0BBE29FE29FF26DF26DF26DF11EF4
:2073C000F123F146F1E0F28BF25AF2E3E29F814C4F41445F414444524553538150524F54A6
:2073E000454354494F4E8081496E7465726C65617665814469726563746F72792065787414
:20740000656E73696F6E81416464726573738143796C696E64657273814865616473815331
:207420006563746F72732F547261636B80824F4646824F4E8081496E707574814F75747062
:207440007574803506FDDCE6B6DCE8393121B7DCCDBDE397BDE285CC4000ED816F80BDE6FD
:2074600040A6881785201027F429B6DCB7B7DCE1EC8813FDDCE24F5FFDDCE4FCDCE634062C
:207480007FDCE810BEDCCFBDF5888EDC00BDF5FC27B1813F262DBDF5FC803081092308C61A
:2074A0003FE7808B30201C1F89108EDCEDBDE4C35A2B07BDE4D026FB20F3BDE4D027CEA77E
:2074C0008020F7A780810D26C4108EDC007DDCA42717862ABDE5811F21A6802709810D27A3
:2074E00005BDE58120F3BDE56FBDE4C3813F265BECA1BDE4C3C14F2704C1502616A6A027B5
:2075000009810D2705BDE58120F3C14F2768BDE56F2063C1462607B6DCE8275A20CBC15311
:2075200026035F2009C152260EBDE3F81F10F1DCE8264320B420B2C145263EBDE4C32708CB
:20754000BDE3F81F10F7DCE87EF443BEDCE4FCDCE23416B6DCE1340210FFDCE6BDE1B42680
:20756000014FB7DCE810FEDCE63502B7DCE13516FDDCE2BFDCE47EF48AC13D2707C14926E8
:2075800018BDE48C8D0220EE34108EDCEDA6A0A7802704810D26F63590C14026083506FD00
:2075A000DCE67EF451C1412613BDE3F83001301F27C48D482792810D26F820F2C14B260882
:2075C000BDE5C1B7DCE82031C13F262DBDE4C327161F21A6A0810D270E812026F6A68081DB
:2075E000202708A1A027F686FF200BA6A0810D2704812026F24FB7DCE87EF48A3410B6DCDA
:20760000E1B7DCEBFCDCE410830200250DFCDCE2BDE5C6271EFDDCE24F5F8EDE00308BC3CE
:207620000001FDDCE43410FCDCE2BDE5E33510A68081FF3590B6DC6C2020B6DC6D201B34AD
:2076400004F6DC6CB7DC6C20083404F6DC6DB7DC6D1F981A043584B7DCEB1A04393440CEA5
:20766000DC6E48ECC6200C3440CEDC6E4833C6ECC4AFC41A0435C03416A661E6633D340686
:20768000A662E6653DEBE4E7E4A663E6643DEBE4E7E435063264393416CC00008E00111CBB
:2076A000FE69636962301F270D594910A3E425EFA3E41A0120EB32623590AD9FDC946F44F0
:2076C0006F456F466E9FDC8E6E9FDC906E9FDC926E9FDC966E9FDC986E9FDC9A6E9FDC9CCE
:2076E0006E9FDC9E6E9FDCA0535441525455502E2A556E7265636F676E697A656420636F10
:207700006D6D616E644F706572616E64206D697373696E67206F7220696E76616C6964462B
:20772000696C65206E6F7420666F756E6446696C6520616C72656164792065786973747320
:20774000496E737566666963656E74206469736B20737061636546696C65206E6F74206F34
:2077600070656E20666F72207265616446696C65206E6F74206F70656E20666F7220777270
:2077800069746546696C652070726F74656374696F6E2076696F6C6174696F6E496E76613D
:2077A0006C696420646576696365446F776E6C6F616420666F726D6174206572726F728451
:2077C000464F524D415482524541448257524954458246494C455382435245415445834443
:2077E000454C455445824C4F414482534156458252554E8252455455524E825345548253AB
:20780000484F5782444F574E4C4F414482434F4E4E45435480EBDDECE4ED14ED44ED68ED88
:207820007FEE30EE61E1DEEEC2EFDAF112EEE8EFB6E193E48CE489E491E4C3E4D0E43DE480
:2078400003E3F8E35EE357E27DE301E304E397E39AE3E6F048E4ECE30AE343E579E56FE533
:207860005BE535E565E465E52CE541E54FE6BDE6D0F23CE581E5C1E5BAE588E5A3E5A8F6EB
:2078800035F63AF63FF649E29FE644E893E89CE910E716E7B9E59BEF88E64AEE24EE59E768
:2078A000F2E8CEE956E85FE814E918E8F1E8A9E9A5E9A2E9F3EA1FEA71E678E640E889E8FD
:2078C000B7E70AED82EFF3F005F657E5C6EE48E790ED9BE6FBE6F8F325E5E3E787E61AE69A
:2078E0001FE60AEAEFEAECEAA5EAC5EAF8E69CE004F6BEF6C8F6CCF6BAE1B4E1A9F65DF6F8
:2079000067F0F6F0FCF588F677F697E086EF308EFF09C667A680A7A05A26F9BDF929BDF9F4
:20792000533986FF3939860339393404B6FE6D8420810027F7B7FE683584B6FE6D84018130
:20794000002706B6FE681A043986FF3900000000000000BDE56FBDE56F8EFCD8BDE55BBD8B
:20796000E56FBDFA4D261A8EFCE0BDE55BCCFE60FDF94FBDE52CBDFB50BDF9A725037EF9C7
:207980008A8EFCE7BDE55B7EF9A3BDE56F8EFCF4BDE55B8600BDF9F28EFD05BDE55B860107
:2079A000BDF9F2BDE56F398600B7FE60BDFB7B253E860FBDFC751F18844081002731860A7D
:2079C000BDFC751F1881012626860BBDFC751F188101261B860CBDFC751F18810026108687
:2079E0000DBDFC751F18810026051CFE7EF9F11A01398401484848488AE01F8986001F0136
:207A0000860EBDFC9ABDFB7B2531860F8E00ECBDFC9ABDFBA42524BDFBD48EFD16BDE55BC5
:207A2000B6047BBDE541B6047ABDE541B60479BDE541B60478BDE5417EFA478EFCE7BDE51A
:207A40005BBDE56F1A0139BDE56F1CFE39BDFCCA8600B7FE60B6FE608100395AB7FD1FF0F9
:207A6000FD1F24014A3410F7FD1FBDFA8E35102619B6FD1F8401C6001F02C600A6A9040004
:207A8000A78031215CC10026F339C61F5739BDFC53B6FD1EB1FD1B2613B6FD1DB1FD1A26EC
:207AA0000BB6FD1CB1FD192603C60039BDFB7B2528BDFC10860F8E0020BDFC9ABDFBA4259D
:207AC00018BDFBD4B6FD1EB7FD1BB6FD1CB7FD19B6FD1DB7FD1AC60039C60F3934205AB7B6
:207AE000FD1FF0FD1F24014A3410F7FD1FBDFA8E1026004A3510B6FD1F8401C6001F02C68A
:207B000000A680A7A9040031215CC10026F3BDFB7B252D860F8E0030BDFC9ABDFBA4252097
:207B2000BDFBF2BDFB7B251886FFB7FD1BB7FD19B7FD1A3436BDFAAC3536C60035A0351024
:207B4000C6FFF7FD1BF7FD19F7FD1AC61F5735A08600B7FD1EB7FD1CB7FD1D86FFB7FD1BD8
:207B6000B7FD19B7FD1A8680B7FE628E0100301F8C000026F98600B7FE623934128600B76B
:207B8000F94DB7F94E860FBDFC751F188480270F7CF94D26F07CF94E26EB1A017EFBA11C70
:207BA000FE35923934328600B7F94DB7F94E860FBDFC751F188488810827158401810127E7
:207BC0000A7CF94D26E87CF94E26E31A017EFBD21CFE35B2108E00008608BDFC781F10E725
:207BE000A904003121A7A904003121108C020026E739108E0000E6A904003121A6A9040026
:207C000031211F018608BDFC9A108C020026E739B6F9518401484848488AE01F8986001FD1
:207C200001860EBDFC9A8600F6FD1D1F01860DBDFC9A8600F6FD1C1F01860CBDFC9A8600A0
:207C4000F6FD1E1F01860BBDFC9A8E0001860ABDFC9A3954442402CA80F7FD1EB7FD1CFC7E
:207C6000F95254442402CA80F7FD1D2408B6FD1C8A80B7FD1CBDFCBCB7FE628A40B7FE625E
:207C80003402F6FE60B6FE611F013502B7FE628840B7FE628600B7FE6239BDFCCA34021F4A
:207CA00010F7FE60B7FE613502B7FE628A20B7FE628820B7FE628600B7FE623934028600E9
:207CC000B7FE628692B7FE63358234028600B7FE628680B7FE6335825050494445203A0032
:207CE00020494F3D307800204E4F542050524553454E5400205050494445303A20424C4F9C
:207D0000434B533D00205050494445313A20424C4F434B533D003078000000000000000085
:207F00003B03000200000304010050020900000001FF01FF00000002FF01FF00000003FFBB
:207F200001FF0000000101F922F93A000000000000000000000000F924F92A0000000000B1
:207F400000000000000000F926F929F929F925E00BFF00FF00FF00FF00FF00FF0000034D6B
:107F600041494E000000000353595354454D000051
:0E7FF200F6D8F6D4F6E0F6DCF6D0F6E4E0FBC6
:00000001FF
