:20600000FFFF2000108EDC507EF92CF7DCD5BFDCD610BFDCD8F6DCEBF7DCDA316AAEA4E61C
:2060200080AFA4C16F2437588EF84E3AEC84FDDCCB10BFDCDBB6DCA32606357F6E9FDCCB39
:20604000BDE5415353522000AEA4E61FBDE470BDE541202D2000357F8D336E9FDCCB1F2422
:20606000BDE541496E76616C6964205353522000BDE470BDE541206174202400ECE18300C1
:2060800002BDE538BDE57B7EE1B98D01393407BDE54150433D00EC65830002BDE538BDE5E8
:2060A000412043433D00A6E4BDE54DBDE5412044503D001FB8BDE54DBDE54120413D00A682
:2060C00061BDE54DBDE54120423D00A662BDE54DBDE54120583D001F10BDE538BDE5412053
:2060E000593D001F20BDE538BDE54120553D001F30BDE538BDE54120533D001F40C3000777
:20610000BDE538BDE57B358710CEDE00BDE004BDE618BDE5710A435542495820766572733C
:20612000696F6E20312E350A0D0A436F7079726967687420313938332D32303035204461DD
:2061400076652044756E6669656C640A0D416C6C20726967687473207265736572766564B8
:206160000A0D00B6DCEC2618108EF6FABDE36ACEE180344010FFDCDBBDE68526037EE24E4C
:2061800010CEDE00BDE626BDE4988D3427F21F89BDE54152633D00BDE470BDE57B20E13487
:2061A000018E0000BFDCE9BEDCE62604350120DC35017EF57110FFDCE94F5FFDDCE620C0B5
:2061C00010FFDCDBB6DCEBB7DCDABDE4CF271A10BFDCCF8140102712878EF7DCBDE4F8C198
:2061E0000E2434588EF8326E9539BDE2898645C658ED81A784BDE64CA6881785201027062D
:206200009FEC8813AE8815BFDCCDBDEE60F6DCEBBDE4CF6E9FDCCD7FDCCD8EDCAEBDE3A631
:206220008D6F862AA784B6DCB7B7DCEBCC0000BDE5EFBDE31627173088208CE00025F3FC17
:20624000DCDFBDE5D226E88EF70486FF2062A68812B7DCCAEC8810FDDCC8108340001027A5
:20626000121381452609C1582605A1881227891F128EDCC0ED81A6A812A7806F808CDCC866
:2062800025F910BEDCCF7EE1EDBDE3A386FFB7DCCDC608BDE4DC2706812F2605313F7EE3CF
:2062A0009CA7805A2AED7DDCCD279C8EF71986013401F6DC6DC108240A108EDC7E5810AE23
:2062C000A52605C601F7DC6DF6DC6CC108240A108EDC6E5810AEA52605C601F7DC6C7DDC85
:2062E000A22706BDE567BDE57B35013401F6DCDAF7DCEBBEDCD610BEDCD8F6DCD5350127DE
:206300000510FEDCDB3910FEDCDB1A04398EDCAEBDE3A67EE28C3436108EDCB8A684260325
:206320004A2010C6088D0E260AC6088D082604C6038D0235B6A6A0812A2708A18026065AB3
:2063400026F33930015A2704312120F7812A393416C6138EDCB8A680812A27045A26F74FE1
:206360004D35968D058DE82620398D37C6088D26812E2707A7805A2AF5200E8D1FC603BD5D
:20638000E4DC2708A7805A2AF67EE2AB8D0EBDE4CF8EDCB84F39BDE4DC27EE395A2B516F9D
:2063A0008020F98EDCA5A680B7DCB7BDE4CF270BE621C13A26058D3DB7DCB734201F128ECF
:2063C000DCB8C608A6A0A7805A26F93520A6A4815B261D8EDCB83121C608BDE396815D273A
:2063E00008A7805A2AF47EE2AB8DB17DDCB827F64F39BDE4CFECA1C13A26EB804181042484
:20640000E51A0439BDE4CF27DD812426433121BDE4CF27D28E0000BDE4DC27288030810A6E
:20642000250A81112DC08007811024BAB7DCCC8605B7DCCB1F10308B7ADCCB26F7FADCCCA6
:206440001F0120D3BDE4CF4F39BDE4CF1027FE5B8E0000BDE4DC27EC803081091022FE4B5E
:206460003402CC000ABDF689EBE089001F0120E34F3436108E00001F01CC000ABDF6A93480
:206480000431218C000026F135028B30BDE58D313F26F535B6BDE57B862ABDE58D108EDCF6
:2064A000001F20C15022EEBDE5CD817F27048108260B313FBDE5410820080020E4BDE58D72
:2064C0008D2BA7A0810D26D9108EDC007EE57BA6A0812027FA6DA22702810D39A6A027085C
:2064E00081202708810D2604313F1A0439816125FB817A22F7845F395F8DD4A6802AFC30DF
:206500001F3420847F272CB7DCCB30017ADCCBA6848DDAB7DCCC8DC42714B1DCCC27EB819A
:206520002F2709813D270535205C20CF313FBADCCB2AF48D9A5D35908D131E898D0F1E89B0
:20654000393410AE628D20AF621A0435903402444444448D06A6E48D023582840F8B308195
:2065600039232A8B0720263402A680271E8D1E20F83410AE628DF0AF6235103402860A8DDF
:206580000C860D2004340286208D0235823416F6DC6D20023416C108240D8EDC7E58AE85B4
:2065A0002705AD844F35968EF7B7860A7EE2B08D0326FC393414C10824ED8EDC6E58AE8518
:2065C00027E5AD8435943414F6DC6C20E98DF726FC39340258498401C3DE001F013504CB26
:2065E000014F34108D093510EC841083FFFF3934028EDE00B6DCEBB1DCDE2608A6E410B3ED
:20660000DCDF27108D20B6DCEBB7DCDEA6E4FDDCDFBDEAD235828D0E3406CCFFFFFDDCDF24
:20662000B7DCDE4F35867DDCDD27C33416B6DCEB3402B6DCDEB7DCEBFCDCDF8EDE00BDEB09
:20664000057FDCDD3502B7DCEB4F35968D372758108EF734860234037DDCA22721BDE5413D
:206660004572726F722070726F63657373696E672066696C653A2000BDE6CABDE57B1F21CF
:2066800035037EE2B0B6DCB7B7DCEBCC0000BDE5EFBDE31627123088208CE00025F3FCDC6B
:2066A000DFBDE5D226E88602398DA18D30BDE57B3088208CE000250BFCDCDFBDE5D227E802
:2066C000BDE5EFBDE31626E820E134168EDCB7A6808B41BDE58D863ABDE58D2002341686F7
:2066E0005BBDE58D8D12865DBDE58D8D0B862EBDE58DC6038D043596C608A6802703BDE5FF
:206700008D5A26F639B6DCEB3440BDEAFCE643A6423DA6413D35C0BDE34F1026FB8DBDE6F2
:20672000852609108EF74386077EE6568D6FFDDCCDCC0000BDE5EFC6106D8427323088208F
:206740005A26F6FCDCDFBDE5D226E9FCDCCDED84BDE79434068D46FDDCCDBDE62B3506FD82
:20676000DCDF8EDE006F808CE00025F98EDE003420108EDCB8C613A6A0A7805A26F9352073
:206780003088EDFCDCD3ED881586F0A78817FCDCCDED88137FDCDD7ADCDD1A0439BDE705CB
:2067A000FDDCCB8300018B0134027DDCDF260EF6DCE0B1DCE02506C10125028D11C6018D5E
:2067C0000D5CE1E423F98EF75786087EE2B04F3434BDE5EFEC8127078CE00025F735B41F82
:2067E0001083DE024456A6E4800110B3DCCB24ED3261108EFFFF10AF1E3530326320953417
:2068000014BDE896EC8813ED42ED444F5FED48ED46F6DCB78601EDC4B6DCDAB7DCEB4F35FD
:20682000943414304AA641B7DCEBEC482612A6C44A2676EC441083FFFF2776BDEAD2EC48D6
:20684000308BC3000110830200250F3410EC44ED46BDE5D2ED4435104F5FED48B6DCDAB759
:20686000DCEBA68081FF27491A0435943414A6C44A2636A641B7DCEBEC441083FFFF27317E
:20688000ED46BDEAD2BDE5D2ED44B6DCDAB7DCEB4F5FED483594BDE64CA68817858026357D
:2068A000108EF79D86037EE6568EF76E86047EE2B086067EE2EB3406EC42ED444F5FED4883
:2068C000ED463586BDE6852705BDE7172007A68817854027CBFCDCDF1A043934148DE5ECE4
:2068E0008813ED42ED444F5FED48ED46B6DCB7A7418602A7C4B6DCDAB7DCEB4F3594341617
:20690000304AEC481083020025048D19EC48308BC30001ED48A6E4A7841A0435968EF785D5
:2069200086057EE2B03414A6C4810226F0A641B7DCEBEC441083FFFF2613BDE79D3406ECAB
:2069400046BDE5D23506ED84BDE794AE61ED46BDEB05BDE5D2ED44B6DCDAB7DCEB4F5FED80
:206960004835943414A6C481022639A641B7DCEBEC482604AE462617304A308B10830200B4
:2069800024096F846380C3000120F1304A8D96EC46BDE5D2CCFFFFED84EC441083FFFF27B9
:2069A00003BDEDB16FC4B6DCDAB7DCEB4F3594BDE8B63416E6C45A1026FEEEA641B7DCEB14
:2069C000EC48E3E410830200251A3406EC441083FFFF1027FEDBED46BDE5D2ED4435068347
:2069E000020020E0ED48270FEC441083FFFF1027FEBF304ABDEAD2B6DCDAB7DCEB4F35967E
:206A00003430A641B7DCEB108E0000EC4210A344270931A90200BDE5D226F2EC483420E3E7
:206A2000E13402B6DCDAB7DCEB4F35B23506FDDCD3EC46AE4810AE423436ECC43406810239
:206A4000262D8C00002728A641B7DCEBEC441083FFFF2610BDE79D3406EC46BDE5D2350650
:206A6000ED84ED44304ABDEB05B6DCDAB7DCEBBEDCD610BEDCD8F6DCD54F6E9FDCD3350684
:206A8000FDDCD33506EDC4F7DCEB3536AF4810AF42ED46260510AF442005BDE5D2ED44EC26
:206AA000482707EC44304ABDEAD2B6DCDAB7DCEB20B234161F01A643E6423DBDF6A96F45B9
:206AC000E1432506E0436C4520F6E7461F10E744359634767FDCEC8D20ECE48DD5AE62BD8E
:206AE000F6DA27137CDCECF6DCECC105273CC10326EBBDF6D020E235F6B6DCEBC6073DC392
:206B0000DC501F033934767FDCEC8DEDECE48DA2AE62BDF6DE27E07CDCECF6DCECC10527ED
:206B200009C10326EBBDF6D020E2B7DCCB357610B3DCDF26123402B6DCEBB1DCDE350226B8
:206B400006BDE6187FDCDDBDE5414572726F7220616363657373696E6720626C6F636B2034
:206B600000BDE471BDE541206F6E2064726976653A2000B6DCEB8B41BDE58DBDE57B8EEB81
:206B80009B7ADCCB270AA68026FCA68426F33001BDE567BDE57B86097EE2EB4469736B20A1
:206BA000666F726D6174206572726F720042616420736563746F7200536563746F72206E4D
:206BC0006F7420666F756E64004469736B2077726974652070726F74656374656400004492
:206BE00069736B2073797374656D206572726F7200BDE616BDE3F2B7DCEBBDEAF9CC020305
:206C0000FDDCD3BDE4CF27288EF3FBBDF0B63404BDE40435024D2605F7DCD320E64A26057D
:206C2000F7DCD420DE4A81031022F67FE7C620D3BDE541466F726D617474696E672000B6C6
:206C4000DCEBBDF2038EF3FB4FF6DCD3BDF2428601F6DCD4BDF23CBDE5410A0D4F6B3F202F
:206C600000BDE5CDBDE58D84DF81591026F90CBDE57BB6DCD3BDF6CCB6DCD4B7DCD38EDEC5
:206C8000006F808CE00025F98EDE00CC0000BDEB05BDE7058300011F89FDDCD1CC00027ACF
:206CA000DCD22B08BDEB05C3000120F37ADCD32B08BDEB05C3000120F3CCFFFFED84300222
:206CC000CC00027ADCD12B07ED81C3000120F434067DDCD42703FDDE00CCFFFFED81350668
:206CE0007ADCD42B07C30001ED8120F4CCFFFFED1E8EDE00CC00017EEB05BDE3F2B7DCEB66
:206D0000BDE4043410BDE40F34108E0001BDE4CF2703BDE4041F1235103506BDEAD23089E5
:206D20000200C30001313F26F239BDE3F2B7DCEBBDE4043410BDE40F34108E0001BDE4CFE0
:206D40002703BDE4041F1235103506BDEB0530890200C30001313F26F2398EDCB8C6136F5C
:206D6000805A26FB862AB7DCC0B7DCC83420BDE3A3BDE4DC35202703BDE36A7EE6A9FCE034
:206D800002FDDCD3BDE363BDE4CF2706BDE40FBFDCD37EE717BDE36ABDE64CBDE34F262CD1
:206DA000A6881785101027FAF76F84BDE794EC8813BDE5D2270F1083000027096F846F014F
:206DC000BDE79420EC6F846F017EE794CC0000BDE5EFBDE3162654BDE6DDA6881785102606
:206DE00010BDE5712050726F74656374656400203ABDE5412028592F4E2F51293F00BDE5C1
:206E0000CDBDE58DBDE57B84DF8151272E8159261A6F84BDE7943414FCDCDFFDDCCDEC8871
:206E2000138D8EFCDCCDBDE5EF35143088208CE000259FFCDCDFBDE5D22694393410BDE896
:206E400096EC881335102018BDE363BDE896EC88133406AE8815BDE4CF2703BDE40F3506C9
:206E6000BDEAD2308902003410BDE5D2351026F039BFDCD3FDDCD1200FBDE363BDE40FBFD9
:206E8000DCD3BDE404BFDCD17DDCD21027F41CBDE8C4EC8813FDDCCFBEDCD3BDEB05308955
:206EA0000200BFDCD3FCDCCF7ADCD22719BDE5D226E3BDE79D3406FCDCCFBDE5D23506ED18
:206EC00084BDE79420CFBDE5D227A53406CCFFFFED84B7DCDD35067EEDB1FCDCE927041F80
:206EE000044F39BDE5714E6F2073757370656E6465642070726F6772616D0010FEDCDB4F1F
:206F000039BDF0EFF7DCCF7FDCD2CCFFFFFDDCD34F5F3406860DBDE58DB6DCD2BDE54D7CDE
:206F2000DCD28D282608ACE423EAAFE420E6BDE57B3506B3DCD3830001444CB7DCD2BDE4B6
:206F4000CF27BCBDE3637EEE88B7DCCF8D5B815326FA8D55813027F4813926038606398173
:206F600031263E8D4AB7DCD08003B7DCD18D4034028D3C1F89ABE4BBDCD0B7DCD035021F38
:206F80000110B3DCD32403FDDCD38D23A780BBDCD0B7DCD07ADCD126F18D14BBDCD04C2751
:206FA0001A8EF7C6860B7EE2B0F6DCCF7EE5AF8D0B4848484834028D03AAE0398DEB8030AF
:206FC0008109230A811125D98007811024D339BDF0EFF7DCCFBDE5C6260C811B1027F59BE7
:206FE000F6DCCFBDE594F6DCCFBDE5B426E7BDE58D20E28EF373BDE4F8BDE4CF27778EF369
:20700000B6586E95BDE3A3BDE4CF266934368EDCA520108EDCAEBDE3A6BDE4CF26573436BF
:207020008EDCAE108EDCB7C609A6A0A7805A26F935B6BDE363BDE64C34108EF3E2BDF0B66B
:207040005D260CBDE40F1F103510ED8815200A5A26238D0D3510A78817BDE4CF26DA7EE72C
:20706000944F34168EF080BDE4DC2712C680A18027065426F97EE2ABEAE4E7E420E63596B3
:20708000525745443F3F3F3FBDE616BDE3F2B7DCEBBDEAF93420BDF6D035208EF41ABDF0E4
:2070A000B63404BDE4041F103502810322C7E7C6BDE4CF26E639BDE4F8A6A0813D26B63956
:2070C000BDE40F3410BDE40F1F103510E780BDE4CF26F0398EF449BDF0B6C102249734048E
:2070E0008D0D35028EDC6CE786BDE4CF26E639BDE4048C00081024F4AE1F10395434048E36
:20710000F441BDE4F835025D270B5A1026F19C3414C6FF200334145F81031024F18D8EDC47
:20712000A23086A684E7841A0435948EF373BDE4F8588EF3CC6E958EDCA520038EDCAEA656
:20714000808B41BDE58DBDE5413A5B00C608A6802703BDE58D5A26F6865DBDE58D7EE57B89
:20716000BDE363BDE64CBDE54146696C653A2000BDE6DDBDE5410A0D4469736B2061646412
:20718000726573733D00EC8813BDE471BDE5412C204C6F616420616464726573733D240046
:2071A000EC8815BDE538BDE5412C2050726F74656374696F6E3D00E68817108EF080A6A000
:2071C000582403BDE58D5D26F5BDE57B108E0000EC88133121BDE5D226F9BDE54146696C64
:2071E0006520636F6E7461696E7320001F20BDE471BDE57120626C6F636B2873292E0039D1
:20720000BDE3F23442BDEAFCBDE54144726976653A2000A6E48B41BDE58DBDE57B8EF41A4E
:207220004FE6C48D1D8601E6418D118602E6428D0B8603E6438D0535427EE57BBDE5412C6F
:2072400020008D08863DBDE58D7EE47034144CE6802AFCC47F270F4A26F5A6802B05BDE5BF
:207260008D20F74F3594860135948EF4494FF6DC6C8DCF8601F6DC6D8DC27EE57B541F9850
:207280008EF3738DC7863DBDE58D8EDCA2A685270286018EF4418DB47EE57BBDE40F3410F7
:2072A000BDE4CF2703BDE40FBFDCCD35101F10BDE538C610C5032603BDE585BDE585A68093
:2072C000BDE54D5A26EEC604BDE5855A26FA3010C610A68081202504817F2502862EBDE563
:2072E0008D5A26EEBDE57BBDE5C62705BCDCCD23BC4F39BDE3F2B7DCEB8D3EBDE5414472A2
:207300006976652000B6DCEB8B41BDE58DBDE541206861732000FCDCCFBDE471BDE5412076
:20732000626C6F636B732C2000FCDCCDBDE471BDE571206672656500393430BDE705FDDCD8
:20734000CF1F024F5FFDDCCDC601FDDCCBBDE5EFEC8126075CF3DCCDFDDCCD313F270D8C85
:20736000E00025ECFCDCCBC3000120DEFCDCCD1A0435B0834D6573736167658344656275C4
:20738000678254726163658344454641554C548253595354454D8246494C458244524956CD
:2073A00045834D454D4F525982434F4E534F4C45824652454580F0FCF0FCF0FCF004F013B8
:2073C000F032F088F0C0F0D4E2ABE2ABF27DF27DF27DF137F13CF160F200F29BF26AF2F3D2
:2073E000E2AB814C4F41445F414444524553538150524F54454354494F4E8081496E7465E1
:20740000726C65617665814469726563746F727920657874656E73696F6E81416464726559
:2074200073738143796C696E6465727381486561647381536563746F72732F547261636B4A
:2074400080824F4646824F4E8081496E707574814F7574707574803506FDDCE6B6DCE839E0
:207460003121B7DCCDBDE3A3BDE291CC4000ED816F80BDE64CA6881785201027F422B6DCC6
:20748000B7B7DCE1EC8813FDDCE24F5FFDDCE4FCDCE634067FDCE810BEDCCFBDF59A8EDCAA
:2074A00000BDF60E27B1813F262DBDF60E803081092308C63FE7808B30201C1F89108EDC75
:2074C000EDBDE4CF5A2B07BDE4DC26FB20F3BDE4DC27CEA78020F7A780810D26C4108EDC49
:2074E000007DDCA42717862ABDE58D1F21A6802709810D2705BDE58D20F3BDE57BBDE4CF53
:20750000813F2659ECA1BDE4CFC14F2704C1502616A6A02709810D2705BDE58D20F3C14F25
:207520002766BDE57B2061C1462607B6DCE8275820CBC15326035F2009C152260CBDE40459
:207540001F10F1DCE8264120B4C145263EBDE4CF2708BDE4041F10F7DCE87EF457BEDCE42D
:20756000FCDCE23416B6DCE1340210FFDCE6BDE1C026014FB7DCE810FEDCE63502B7DCE1C3
:207580003516FDDCE2BFDCE47EF49EC13D2707C1492618BDE4988D0220EE34108EDCEDA6CB
:2075A000A0A7802704810D26F63590C14026083506FDDCE67EF465C1412613BDE404300159
:2075C000301F27C48D482792810D26F820F2C14B2608BDE5CDB7DCE82031C13F262DBDE4BC
:2075E000CF27161F21A6A0810D270E812026F6A68081202708A1A027F686FF200BA6A081AE
:207600000D2704812026F24FB7DCE87EF49E3410B6DCE1B7DCEBFCDCE410830200250DFCEB
:20762000DCE2BDE5D2271EFDDCE24F5F8EDE00308BC30001FDDCE43410FCDCE2BDE5EF35FE
:2076400010A68081FF3590B6DC6C2020B6DC6D201B3404F6DC6CB7DC6C20083404F6DC6D23
:20766000B7DC6D1F981A043584B7DCEB1A04393440CEDC6E48ECC6200C3440CEDC6E4833EE
:20768000C6ECC4AFC41A0435C03416A661E6633D3406A662E6653DEBE4E7E4A663E6643D23
:2076A000EBE4E7E435063264393416CC00008E00111CFE69636962301F270D594910A3E404
:2076C00025EFA3E41A0120EB32623590AD9FDC946F446F456F466E9FDC8E6E9FDC906E9FBB
:2076E000DC926E9FDC966E9FDC986E9FDC9A6E9FDC9C6E9FDC9E6E9FDCA053544152545521
:20770000502E2A00556E7265636F676E697A656420636F6D6D616E64004F706572616E640C
:20772000206D697373696E67206F7220696E76616C69640046696C65206E6F7420666F75CC
:207740006E640046696C6520616C72656164792065786973747300496E7375666669636579
:207760006E74206469736B2073706163650046696C65206E6F74206F70656E20666F7220E6
:20778000726561640046696C65206E6F74206F70656E20666F722077726974650046696CBD
:2077A000652070726F74656374696F6E2076696F6C6174696F6E00496E76616C69642064BD
:2077C000657669636500446F776E6C6F616420666F726D6174206572726F720084464F5207
:2077E0004D415482524541448257524954458246494C4553824352454154458344454C4534
:207800005445824C4F414482534156458252554E8252455455524E825345548253484F5772
:2078200082444F574E4C4F414482434F4E4E45435480EBF1ECFAED2AED5AED7EED95EE481F
:20784000EE79E1EAEEDAEFF3F12BEF01EFCFE19FE498E495E49DE4CFE4DCE449E40FE40411
:20786000E36AE363E289E30DE310E3A3E3A6E3F2F061E4F8E316E34FE585E57BE567E541AF
:20788000E571E471E538E54DE55BE6CAE6DDF24CE58DE5CDE5C6E594E5AFE5B4F647F64C09
:2078A000F651F65BE2ABE650E8A0E8A9E91DE723E7C6E5A7EFA1E656EE3CEE71E7FFE8DB0D
:2078C000E963E86CE821E925E8FEE8B6E9B2E9AFEA00EA2CEA7EE685E64CE896E8C4E7170D
:2078E000ED98F00CF01EF669E5D2EE60E79DEDB1E708E705F339E5EFE794E626E62BE61604
:20790000EAFCEAF9EAB2EAD2EB05E6A9E004F6D0F6DAF6DEF6CCE1C0E1B5F66FF679F10FAC
:20792000F115F59AF689F6A9E08AEF498EFF09C667A680A7A05A26F9BDF95ABDF98739863D
:20794000FF3939860339A6C4810326037EFA8C39A6C4810326037EFAAC39393404F6FE6D5A
:20796000C420C10027F7B7FE683584B6FE6D840181002706B6FE681A043986FF39000000E9
:2079800000000000000000BDE57BBDE57B8EFBD0BDE567BDE57BBDFA7E261A8EFBD8BDE5B6
:2079A00067CCFE60FDF985BDE538BDFAD1BDF9DB25037EF9BE8EFBDFBDE5677EF9D7BDE50A
:2079C0007B8EFBECBDE5678600BDFA1C8EFBFDBDE5678601BDFA1CBDE57B398600B7FE607B
:2079E000BDFAE82534860FBDFB6CC440C1002729860ABDFB6CC1012620860BBDFB6CC1018E
:207A00002617860CBDFB6CC100260E860DBDFB6CC10026051CFE7EFA1B1A0139C60EF7F916
:207A2000828401484848488AE01F898600BDFB95BDFAE82537860FB7F982CC00ECBDFB9573
:207A4000BDFB0F25278E0400BDFB3D8EFC0EBDE567B6047BBDE54DB6047ABDE54DB6047971
:207A6000BDE54DB60478BDE54D7EFA788EFBDFBDE567BDE57B1A0139BDE57B1CFE39BDFBFC
:207A8000C28600B7FE60B6FE60810039BDFAE82518BDFC11860FB7F982CC0020BDFB95BD58
:207AA000FB0F2505BDFB3D4F39860239BDFAE8251DBDFC11860FB7F982CC0030BDFB95BDDC
:207AC000FB0F250ABDFB53BDFAE825024F398602398680B7FE62108E0100313F108C00008B
:207AE00026F88600B7FE623934068600B7F983B7F984860FBDFB6CC480270F7CF98326F228
:207B00007CF98426ED1A017EFB0C1CFE35863934268600B7F983B7F984860FBDFB6CC4885F
:207B2000C1082715C401C101270A7CF98326EA7CF98426E51A017EFB3B1CFE35A6108E0119
:207B4000008608BDFB6FE780A780313F108C000026EF39108E01008608B7F982E680A6809D
:207B6000313FBDFB95108C000026EC39BDFBB4B7FE628A40B7FE623402F6FE60B6FE61B7A7
:207B8000F9813502B7FE628840B7FE628600B7FE62B6F98139BDFBC2F7FE60B7FE61B6F9A4
:207BA00082B7FE628A20B7FE628820B7FE628600B7FE623934028600B7FE628692B7FE63D3
:207BC000358234028600B7FE628680B7FE6335825050494445203A0020494F3D30780020BD
:207BE0004E4F542050524553454E5400205050494445303A20424C4F434B533D002050507C
:207C0000494445313A20424C4F434B533D003078003406860EB7F9828600E6C4C4015858BF
:207C20005858CAE0BDFB95860DB7F9828600E645BDFB95860CB7F9828600E644BDFB958693
:197C40000BB7F9828600E646BDFB95860AB7F9828600C601BDFB953586D8
:207F00003B03000200000304010050020900000001FF01FF00000002FF01FF00000003FFBB
:207F200001FF0000000101F93FF96B000000000000000000000000F941F95B000000000015
:207F400000000000000000F943F946F950F942E00BFF00FF00FF00FF00FF00FF0000034DED
:107F600041494E000000000353595354454D000051
:0E7FF200F6EAF6E6F6F2F6EEF6E2F6F6E1084C
:00000001FF
