:20600000FFFF2000108E10507EF9ABF710DDBF10DE10BF10E0F610F3F710E2316AAEA4E63D
:2060200080AFA4C1712437588EF8C93AEC84FD10D310BF10E3B610A32606357F6E9F10D3D4
:20604000BDE5625353522000AEA4E61FBDE491BDE562202D2000357F8D336E9F10D31F2483
:20606000BDE562496E76616C6964205353522000BDE491BDE562206174202400ECE183005E
:2060800002BDE559BDE59C7EE1DA8D01393407BDE56250433D00EC65830002BDE559BDE543
:2060A000622043433D00A6E4BDE56EBDE5622044503D001FB8BDE56EBDE56220413D00A6DD
:2060C00061BDE56EBDE56220423D00A662BDE56EBDE56220583D001F10BDE559BDE562208D
:2060E000593D001F20BDE559BDE56220553D001F30BDE559BDE56220533D001F40C30007F3
:20610000BDE559BDE59C358786FFB7DF5410CE12008E10006F808C120025F9BDE004BDE69E
:20612000397F10F486FEB7DF5486FDB7DF54BDE5920A43554249582076657273696F6E20C9
:20614000312E350A0D0A436F7079726967687420313938332D3230303520446176652044E4
:20616000756E6669656C640A0D416C6C207269676874732072657365727665640A0D00863A
:20618000FCB7DF54B610F42618108EF775BDE38BCEE1A1344010FF10E3BDE6A626037EE254
:2061A0006F10CE1200BDE647BDE4B98D3427F21F89BDE56252633D00BDE491BDE59C20E153
:2061C00034018E0000BF10F1BE10EE2604350120DC35017EF5E410FF10F14F5FFD10EE20BE
:2061E000C010FF10E3B610F3B710E2BDE4F0271A10BF10D78140102712D98EF857BDE51978
:20620000C10E2434588EF8AD6E9539BDE2AA8645C658ED81A784BDE66DA688178520102794
:2062200006A4EC8813AE8815BF10D5BDEED3F610F3BDE4F06E9F10D57F10D58E10AEBDE3F4
:20624000C78D6F862AA784B610BFB710F3CC0000BDE610BDE33727173088208C140025F33D
:20626000FC10E7BDE5F326E88EF77F86FF2062A68812B710D2EC8810FD10D0108340001060
:2062800027126581452609C1582605A1881227891F128E10C8ED81A6A812A7806F808C1025
:2062A000D025F910BE10D77EE20EBDE3C486FFB710D5C608BDE4FD2706812F2605313F7EE6
:2062C000E3BDA7805A2AED7D10D5279C8EF79486013401F6106DC108240A108E107E58108E
:2062E000AEA52605C601F7106DF6106CC108240A108E106E5810AEA52605C601F7106C7DC3
:2063000010A22706BDE588BDE59C35013401F610E2F710F3BE10DE10BE10E0F610DD350166
:20632000270510FE10E33910FE10E31A04398E10AEBDE3C77EE2AD3436108E10C0A68426B7
:20634000034A2010C6088D0E260AC6088D082604C6038D0235B6A6A0812A2708A1802606EA
:206360005A26F33930015A2704312120F7812A393416C6138E10C0A680812A27045A26F77A
:206380004F4D35968D058DE82620398D37C6088D26812E2707A7805A2AF5200E8D1FC603AB
:2063A000BDE4FD2708A7805A2AF67EE2CC8D0EBDE4F08E10C04F39BDE4FD27EE395A2B516F
:2063C0006F8020F98E10A5A680B710BFBDE4F0270BE621C13A26058D3DB710BF34201F1201
:2063E0008E10C0C608A6A0A7805A26F93520A6A4815B261D8E10C03121C608BDE3B7815D1A
:206400002708A7805A2AF47EE2CC8DB17D10C027F64F39BDE4F0ECA1C13A26EB80418104E2
:2064200024E51A0439BDE4F027DD812426433121BDE4F027D28E0000BDE4FD2728803081D1
:206440000A250A81112DC08007811024BAB710D48605B710D31F10308B7A10D326F7FA1060
:20646000D41F0120D3BDE4F04F39BDE4F01027FE5B8E0000BDE4FD27EC803081091022FE52
:206480004B3402CC000ABDF704EBE089001F0120E34F3436108E00001F01CC000ABDF72451
:2064A000340431218C000026F135028B30BDE5AE313F26F535B6BDE59C862ABDE5AE108E1B
:2064C00010001F20C15022EEBDE5EE817F27048108260B313FBDE5620820080020E4BDE58D
:2064E000AE8D2BA7A0810D26D9108E10007EE59CA6A0812027FA6DA22702810D39A6A02741
:206500000881202708810D2604313F1A0439816125FB817A22F7845F395F8DD4A6802AFCE6
:20652000301F3420847F272CB710D330017A10D3A6848DDAB710D48DC42714B110D427EBDB
:20654000812F2709813D270535205C20CF313FBA10D32AF48D9A5D35908D131E898D0F1E5C
:2065600089393410AE628D20AF621A0435903402444444448D06A6E48D023582840F8B306D
:206580008139232A8B0720263402A680271E8D1E20F83410AE628DF0AF6235103402860ACB
:2065A0008D0C860D2004340286208D0235823416F6106D20023416C108240D8E107E58AE24
:2065C000852705AD844F35968EF832860A7EE2D18D0326FC393414C10824ED8E106E58AE27
:2065E0008527E5AD8435943414F6106C20E98DF726FC39340258498401C312001F013504E4
:20660000CB014F34108D093510EC841083FFFF3934028E1200B610F3B110E62608A6E41008
:20662000B310E727108D20B610F3B710E6A6E4FD10E7BDEAF835828D0E3406CCFFFFFD10E6
:20664000E7B710E64F35867D10E527C33416B610F33402B610E6B710F3FC10E78E1200BD51
:20666000EB2B7F10E53502B710F34F35968D372758108EF7AF860234037D10A22721BDE526
:20668000624572726F722070726F63657373696E672066696C653A2000BDE6EBBDE59C1F2C
:2066A0002135037EE2D1B610BFB710F3CC0000BDE610BDE33727123088208C140025F3FCF6
:2066C00010E7BDE5F326E88602398DA18D30BDE59C3088208C1400250BFC10E7BDE5F327DF
:2066E000E8BDE610BDE33726E820E134168E10BFA6808B41BDE5AE863ABDE5AE20023416B4
:20670000865BBDE5AE8D12865DBDE5AE8D0B862EBDE5AEC6038D043596C608A6802703BDDA
:20672000E5AE5A26F639B610F33450BDEB22E643A6423D1F014FE641BDF70435D0BDE3705F
:206740001026FB88BDE6A62609108EF7BE86077EE6778D6FFD10D5CC0000BDE610C6106DAD
:206760008427323088205A26F6FC10E7BDE5F326E9FC10D5ED84BDE7BA34068D46FD10D5B8
:20678000BDE64C3506FD10E78E12006F808C140025F98E12003420108E10C0C613A6A0A766
:2067A000805A26F935203088EDFC10DBED881586F0A78817FC10D5ED88137F10E57A10E56D
:2067C0001A0439BDE726FD10D38300018B0134027D10E7260EF610E8B110E82506C1012521
:2067E000028D11C6018D0D5CE1E423F98EF7D286087EE2D14F3434BDE610EC8127078C14A0
:206800000025F735B41F108312024456A6E4800110B310D324ED3261108EFFFF10AF1E3510
:2068200030326320953414BDE8BCEC8813ED42ED444F5FED48ED46F610BF8601EDC4B61075
:20684000E2B710F34F35943414304AA641B710F3EC482612A6C44A2676EC441083FFFF277D
:2068600076BDEAF8EC48308BC3000110830200250F3410EC44ED46BDE5F3ED4435104F5F27
:20688000ED48B610E2B710F3A68081FF27491A0435943414A6C44A2636A641B710F3EC443B
:2068A0001083FFFF2731ED46BDEAF8BDE5F3ED44B610E2B710F34F5FED483594BDE66DA693
:2068C000881785802635108EF81886037EE6778EF7E986047EE2D186067EE30C3406EC421D
:2068E000ED444F5FED48ED463586BDE6A62705BDE73D2007A68817854027CBFC10E71A040C
:206900003934148DE5EC8813ED42ED444F5FED48ED46B610BFA7418602A7C4B610E2B710B8
:20692000F34F35943416304AEC481083020025048D19EC48308BC30001ED48A6E4A7841A39
:206940000435968EF80086057EE2D13414A6C4810226F0A641B710F3EC441083FFFF261340
:20696000BDE7C33406EC46BDE5F33506ED84BDE7BAAE61ED46BDEB2BBDE5F3ED44B610E222
:20698000B710F34F5FED4835943414A6C481022639A641B710F3EC482604AE462617304A53
:2069A000308B1083020024096F846380C3000120F1304A8D96EC46BDE5F3CCFFFFED84EC24
:2069C000441083FFFF2703BDEE246FC4B610E2B710F34F3594BDE8DC3416E6C45A1026FE39
:2069E000EEA641B710F3EC48E3E410830200251A3406EC441083FFFF1027FEDBED46BDE559
:206A0000F3ED44350683020020E0ED48270FEC441083FFFF1027FEBF304ABDEAF8B610E2B1
:206A2000B710F34F35963430A641B710F3108E0000EC4210A344270931A90200BDE5F326F3
:206A4000F2EC483420E3E13402B610E2B710F34F35B23506FD10DBEC46AE4810AE42343675
:206A6000ECC434068102262D8C00002728A641B710F3EC441083FFFF2610BDE7C33406EC56
:206A800046BDE5F33506ED84ED44304ABDEB2BB610E2B710F3BE10DE10BE10E0F610DD4FF3
:206AA0006E9F10DB3506FD10DB3506EDC4F710F33536AF4810AF42ED46260510AF442005EC
:206AC000BDE5F3ED44EC482707EC44304ABDEAF8B610E2B710F320B234161F01A643E64296
:206AE0003DBDF7246F45E1432506E0436C4520F6E7461F10E744359634767F10F48D20EC7C
:206B0000E48DD5AE62BDF75527137C10F4F610F4C105273CC10326EBBDF74B20E235F6B682
:206B200010F3C6073DC310501F033934767F10F48DEDECE48DA2AE62BDF75927E07C10F480
:206B4000F610F4C1052709C10326EBBDF74B20E2B710D3357610B310E726123402B610F349
:206B6000B110E635022606BDE6397F10E5BDE5624572726F7220616363657373696E6720BD
:206B8000626C6F636B2000BDE492BDE562206F6E2064726976653A2000B610F38B41BDE5DB
:206BA000AEBDE59C8EEBC17A10D3270AA68026FCA68426F33001BDE588BDE59C86097EE30D
:206BC0000C4469736B20666F726D6174206572726F720042616420736563746F72005365BC
:206BE00063746F72206E6F7420666F756E64004469736B2077726974652070726F746563AD
:206C000074656400004469736B2073797374656D206572726F7200BDE637BDE413B710F355
:206C2000BDEB1FCC0203FD10DBBDE4F027288EF46EBDF1293404BDE42535024D2605F71079
:206C4000DB20E64A2605F710DC20DE4A81031022F67AE7C620D3BDE562466F726D6174740C
:206C6000696E672000B610F3BDF2768EF46E4FF610DBBDF2B58601F610DCBDF2AFBDE56289
:206C80000A0D4F6B3F2000BDE5EEBDE5AE84DF81591026F907BDE59CB610DBBDF747B610D1
:206CA000DCB710DB8E12006F808C140025F98E1200CC0000BDEB2BBDE7268300011F89FDD7
:206CC00010D9CC00027C10DA7C10DB7A10DA2708BDEB2BC3000120F37A10DB2708BDEB2B8C
:206CE000C3000120F3CCFFFFED843002108E01FECC00027C10D97A10D9270BED81313F31DC
:206D00003FC3000120F034067D10DC2703FD1200CCFFFFED81313F313FCC0001FD10D93584
:206D2000067C10DC108C000026028D1E7A10DC270BC30001ED81313F313F20E8CCFFFFED0D
:206D40001E8E1200FC10D97EEB2B34068E1200FC10D9BDEB2B108E02004FA780313F26F9C5
:206D60007C10DA8E1200108E0200350639BDE413B710F3BDE4253410BDE43034108E0001DD
:206D8000BDE4F02703BDE4251F1235103506BDEAF830890200C30001313F26F239BDE4132E
:206DA000B710F3BDE4253410BDE43034108E0001BDE4F02703BDE4251F1235103506BDEB91
:206DC0002B30890200C30001313F26F2398E10C0C6136F805A26FB862AB710C8B710D0349D
:206DE00020BDE3C4BDE4FD35202703BDE38B7EE6CAFCE002FD10DBBDE384BDE4F02706BD34
:206E0000E430BF10DB7EE73DBDE38BBDE66DBDE370262CA6881785101027FAAA6F84BDE729
:206E2000BAEC8813BDE5F3270F1083000027096F846F01BDE7BA20EC6F846F017EE7BACC68
:206E40000000BDE610BDE3372654BDE6FEA6881785102610BDE5922050726F7465637465E3
:206E60006400203ABDE5622028592F4E2F51293F00BDE5EEBDE5AEBDE59C84DF8151272EA2
:206E80008159261A6F84BDE7BA3414FC10E7FD10D5EC88138D8EFC10D5BDE6103514308833
:206EA000208C1400259FFC10E7BDE5F32694393410BDE8BCEC881335102018BDE384BDE861
:206EC000BCEC88133406AE8815BDE4F02703BDE4303506BDEAF8308902003410BDE5F335BB
:206EE0001026F039BF10DBFD10D9200FBDE384BDE430BF10DBBDE425BF10D97D10DA1027C9
:206F0000F3CABDE8EAEC8813FD10D7BE10DBBDEB2B30890200BF10DBFC10D77A10DA271952
:206F2000BDE5F326E3BDE7C33406FC10D7BDE5F33506ED84BDE7BA20CFBDE5F327A5340606
:206F4000CCFFFFED84B710E535067EEE24FC10F127041F044F39BDE5924E6F2073757370D0
:206F6000656E6465642070726F6772616D0010FE10E34F39BDF162F710D77F10DACCFFFF4F
:206F8000FD10DB4F5F3406860DBDE5AEB610DABDE56E7C10DA8D282608ACE423EAAFE420F5
:206FA000E6BDE59C3506B310DB830001444CB710DABDE4F027BCBDE3847EEEFBB710D78DF5
:206FC0005B815326FA8D55813027F4813926038606398131263E8D4AB710D88003B710D95D
:206FE0008D4034028D3C1F89ABE4BB10D8B710D835021F0110B310DB2403FD10DB8D23A7E1
:2070000080BB10D8B710D87A10D926F18D14BB10D84C271A8EF841860B7EE2D1F610D77E7F
:20702000E5D08D0B4848484834028D03AAE0398DEB80308109230A811125D98007811024AF
:20704000D339BDF162F710D7BDE5E7260C811B1027F549F610D7BDE5B5F610D7BDE5D526BC
:20706000E7BDE5AE20E28EF3E6BDE519BDE4F027778EF429586E95BDE3C4BDE4F0266934C8
:20708000368E10A520108E10AEBDE3C7BDE4F0265734368E10AE108E10BFC609A6A0A78027
:2070A0005A26F935B6BDE384BDE66D34108EF455BDF1295D260CBDE4301F103510ED8815E8
:2070C000200A5A26238D0D3510A78817BDE4F026DA7EE7BA4F34168EF0F3BDE4FD2712C667
:2070E00080A18027065426F97EE2CCEAE4E7E420E63596525745443F3F3F3FBDE637BDE410
:2071000013B710F3BDEB1F3420BDF74B35208EF48DBDF1293404BDE4251F10350281032243
:20712000C7E7C6BDE4F026E639BDE519A6A0813D26B639BDE4303410BDE4301F103510E7F0
:2071400080BDE4F026F0398EF4BCBDF129C102249734048D0D35028E106CE786BDE4F02605
:20716000E639BDE4258C00081024F45C1F10395434048EF4B4BDE51935025D270B5A1026D7
:20718000F14A3414C6FF200334145F81031024F13B8E10A23086A684E7841A0435948EF306
:2071A000E6BDE519588EF43F6E958E10A520038E10AEA6808B41BDE5AEBDE5623A5B00C6BF
:2071C00008A6802703BDE5AE5A26F6865DBDE5AE7EE59CBDE384BDE66DBDE56246696C65A7
:2071E0003A2000BDE6FEBDE5620A0D4469736B20616464726573733D00EC8813BDE492BD34
:20720000E5622C204C6F616420616464726573733D2400EC8815BDE559BDE5622C2050725E
:207220006F74656374696F6E3D00E68817108EF0F3A6A0582403BDE5AE5D26F5BDE59C10CB
:207240008E0000EC88133121BDE5F326F9BDE56246696C6520636F6E7461696E7320001FD1
:2072600020BDE492BDE59220626C6F636B2873292E0039BDE4133442BDEB22BDE562447283
:207280006976653A2000A6E48B41BDE5AEBDE59C8EF48D4FE6C48D1D8601E6418D118602E6
:2072A000E6428D0B8603E6438D0535427EE59CBDE5622C20008D08863DBDE5AE7EE4913435
:2072C000144CE6802AFCC47F270F4A26F5A6802B05BDE5AE20F74F3594860135948EF4BC81
:2072E0004FF6106C8DCF8601F6106D8DC27EE59C541F988EF3E68DC7863DBDE5AE8E10A210
:20730000A685270286018EF4B48DB47EE59CBDE4303410BDE4F02703BDE430BF10D5351092
:207320001F10BDE559C610C5032603BDE5A6BDE5A6A680BDE56E5A26EEC604BDE5A65A2696
:20734000FA3010C610A68081202504817F2502862EBDE5AE5A26EEBDE59CBDE5E72705BCE5
:2073600010D523BC4F39BDE413B710F38D3EBDE56244726976652000B610F38B41BDE5AE95
:20738000BDE562206861732000FC10D7BDE492BDE56220626C6F636B732C2000FC10D5BDCB
:2073A000E492BDE592206672656500393430BDE726FD10D71F024F5FFD10D5C601FD10D3BE
:2073C000BDE610EC8126075CF310D5FD10D5313F270D8C140025ECFC10D3C3000120DEFC58
:2073E00010D51A0435B0834D6573736167658344656275678254726163658344454641559A
:207400004C548253595354454D8246494C45824452495645834D454D4F525982434F4E53B6
:207420004F4C45824652454580F16FF16FF16FF077F086F0A5F0FBF133F147E2CCE2CCF221
:20744000F0F2F0F2F0F1AAF1AFF1D3F273F30EF2DDF366E2CC814C4F41445F4144445245DD
:2074600053538150524F54454354494F4E8081496E7465726C6561766581446972656374F2
:207480006F727920657874656E73696F6E81416464726573738143796C696E64657273819F
:2074A000486561647381536563746F72732F547261636B80824F4646824F4E8081496E703B
:2074C0007574814F7574707574803506FD10EEB610F0393121B710D5BDE3C4BDE2B2CC405D
:2074E00000ED816F80BDE66DA6881785201027F3D5B610BFB710E9EC8813FD10EA4F5FFDD8
:2075000010ECFC10EE34067F10F010BE10D7BDF60D8E1000BDF68127B1813F262DBDF68156
:20752000803081092308C63FE7808B30201C1F89108E10F5BDE4F05A2B07BDE4FD26FB203C
:20754000F3BDE4FD27CEA78020F7A780810D26C4108E10007D10A42717862ABDE5AE1F216B
:20756000A6802709810D2705BDE5AE20F3BDE59CBDE4F0813F2659ECA1BDE4F0C14F270431
:20758000C1502616A6A02709810D2705BDE5AE20F3C14F2766BDE59C2061C1462607B610B5
:2075A000F0275820CBC15326035F2009C152260CBDE4251F10F110F0264120B4C145263EDC
:2075C000BDE4F02708BDE4251F10F710F07EF4CABE10ECFC10EA3416B610E9340210FF10C5
:2075E000EEBDE1E126014FB710F010FE10EE3502B710E93516FD10EABF10EC7EF511C13D7F
:207600002707C1492618BDE4B98D0220EE34108E10F5A6A0A7802704810D26F63590C1401E
:2076200026083506FD10EE7EF4D8C1412613BDE4253001301F27C48D482792810D26F820D6
:20764000F2C14B2608BDE5EEB710F02031C13F262DBDE4F027161F21A6A0810D270E81205B
:2076600026F6A68081202708A1A027F686FF200BA6A0810D2704812026F24FB710F07EF5B9
:20768000113410B610E9B710F3FC10EC10830200250DFC10EABDE5F3271EFD10EA4F5F8E6A
:2076A0001200308BC30001FD10EC3410FC10EABDE6103510A68081FF3590B6106C2020B67B
:2076C000106D201B3404F6106CB7106C20083404F6106DB7106D1F981A043584B710F31AAC
:2076E00004393440CE106E48ECC6200C3440CE106E4833C6ECC4AFC41A0435C0CC10B73964
:20770000CC1050393416A661E6633D3406A662E6653DEBE4E7E4A663E6643DEBE4E7E4356A
:20772000063264393416CC00008E00111CFE69636962301F270D594910A3E425EFA3E41A9D
:207740000120EB32623590AD9F10946F446F456F466E9F108E6E9F10906E9F10926E9F1094
:20776000966E9F10986E9F109A6E9F109C6E9F109E6E9F10A0535441525455502E2A0055F6
:207780006E7265636F676E697A656420636F6D6D616E64004F706572616E64206D697373AD
:2077A000696E67206F7220696E76616C69640046696C65206E6F7420666F756E64004669A7
:2077C0006C6520616C72656164792065786973747300496E737566666963656E74206469AB
:2077E000736B2073706163650046696C65206E6F74206F70656E20666F7220726561640099
:2078000046696C65206E6F74206F70656E20666F722077726974650046696C652070726F02
:2078200074656374696F6E2076696F6C6174696F6E00496E76616C69642064657669636506
:2078400000446F776E6C6F616420666F726D6174206572726F720084464F524D41548252DC
:207860004541448257524954458246494C4553824352454154458344454C455445824C4FB3
:20788000414482534156458252554E8252455455524E825345548253484F5782444F574EEE
:2078A0004C4F414482434F4E4E45435480EC17ED6DED9DEDCDEDF1EE08EEBBEEECE20BEFC8
:2078C0004DF066F19EEF74F042E1C0E4B9E4B6E4BEE4F0E4FDE46AE430E425E38BE384E290
:2078E000AAE32EE331E3C4E3C7E413F0D4E519E337E370E5A6E59CE588E562E592E492E5B0
:2079000059E56EE57CE6EBE6FEF2BFE5AEE5EEE5E7E5B5E5D0E5D5F6BAF6BFF6C4F6CEE2F4
:20792000CCE671E8C6E8CFE943E749E7ECE5C8F014E677EEAFEEE4E825E901E989E892E848
:2079400047E94BE924E8DCE9D8E9D5EA26EA52EAA4E6A6E66DE8BCE8EAE73DEE0BF07FF0B1
:2079600091F6DCE5F3EED3E7C3EE24E729E726F3ACE610E7BAE647E64CE637EB22EB1FEA7F
:20798000D8EAF8EB2BE6CAE004F74BF755F759F747E1E1E1D6F6E2F6ECF182F188F60DF74E
:2079A00004F724E08AEFBCF6FCF70086F0B7DF548EFF09C66FA680A7A05A26F986F1B7DF8C
:2079C000548600B7010086F2B7DF54BDFA9CC602BD0200C612BD0200C615BD0200C61BBD0A
:2079E000020039C6007E0200C601BD020081FF27031A043986FF3986FF393939BDFA7584E1
:207A0000F08110260DC613BD02008D18B601F78100398120260DC616BD02008D07B601F75C
:207A2000810039393420108E0000A6A90300A7803121108C020026F23520393420108E0060
:207A400000A680A7A903003121108C020026F23520BDFA7584F08110260BC614BD0200B69F
:207A600001F78100398120260BC617BD0200B601F7810039393420A645B701F8A644B701B4
:207A8000F9A646B701FA4FE6C4581F02A6A910B7E6A910B8B701FBF701FC35A08602B7DFD6
:207AA000548E0000A689FAB4A789020030018C010026F139FD02F8BF02FA10BF02FCFF0247
:207AC000F610FF02FE10CE02F58684B7DF518685B7DF52BD88008681B7DF518682B7DF52C5
:127AE00010FE02FEBE02FA10BE02FCFE02F6FC02F839DB
:207F00003B03000200000304010050020900000001FF01FF00000002FF01FF00000003FFBB
:207F200001FF0000000101F9F7F9E8000000000000000000000000F9F9F9E30000000000A0
:207F400000000000000000F9FBF9FCFA3BF9FAE00BFF00FF00FF00FF00FF00FF0000034DDB
:187F600041494E000000000153595354454D0000000000000001000248
:0E7FF200F765F761F76DF769F75DF771E10864
:00000001FF
