S0220000687474703A2F2F737265636F72642E736F75726365666F7267652E6E65742F1D
S12301008680B7DF508681B7DF518682B7DF528683B7DF53860BB7DF5C8E0200108EE0008E
S1230120A680A7A0108C000026F68685B7DF528E2300108E8000A680A7A0108CBF0026F6F0
S12301408603B7DF537EE0008680B7DF508681B7DF518682B7DF528683B7DF538601B7DFF2
S1070160547EE108DC
S1230200FFFF2000108E10507EF997F710DDBF10DE10BF10E0F610F3F710E2316AAEA4E6AB
S123022080AFA4C1712437588EF8B53AEC84FD10D310BF10E3B610A32606357F6E9F10D342
S1230240BDE54E5353522000AEA4E61FBDE47DBDE54E202D2000357F8D336E9F10D31F2419
S1230260BDE54E496E76616C6964205353522000BDE47DBDE54E206174202400ECE18300F4
S123028002BDE545BDE5887EE1C68D01393407BDE54E50433D00EC65830002BDE545BDE501
S12302A04E2043433D00A6E4BDE55ABDE54E2044503D001FB8BDE55ABDE54E20413D00A69B
S12302C061BDE55ABDE54E20423D00A662BDE55ABDE54E20583D001F10BDE545BDE54E205F
S12302E0593D001F20BDE545BDE54E20553D001F30BDE545BDE54E20533D001F40C300079D
S1230300BDE545BDE588358710CE12008E10006F808C120025F9BDE004BDE6257F10F4BD2A
S1230320E57E0A43554249582076657273696F6E20312E350A0D0A436F707972696768741D
S123034020313938332D3230303520446176652044756E6669656C640A0D416C6C2072699A
S1230360676874732072657365727665640A0D00B610F42618108EF761BDE377CEE18D34B7
S12303804010FF10E3BDE69226037EE25B10CE1200BDE633BDE4A58D3427F21F89BDE54E80
S12303A052633D00BDE47DBDE58820E134018E0000BF10F1BE10EE2604350120DC35017EAF
S12303C0F5D010FF10F14F5FFD10EE20C010FF10E3B610F3B710E2BDE4DC271A10BF10D7E3
S12303E08140102712D98EF843BDE505C10E2434588EF8996E9539BDE2968645C658ED8140
S1230400A784BDE659A688178520102706A4EC8813AE8815BF10D5BDEEBFF610F3BDE4DC90
S12304206E9F10D57F10D58E10AEBDE3B38D6F862AA784B610BFB710F3CC0000BDE5FCBD86
S1230440E32327173088208C140025F3FC10E7BDE5DF26E88EF76B86FF2062A68812B71044
S1230460D2EC8810FD10D0108340001027126581452609C1582605A1881227891F128E10D1
S1230480C8ED81A6A812A7806F808C10D025F910BE10D77EE1FABDE3B086FFB710D5C608D5
S12304A0BDE4E92706812F2605313F7EE3A9A7805A2AED7D10D5279C8EF78086013401F6B8
S12304C0106DC108240A108E107E5810AEA52605C601F7106DF6106CC108240A108E106ED2
S12304E05810AEA52605C601F7106C7D10A22706BDE574BDE58835013401F610E2F710F3EF
S1230500BE10DE10BE10E0F610DD3501270510FE10E33910FE10E31A04398E10AEBDE3B3F7
S12305207EE2993436108E10C0A68426034A2010C6088D0E260AC6088D082604C6038D029B
S123054035B6A6A0812A2708A18026065A26F33930015A2704312120F7812A393416C6136D
S12305608E10C0A680812A27045A26F74F4D35968D058DE82620398D37C6088D26812E279E
S123058007A7805A2AF5200E8D1FC603BDE4E92708A7805A2AF67EE2B88D0EBDE4DC8E10E5
S12305A0C04F39BDE4E927EE395A2B516F8020F98E10A5A680B710BFBDE4DC270BE621C1D3
S12305C03A26058D3DB710BF34201F128E10C0C608A6A0A7805A26F93520A6A4815B261D0D
S12305E08E10C03121C608BDE3A3815D2708A7805A2AF47EE2B88DB17D10C027F64F39BD85
S1230600E4DCECA1C13A26EB8041810424E51A0439BDE4DC27DD812426433121BDE4DC2752
S1230620D28E0000BDE4E927288030810A250A81112DC08007811024BAB710D48605B710B1
S1230640D31F10308B7A10D326F7FA10D41F0120D3BDE4DC4F39BDE4DC1027FE5B8E0000CE
S1230660BDE4E927EC803081091022FE4B3402CC000ABDF6F0EBE089001F0120E34F343645
S1230680108E00001F01CC000ABDF710340431218C000026F135028B30BDE59A313F26F518
S12306A035B6BDE588862ABDE59A108E10001F20C15022EEBDE5DA817F27048108260B3195
S12306C03FBDE54E0820080020E4BDE59A8D2BA7A0810D26D9108E10007EE588A6A081206B
S12306E027FA6DA22702810D39A6A0270881202708810D2604313F1A0439816125FB817A15
S123070022F7845F395F8DD4A6802AFC301F3420847F272CB710D330017A10D3A6848DDAE2
S1230720B710D48DC42714B110D427EB812F2709813D270535205C20CF313FBA10D32AF452
S12307408D9A5D35908D131E898D0F1E89393410AE628D20AF621A0435903402444444444E
S12307608D06A6E48D023582840F8B308139232A8B0720263402A680271E8D1E20F834103D
S1230780AE628DF0AF6235103402860A8D0C860D2004340286208D0235823416F6106D205D
S12307A0023416C108240D8E107E58AE852705AD844F35968EF81E860A7EE2BD8D0326FCCE
S12307C0393414C10824ED8E106E58AE8527E5AD8435943414F6106C20E98DF726FC393447
S12307E00258498401C312001F013504CB014F34108D093510EC841083FFFF3934028E1255
S123080000B610F3B110E62608A6E410B310E727108D20B610F3B710E6A6E4FD10E7BDEA93
S1230820E435828D0E3406CCFFFFFD10E7B710E64F35867D10E527C33416B610F33402B684
S123084010E6B710F3FC10E78E1200BDEB177F10E53502B710F34F35968D372758108EF73B
S12308609B860234037D10A22721BDE54E4572726F722070726F63657373696E672066695D
S12308806C653A2000BDE6D7BDE5881F2135037EE2BDB610BFB710F3CC0000BDE5FCBDE3A7
S12308A02327123088208C140025F3FC10E7BDE5DF26E88602398DA18D30BDE58830882018
S12308C08C1400250BFC10E7BDE5DF27E8BDE5FCBDE32326E820E134168E10BFA6808B41B8
S12308E0BDE59A863ABDE59A20023416865BBDE59A8D12865DBDE59A8D0B862EBDE59AC627
S1230900038D043596C608A6802703BDE59A5A26F639B610F33450BDEB0EE643A6423D1F0B
S1230920014FE641BDF6F035D0BDE35C1026FB88BDE6922609108EF7AA86077EE6638D6FEC
S1230940FD10D5CC0000BDE5FCC6106D8427323088205A26F6FC10E7BDE5DF26E9FC10D575
S1230960ED84BDE7A634068D46FD10D5BDE6383506FD10E78E12006F808C140025F98E12D2
S1230980003420108E10C0C613A6A0A7805A26F935203088EDFC10DBED881586F0A78817AB
S12309A0FC10D5ED88137F10E57A10E51A0439BDE712FD10D38300018B0134027D10E7261A
S12309C00EF610E8B110E82506C10125028D11C6018D0D5CE1E423F98EF7BE86087EE2BD30
S12309E04F3434BDE5FCEC8127078C140025F735B41F108312024456A6E4800110B310D34D
S1230A0024ED3261108EFFFF10AF1E3530326320953414BDE8A8EC8813ED42ED444F5FEDEF
S1230A2048ED46F610BF8601EDC4B610E2B710F34F35943414304AA641B710F3EC482612F1
S1230A40A6C44A2676EC441083FFFF2776BDEAE4EC48308BC3000110830200250F3410ECAD
S1230A6044ED46BDE5DFED4435104F5FED48B610E2B710F3A68081FF27491A04359434147A
S1230A80A6C44A2636A641B710F3EC441083FFFF2731ED46BDEAE4BDE5DFED44B610E2B7B9
S1230AA010F34F5FED483594BDE659A6881785802635108EF80486037EE6638EF7D5860414
S1230AC07EE2BD86067EE2F83406EC42ED444F5FED48ED463586BDE6922705BDE729200752
S1230AE0A68817854027CBFC10E71A043934148DE5EC8813ED42ED444F5FED48ED46B6102F
S1230B00BFA7418602A7C4B610E2B710F34F35943416304AEC481083020025048D19EC482D
S1230B20308BC30001ED48A6E4A7841A0435968EF7EC86057EE2BD3414A6C4810226F0A655
S1230B4041B710F3EC441083FFFF2613BDE7AF3406EC46BDE5DF3506ED84BDE7A6AE61ED6A
S1230B6046BDEB17BDE5DFED44B610E2B710F34F5FED4835943414A6C481022639A641B77A
S1230B8010F3EC482604AE462617304A308B1083020024096F846380C3000120F1304A8D16
S1230BA096EC46BDE5DFCCFFFFED84EC441083FFFF2703BDEE106FC4B610E2B710F34F35EE
S1230BC094BDE8C83416E6C45A1026FEEEA641B710F3EC48E3E410830200251A3406EC44C6
S1230BE01083FFFF1027FEDBED46BDE5DFED44350683020020E0ED48270FEC441083FFFF7F
S1230C001027FEBF304ABDEAE4B610E2B710F34F35963430A641B710F3108E0000EC42107A
S1230C20A344270931A90200BDE5DF26F2EC483420E3E13402B610E2B710F34F35B23506CF
S1230C40FD10DBEC46AE4810AE423436ECC434068102262D8C00002728A641B710F3EC44AA
S1230C601083FFFF2610BDE7AF3406EC46BDE5DF3506ED84ED44304ABDEB17B610E2B710E4
S1230C80F3BE10DE10BE10E0F610DD4F6E9F10DB3506FD10DB3506EDC4F710F33536AF485E
S1230CA010AF42ED46260510AF442005BDE5DFED44EC482707EC44304ABDEAE4B610E2B701
S1230CC010F320B234161F01A643E6423DBDF7106F45E1432506E0436C4520F6E7461F1076
S1230CE0E744359634767F10F48D20ECE48DD5AE62BDF74127137C10F4F610F4C105273C0C
S1230D00C10326EBBDF73720E235F6B610F3C6073DC310501F033934767F10F48DEDECE42A
S1230D208DA2AE62BDF74527E07C10F4F610F4C1052709C10326EBBDF73720E2B710D3356F
S1230D407610B310E726123402B610F3B110E635022606BDE6257F10E5BDE54E4572726F6A
S1230D607220616363657373696E6720626C6F636B2000BDE47EBDE54E206F6E2064726977
S1230D8076653A2000B610F38B41BDE59ABDE5888EEBAD7A10D3270AA68026FCA68426F3F0
S1230DA03001BDE574BDE58886097EE2F84469736B20666F726D6174206572726F72004217
S1230DC0616420736563746F7200536563746F72206E6F7420666F756E64004469736B20D2
S1230DE077726974652070726F74656374656400004469736B2073797374656D2065727221
S1230E006F7200BDE623BDE3FFB710F3BDEB0BCC0203FD10DBBDE4DC27288EF45ABDF115F7
S1230E203404BDE41135024D2605F710DB20E64A2605F710DC20DE4A81031022F67AE7C6BA
S1230E4020D3BDE54E466F726D617474696E672000B610F3BDF2628EF45A4FF610DBBDF2EB
S1230E60A18601F610DCBDF29BBDE54E0A0D4F6B3F2000BDE5DABDE59A84DF81591026F9D6
S1230E8007BDE588B610DBBDF733B610DCB710DB8E12006F808C140025F98E1200CC000098
S1230EA0BDEB17BDE7128300011F89FD10D9CC00027C10DA7C10DB7A10DA2708BDEB17C3F7
S1230EC0000120F37A10DB2708BDEB17C3000120F3CCFFFFED843002108E01FECC00027C7C
S1230EE010D97A10D9270BED81313F313FC3000120F034067D10DC2703FD1200CCFFFFEDBB
S1230F0081313F313FCC0001FD10D935067C10DC108C000026028D1E7A10DC270BC300014B
S1230F20ED81313F313F20E8CCFFFFED1E8E1200FC10D97EEB1734068E1200FC10D9BDEB16
S1230F4017108E02004FA780313F26F97C10DA8E1200108E0200350639BDE3FFB710F3BDA1
S1230F60E4113410BDE41C34108E0001BDE4DC2703BDE4111F1235103506BDEAE430890254
S1230F8000C30001313F26F239BDE3FFB710F3BDE4113410BDE41C34108E0001BDE4DC2745
S1230FA003BDE4111F1235103506BDEB1730890200C30001313F26F2398E10C0C6136F80A2
S1230FC05A26FB862AB710C8B710D03420BDE3B0BDE4E935202703BDE3777EE6B6FCE00200
S1230FE0FD10DBBDE370BDE4DC2706BDE41CBF10DB7EE729BDE377BDE659BDE35C262CA64F
S1231000881785101027FAAA6F84BDE7A6EC8813BDE5DF270F1083000027096F846F01BD5F
S1231020E7A620EC6F846F017EE7A6CC0000BDE5FCBDE3232654BDE6EAA688178510261061
S1231040BDE57E2050726F74656374656400203ABDE54E2028592F4E2F51293F00BDE5DAD6
S1231060BDE59ABDE58884DF8151272E8159261A6F84BDE7A63414FC10E7FD10D5EC881381
S12310808D8EFC10D5BDE5FC35143088208C1400259FFC10E7BDE5DF2694393410BDE8A835
S12310A0EC881335102018BDE370BDE8A8EC88133406AE8815BDE4DC2703BDE41C3506BD63
S12310C0EAE4308902003410BDE5DF351026F039BF10DBFD10D9200FBDE370BDE41CBF10CF
S12310E0DBBDE411BF10D97D10DA1027F3CABDE8D6EC8813FD10D7BE10DBBDEB1730890253
S123110000BF10DBFC10D77A10DA2719BDE5DF26E3BDE7AF3406FC10D7BDE5DF3506ED8473
S1231120BDE7A620CFBDE5DF27A53406CCFFFFED84B710E535067EEE10FC10F127041F0402
S12311404F39BDE57E4E6F2073757370656E6465642070726F6772616D0010FE10E34F399A
S1231160BDF14EF710D77F10DACCFFFFFD10DB4F5F3406860DBDE59AB610DABDE55A7C1097
S1231180DA8D282608ACE423EAAFE420E6BDE5883506B310DB830001444CB710DABDE4DC23
S12311A027BCBDE3707EEEE7B710D78D5B815326FA8D55813027F481392603860639813163
S12311C0263E8D4AB710D88003B710D98D4034028D3C1F89ABE4BB10D8B710D835021F0172
S12311E010B310DB2403FD10DB8D23A780BB10D8B710D87A10D926F18D14BB10D84C271ACA
S12312008EF82D860B7EE2BDF610D77EE5BC8D0B4848484834028D03AAE0398DEB80308183
S123122009230A811125D98007811024D339BDF14EF710D7BDE5D3260C811B1027F549F614
S123124010D7BDE5A1F610D7BDE5C126E7BDE59A20E28EF3D2BDE505BDE4DC27778EF41529
S1231260586E95BDE3B0BDE4DC266934368E10A520108E10AEBDE3B3BDE4DC265734368E45
S123128010AE108E10BFC609A6A0A7805A26F935B6BDE370BDE65934108EF441BDF1155D4C
S12312A0260CBDE41C1F103510ED8815200A5A26238D0D3510A78817BDE4DC26DA7EE7A6C3
S12312C04F34168EF0DFBDE4E92712C680A18027065426F97EE2B8EAE4E7E420E635965276
S12312E05745443F3F3F3FBDE623BDE3FFB710F3BDEB0B3420BDF73735208EF479BDF115EA
S12313003404BDE4111F103502810322C7E7C6BDE4DC26E639BDE505A6A0813D26B639BD20
S1231320E41C3410BDE41C1F103510E780BDE4DC26F0398EF4A8BDF115C102249734048DD1
S12313400D35028E106CE786BDE4DC26E639BDE4118C00081024F45C1F10395434048EF4CC
S1231360A0BDE50535025D270B5A1026F14A3414C6FF200334145F81031024F13B8E10A296
S12313803086A684E7841A0435948EF3D2BDE505588EF42B6E958E10A520038E10AEA6803D
S12313A08B41BDE59ABDE54E3A5B00C608A6802703BDE59A5A26F6865DBDE59A7EE588BD05
S12313C0E370BDE659BDE54E46696C653A2000BDE6EABDE54E0A0D4469736B206164647216
S12313E06573733D00EC8813BDE47EBDE54E2C204C6F616420616464726573733D2400ECAC
S12314008815BDE545BDE54E2C2050726F74656374696F6E3D00E68817108EF0DFA6A05814
S12314202403BDE59A5D26F5BDE588108E0000EC88133121BDE5DF26F9BDE54E46696C651C
S123144020636F6E7461696E7320001F20BDE47EBDE57E20626C6F636B2873292E0039BD58
S1231460E3FF3442BDEB0EBDE54E44726976653A2000A6E48B41BDE59ABDE5888EF4794F10
S1231480E6C48D1D8601E6418D118602E6428D0B8603E6438D0535427EE588BDE54E2C207E
S12314A0008D08863DBDE59A7EE47D34144CE6802AFCC47F270F4A26F5A6802B05BDE59A25
S12314C020F74F3594860135948EF4A84FF6106C8DCF8601F6106D8DC27EE588541F988E75
S12314E0F3D28DC7863DBDE59A8E10A2A685270286018EF4A08DB47EE588BDE41C3410BDA9
S1231500E4DC2703BDE41CBF10D535101F10BDE545C610C5032603BDE592BDE592A680BD0F
S1231520E55A5A26EEC604BDE5925A26FA3010C610A68081202504817F2502862EBDE59A65
S12315405A26EEBDE588BDE5D32705BC10D523BC4F39BDE3FFB710F38D3EBDE54E44726913
S123156076652000B610F38B41BDE59ABDE54E206861732000FC10D7BDE47EBDE54E2062CB
S12315806C6F636B732C2000FC10D5BDE47EBDE57E206672656500393430BDE712FD10D7C6
S12315A01F024F5FFD10D5C601FD10D3BDE5FCEC8126075CF310D5FD10D5313F270D8C143D
S12315C00025ECFC10D3C3000120DEFC10D51A0435B0834D657373616765834465627567BF
S12315E08254726163658344454641554C548253595354454D8246494C45824452495645E9
S1231600834D454D4F525982434F4E534F4C45824652454580F15BF15BF15BF063F072F028
S123162091F0E7F11FF133E2B8E2B8F2DCF2DCF2DCF196F19BF1BFF25FF2FAF2C9F352E28A
S1231640B8814C4F41445F414444524553538150524F54454354494F4E8081496E7465723D
S12316606C65617665814469726563746F727920657874656E73696F6E8141646472657352
S1231680738143796C696E6465727381486561647381536563746F72732F547261636B8037
S12316A0824F4646824F4E8081496E707574814F7574707574803506FD10EEB610F03931B1
S12316C021B710D5BDE3B0BDE29ECC4000ED816F80BDE659A6881785201027F3D5B610BFE9
S12316E0B710E9EC8813FD10EA4F5FFD10ECFC10EE34067F10F010BE10D7BDF5F98E100060
S1231700BDF66D27B1813F262DBDF66D803081092308C63FE7808B30201C1F89108E10F587
S1231720BDE4DC5A2B07BDE4E926FB20F3BDE4E927CEA78020F7A780810D26C4108E1000D4
S12317407D10A42717862ABDE59A1F21A6802709810D2705BDE59A20F3BDE588BDE4DC8163
S12317603F2659ECA1BDE4DCC14F2704C1502616A6A02709810D2705BDE59A20F3C14F275F
S123178066BDE5882061C1462607B610F0275820CBC15326035F2009C152260CBDE4111F05
S12317A010F110F0264120B4C145263EBDE4DC2708BDE4111F10F710F07EF4B6BE10ECFC1D
S12317C010EA3416B610E9340210FF10EEBDE1CD26014FB710F010FE10EE3502B710E9350F
S12317E016FD10EABF10EC7EF4FDC13D2707C1492618BDE4A58D0220EE34108E10F5A6A03A
S1231800A7802704810D26F63590C14026083506FD10EE7EF4C4C1412613BDE4113001301A
S12318201F27C48D482792810D26F820F2C14B2608BDE5DAB710F02031C13F262DBDE4DCC0
S123184027161F21A6A0810D270E812026F6A68081202708A1A027F686FF200BA6A0810D69
S12318602704812026F24FB710F07EF4FD3410B610E9B710F3FC10EC10830200250DFC1093
S1231880EABDE5DF271EFD10EA4F5F8E1200308BC30001FD10EC3410FC10EABDE5FC3510BA
S12318A0A68081FF3590B6106C2020B6106D201B3404F6106CB7106C20083404F6106DB772
S12318C0106D1F981A043584B710F31A04393440CE106E48ECC6200C3440CE106E4833C601
S12318E0ECC4AFC41A0435C0CC10B739CC1050393416A661E6633D3406A662E6653DEBE40D
S1231900E7E4A663E6643DEBE4E7E435063264393416CC00008E00111CFE69636962301F0F
S1231920270D594910A3E425EFA3E41A0120EB32623590AD9F10946F446F456F466E9F10F3
S12319408E6E9F10906E9F10926E9F10966E9F10986E9F109A6E9F109C6E9F109E6E9F10E9
S1231960A0535441525455502E2A00556E7265636F676E697A656420636F6D6D616E64004C
S12319804F706572616E64206D697373696E67206F7220696E76616C69640046696C6520B8
S12319A06E6F7420666F756E640046696C6520616C72656164792065786973747300496E9D
S12319C0737566666963656E74206469736B2073706163650046696C65206E6F74206F7055
S12319E0656E20666F7220726561640046696C65206E6F74206F70656E20666F72207772BA
S1231A006974650046696C652070726F74656374696F6E2076696F6C6174696F6E00496EED
S1231A2076616C69642064657669636500446F776E6C6F616420666F726D617420657272B8
S1231A406F720084464F524D415482524541448257524954458246494C4553824352454117
S1231A6054458344454C455445824C4F414482534156458252554E8252455455524E825392
S1231A8045548253484F5782444F574E4C4F414482434F4E4E45435480EC03ED59ED89ED68
S1231AA0B9EDDDEDF4EEA7EED8E1F7EF39F052F18AEF60F02EE1ACE4A5E4A2E4AAE4DCE46B
S1231AC0E9E456E41CE411E377E370E296E31AE31DE3B0E3B3E3FFF0C0E505E323E35CE5F9
S1231AE092E588E574E54EE57EE47EE545E55AE568E6D7E6EAF2ABE59AE5DAE5D3E5A1E551
S1231B00BCE5C1F6A6F6ABF6B0F6BAE2B8E65DE8B2E8BBE92FE735E7D8E5B4F000E663EEFF
S1231B209BEED0E811E8EDE975E87EE833E937E910E8C8E9C4E9C1EA12EA3EEA90E692E67F
S1231B4059E8A8E8D6E729EDF7F06BF07DF6C8E5DFEEBFE7AFEE10E715E712F398E5FCE713
S1231B60A6E633E638E623EB0EEB0BEAC4EAE4EB17E6B6E004F737F741F745F733E1CDE133
S1231B80C2F6CEF6D8F16EF174F5F9F6F0F710E08AEFA8F6E8F6EC8EFF09C66FA680A7A055
S1231BA05A26F98600B70100BDFA79C602BD0200C612BD0200C615BD0200C61BBD020039A9
S1231BC0C6007E0200C601BD020081FF27031A043986FF3986FF393939BDFA5284F0811038
S1231BE0260DC613BD02008D18B601F78100398120260DC616BD02008D07B601F78100399E
S1231C00393420108E0000A6A90300A7803121108C020026F23520393420108E0000A6806E
S1231C20A7A903003121108C020026F23520BDFA5284F08110260BC614BD0200B601F781E9
S1231C4000398120260BC617BD0200B601F7810039393420A645B701F8A644B701F9A646C2
S1231C60B701FA4FE6C4581F02A6A910B7E6A910B8B701FBF701FC35A08E0000A689FA8C10
S1231C80A789020030018C010026F139FD02F8BF02FA10BF02FCFF02F610FF02FE10CE029B
S1231CA0F5868CB705781212BD8800868EB7057810FE02FEBE02FA10BE02FCFE02F6FC02AC
S1051CC0F839ED
S12321003B03000200000304010050020900000001FF01FF00000002FF01FF00000003FF15
S123212001FF0000000101F9D4F9C5000000000000000000000000F9D6F9C0000000000086
S123214000000000000000F9D8F9D9FA18F9D7E00BFF00FF00FF00FF00FF00FF0000034DC1
S11B216041494E000000000153595354454D000021002100210121021E
S11121F2F751F74DF759F755F749F75DE10836
S12323005886001F01EC898813FD01FEFC02F86E9F01FE885E8870885D888D888D888D8823
S12323208D888D888D888D888D888D888D888D888D888D888D888D888D888D888D888D8849
S12323408D888D888D888D888D888D888D888D888D888D888D888D888D888D888D39860502
S1232360B7DF54F6DF5DC420C10027F7B7DF58398606B7DF54B6DF5D840181002709B6DF20
S123238058B702F81A043986FFB702F83939860A8D35860D8D31393406A68027048D2820F5
S12323A0F83506398D071E898D031E89393402444444448D06A6E48D023582840F8B30818A
S12323C03923048B0720007E885E34043402588600F601001F01EC898813FD01FE3502AD30
S10923E09F01FE350439E3
S50300E814
