S10D20004F1F8B10CE21087E34D34D
S123270A10CE21088E0003A6893962A18927252606301F26F2200986107E350C454E4400EB
S123272A8E00006F808C006025F90C118E240A86FFA7808C254A25F98E255A6F808C25FABF
S123274A25F9BD36B5CC0000DD4CCC3E0ADD4ABD36C5B63E0E4C970B8B3E970EC6DCD00EDF
S123276A2304C10824044FBD350CC1A02502C6A0D70C8E240A3A3A9F0FB63E0B8A08B73EB1
S123278A0B84029750FC3E10DD14FC3E16C33E0ADD21FC3E22C33E0ADD25FC3E12C33E0A5F
S12327AADD23960B973FBD36C50A3F26F9CE2408DF27BD34B3035EB63498B73E1B0A590A70
S12327CA590F01BD309B9700102A00A481B0256F81C0255BBD309B97410F42200696414809
S12327EA48974184C02605BD28BA201081402605BD28B2200781802619BD28D1D6428E0027
S123280A023ADC3FED840C010C420C429642810825CBD600C1E01025007CC41FC10C2505E6
S123282A8601BD350C8E2A2C583AAD947E27C78E29BED600C40FC10E25EE8602BD350C84D8
S123284A302605BD28BA201581102605BD28B2200C812027058603BD350CBD28D1DC3FDDBA
S123286A020C018E29DAD600C40FC11024E720B884402605BD28B22003BD28D1DC3FDD02F4
S123288A0C01960084202605BD28B22003BD28D1DC3FDD040C018E29FAD600C41FC11910EB
S12328AA25FF858604BD350CBD309B97400F3F39BD309B3402BD309B97403502973F394D43
S12328CA260BBD2936205ABD309B4D275F8110240D4A488E260A1F893AEC84DD3F3980107F
S12328EA9E211F893A20F14D261D3706118324082245202D4F97400F3F9E3F3410BD309BBA
S123290A35109F3F4D271A8110240D4A481F898E260A3ADC3FED843980109E211F893A20EE
S123292AF1DC3F36061183220A2511393706DD3F1183240822013986057E350C86067E3514
S123294A0CBD309B4D2A0E84402603BD309B39BD309B4D2AF285402708843F97400F3F20B5
S123296A13843F852027028AE03402BD309B97403502973FDC3F102700C8830001102700C4
S123298AB9830001DD3F973E5F4859D73D96401CFE991524060C3E26020C3D9715DC3D2778
S12329AA12963E1CFE99149714963D9913840197130F18392A442A4C2A4F2A6D2A6C3726BC
S12329CA377934C52A7429363525359D35D52A7C2AC92AD22ADB2AF92B092B1B2B332B3F0E
S11929EA285F2B492B892B9D2BD72BE12BEB2BF328AD2E182BFCD8
S1232A002C062C102C192C3C2C4C2C592C642C6C2C7D2C8B2C9B2CA42CCA2CDD2CF02D34FF
S1232A202D582D782D812D872DA62DAB2E402EB12EC32ED12F702F072F0C2F472F632F686F
S1232A402A6C2A6CC6014FDD027E2B9D5F20F79613971ADC14DD1B0F1FBD3197961A971346
S1232A60DC1BDD14961F9718DC1DDD16398DE0BD359D20D0BD2936DD027E2B9DBD3551FC75
S1232A803E24DD044F5FDD02DD06DD3F08050904090786409740BD317F8606B730D6BD30F9
S1232AA0CC5F9903970324020C02DC1B10930426ED961A910726E7860BB730D6FC3E2610B9
S1232AC093021027FE937E294BDC021027FE8A7E294B9603BD33E1C60520079603BD33E14E
S1232AE0C6069E3FA685974034020F3FBD290335024D1027FE557E29599603BD33E19E3F65
S1232B00A60497400F3F7E2903DC02C33E0A830001DD3F5FBD339B4C7E28FF9603BD28C98D
S1232B20DC3FC30001DD3F34069603BD28F13506DD3F399603BD28C9DC3F83000120E6DC95
S1232B4002DD3FBD317F7E31979603BD33E19E3FA60427343410BD33E19E3FA606910326FC
S1232B600C35103410A6059E3FA7062015BD33E19E3FA605910326F535103410A6059E3F39
S1232B80A70535106F046F05399603BD33E19E3FEC07C30001DD3FBD317F7E3197DE27BD91
S1232BA02936D73D43913D26295D270E8E260A583ABD2936ED830A3D26F7BD2936DD13BDA3
S1232BC02936D715BD2936DD270F18DC02DD3F7E2903860F7E350CDC02830001DD3F7E2942
S1232BE08BDC02DD3FBD31887E31979603BD28C97E2903DC024353DD3F7E2903DC02DD3F6B
S1232C00DC04DD3D201EDC02DD3DDC04DD3F2014BD2B33DC04DD3D200BBD2B1BDC3FDD3DD8
S1232C20DC04DD3F8D0525217E294B963D983F2A05963D913F39DC3F10933D399603BD3358
S1232C40E19E3F9605A10426DF7E2959DC049402D40310930427F220CFDC029A04DA05DD39
S1232C603F7E2903DC029404D40520F3BD33B3DC3D9443973DD444DA3D26CE20ABBD33B30D
S1232C809E3FDC3D9A43DA44ED8439BD33B39E3FDC434353943DD43EED8439DC04DD3F9641
S1232CA0037E28F1BD2B499603BD33E19E3F34109605A704BD33E19E3FA606973D9603A706
S1232CC0063510963D2702A7053908050904DC04D302DD3FBD317FBD30927E2903DC02D392
S1232CE004DD3FBD317FBD30CC97400F3F7E2903BD337EBD3393910527182505BD33A82013
S1232D00F2FC3E14C33E0A1F01D6055A583AEC84201DBD339B5C4D2710810127058607BD6D
S1232D20350C9E3F3AEC8420069E3F3AE6844FDD3F7E2903BD337EBD33939105270910251F
S1232D40FBBCBD33A820F00C4026020C3F4FD33F833E0ADD3F7E2903BD337E96052713BD5F
S1232D603393910527091025FB94BD33A820F0BD33A8BD33937E28FFDC02D304DD3F7E291F
S1232D8003DC02930420F58E00114F5FDD4706470648060406052406DC02D347DD47301FEC
S1232DA026ECDC0420D68D097E29038D04DC3D20CBDC02DD3FDC04DD3D963F9746983D9740
S1232DC0450D3F2A028D190D3D2A028D0C8D180D452A028D0B0D462A064F5F933DDD3D396E
S1232DE04F5F933FDD3F39DC3D27288E00104F5FDD470940093F09480947DC47933D2505D3
S1232E00DD474320014F301F26E80940093FDC47DD3D398608BD350C0A0126058609BD3530
S1232E200CDC0210930427150A01270E109306270C0A01270510930827037E294B7E2959A7
S1232E40DC0226037E2D7CDC27BD292DD615BD292DDC13BD292D4F08030902499713DC02F4
S1232E60DD140F18BD309B97419742271E8E260AEC843410BD292DBD309B3402BD309B1FCE
S1232E808935023510ED810A4126E50A012717DC04FD260A0A01270EDC06FD260C0A01278C
S1232EA005DC08FD260ED6421F9843BD292DDF273908050904DC04D302C33E0A1F01DC06B4
S1232EC0ED8439DC04D302C33E0A1F019607A78439BD337EBD33939105270C2405860ABD33
S1232EE0350CBD33A820EDBD339B5C4D271181012705860BBD350C9E3F3ADC06ED84399606
S1232F00079E3F3AA7843996037E3559DC02DD3FDC3F2A08862DBD3559BD2DE00F43DC3F0A
S1232F202710CC000ADD3DBD2DE7963E34020C4320EC9643270C35028B30BD35590A432674
S1232F40F53986307E3559DC02DD3DDC58C3AA559759D758847FDD3FBD2DB9DC3DC30001D1
S1232F607E2D7CDC027E292DBD293696037E28F1BD35D5DC02C33E0ADD02DC04C33E0ADDD1
S1232F8004BD343397430F449E046F018601973B4C973A9E04A680A1842405860DBD350CA9
S1232FA0DC43260139964481062503BD302B964426245FDD2EDD30DD32D63A9E043AD63B46
S1232FC0E7039E02A685BD304D2529BD304624060C3B0A4320BD96432722D63B9E02A685E4
S1232FE0BD30422517D6448E002EA7850A430C440C3B209F972E0A430C440C3B9644279380
S1233000D63A9E043A9644A70296433402BD3289BD305D350297439E046C01D63A3ACB0433
S1233020D73ADC3DED840F447E2F9396432712D63B9E02A6858D0B25080A430C440C3B20A7
S1233040EA398D0925158E308CC60520059E23E6805AA18527055A2AF95F3953399E23E624
S1233060803AA6809744EC81DD3DEC841093342607EC02109336270DD6443ADC3D830001AA
S1233080DD3D26E6393089C1F69F3D39213F2C2E0D208D38973F8D349740390D182619DCB5
S12330A0134D2608D10B2404CB3E20040F1F8D4DD7160F1786FF9718D6159E163AA6840CEF
S12330C01526080F180C1426020C13390D1F2619DC1A4D2608D10B2404CB3E20040F188D21
S12330E01CD71D0F1E86FF971FD61C9E1D3AA6840C1C26080F1F0C1B26020C1A39DD4C0FD9
S12331000D8E240A10A38127200C0D9C0F25F58D52D612D70DDB0ED74A0F4B8E240AD60DDB
S12331203A3ADC4CED84BD36C5D60D8E255A3AA684911127290C11261B8D288E255A5FA65B
S1233140842704900AA78430015CD10C25F18600900A97118E255AD60D3A9611A784D60DD0
S1233160DB0E390F12B6255A8E255BC601A1842504A684D71230015CD10C25F1970A39DC67
S12331803FDD1B0F1A0F1F394F0840093F49971ADC3FDD1B0F1F390F2A0F2B86FF9729BD9C
S12331A0325125F297432741810425578106253DBD32454D2609865B9B43BD355920E0810A
S12331C0012604863B20F1D643C00627078E3364A68520E6BD325148484848489743BD321A
S12331E051974496439A4420D1862020CD80031F898D522604D72920A6D72A912A27A00FD8
S12332002A209C4AC6403DD73CBD32511F8958DB3C9E253AEC84DD3F961A3402962AD62B9D
S12332209E1B109E2C3436BD3188BD31973536109F2C9F1BD72B972A3502971A86FF9729A2
S12332400F1F7E319F96292A03962A39C6FFD72939962B2A025339260F0C2BBD3092DC3F8C
S1233260DD2C4444841F5F394A26148602972BDC2C4456962C4444565454541F9820E50FA7
S12332802BDC2C2AF6032B20F2CC0505DD34DD36DD384C97430F3D0F3FD63F0C3F8E002EAC
S12332A0A68597442604860520259644BD332A4D27118B03D63D8E0034A7850C3D0A43105C
S12332C02700849644BD332A4A2A139644805BD63D8E0034A7850C3D0A43276B20BB2606DF
S12332E09644803B20E99644BD331826E28606D63D8E0034A7850C3D0A43274B964444444B
S12333004444448403D63D8E0034A7850C3D0A4327359644841F20B78E3364C619A18527BE
S1233320045A26F9391F988B063981612506817B24024F3981412507815B24038601394D9D
S123334027042B02860239DC3458585858495849DA36DD34DC3758585858495849DA398ADB
S123336080DD3639000D303132333435363738392E2C213F5F2327222F5C2D3A2829960302
S1233380BD33E19E3FEC07C33E0ADD3F1F01E684585C399E3F3AA684841F399E3F3AA6848C
S12333A046464646468407398DF1973D5C0A3D2AFB5C399603BD33E19605811025088010E5
S12333C09E3F30029F3F973ECC0001DD43C60FD03E2707084409435A20F79E3FEC84DD3DB9
S12333E039C6093DC30035F33E14C33E0ADD3F393F2139BD34BC200234743F2327080C58E2
S123340026020C5920F43F229755810D27188108271481612508817B24D980202008815B7D
S123342024D1812025CD35749655398E0100301F26FC39BD35CB0F549E02E680C002D753E8
S12334405FBD33F8810D273281082725814125028B20A7855C96558D40D1532404C13D2522
S1233460E0BD33F8810D271281082705BD34BC20F05A2AE15FBD34BC20C7A7858D1B5CD7E8
S1233480530D5E2710B63E1B84012709D653A6803F215A26F99653390097553F2139D65179
S12334A08E262AD7535FA685BD34995CD15325F67E34813F181B5B324A003939398E10008C
S12334C0301F26FC39BD359D0F5EB63E1BB734987E34D50F5EBD34B38E34E3C618BD389709
S12334E07E270A5448452053544F5259204953204C4F4144494E47202E2E2E0D494E5445B6
S1233500524E414C204552524F5220233402BD359D8E34FBC611BD34A3350297400F3FBD87
S12335202F10BD35C08E3531C60FBD34A33F0020FE454E44204F462053455353494F4E0DFF
S1233540434F434F20322056455253494F4E20430D8E353FC6127E34A38E262AD651810D79
S1233560273B81202508A785C11F24030C51398620A18527055A26F9C61FD752D751BD35B5
S12335809D0C52D652C11F2301398E262AA685D651A7850C5120EA5B6D6F72655D0C5496A3
S12335A054810D251B8D2E8E3597C606BD38970F5DBD33F88620C606BD33F05A26FA0F54F5
S12335C0D6518E262A860DA7850C510D512705BD349E0F51399651D62B109E2C3436961A38
S12335E0D6539E1B109E293436108E264A8E262AC620A684E780A7A08C264A25F50F510F75
S12336005E8610BD28C99640BD2B8B861697518620BD35598611BD28C90D502607BD2F107B
S1233620862F2013964026028618810C2F04800C9740BD2F10863ABD35598612BD28C90D85
S123364050272E9640810A24058630BD3559BD2F108620BD35598611BD28C99640810C247D
S123366004864120028650BD3559864DBD35592003BD2F10BD35C08D29108E264A8E262AA7
S1233680A6A0A7808C264A25F73536109F299F1BD753971A3536109F2CD72B9751035E0F29
S12336A01F3939413A5B5A49505D5A4950544553542E5A3300108E36A33F0A102600B5CEE8
S12336C0DD003F37393476CEDD003F3EDC4CB7371C81002718CCFFFFCEDD003F3FCC0001D6
S12336E0CEDD003F3F7A371CB6371C20E4DC4C1F98C600CEDD003F3FC600F7371C3F3B9ECD
S12337004AA7840C4B26020C4A7A371CF6371CC10026EA0C4D26020C4C35763900BD359D28
S1233720BD34B30F5E398DF58E38AEC604BD3897BD38188E3942C607BD3897BD38A08E2637
S12337404AFC3E0CED81DC27ED81EF819613A780DC14ED84CC260ADD4ACC220ADD4ACC3E09
S12337600ADD4AB63E184C973F0A3F26FC7E37ED860C2002860EBD350CBD371D8E38A7C64F
S123378007BD3897BD38188E3949C60ABD3897BD38A08E260A9F4AEC8134068C262825F740
S12337A0FC264A10B33E0C27118E26283506ED838C260A22F78D3B7E294B32E81EFC3E1AB2
S12337C0DD3DCC220ADD4ACC3E0ADD4AB63E18973F0A3F26FC8E264CEC81DD27EE81A6801E
S12337E09713EC84DD140F18DC3DFD3E1A8D037E29590F498E38D1C61FBD3897BD38040339
S12338005E7E34B38E38F0C61CD75DBD34A3BD33F80F5D860D7E35598E390CC618BD389751
S1233820BD36A286FF975D96574CBD388BBD33F8810D270B803181072507BD34BC20EE965F
S12338405797578B31B7395DBD33F08E3924C60EBD389796568D34BD33F8810D270B8030E6
S123386081022507BD34BC20EE965697498B30B738CEBD33F09657C6053DD74EC601D74FAF
S12338808E38B2C61FBD38977E38048B30B7393E8E3932C610D75DA680BD33F05A26F839DE
S12338A08E3953C61020F0524553544F5245534156450D0D494E5345525420534156452053
S12338C04449534B20494E20445249564520302E0D0D494E534552542053544F52592044D6
S12338E049534B20494E20445249564520302E0D5052455353203C454E5445523E20544F99
S123390020434F4E54494E55452E0D3E20504F534954494F4E0D0D504F534954494F4E2061
S1233920312D37200D44524956452030204F522031202844454641554C5420495320302963
S1233940203E0D534156494E470D524553544F52494E4720504F534954494F4E2031202E32
S10939602E2E0D454E441D
S9
