S123E000FFFF2000108EDC507EF9CCF7DCD5BFDCD610BFDCD8F6DCEBF7DCDA316AAEA4E6F8
S123E02080AFA4C16F2437588EF8EE3AEC84FDDCCB10BFDCDBB6DCA32606357F6E9FDCCB15
S123E040BDE5E15353522000AEA4E61FBDE510BDE5E1202D2000357F8D336E9FDCCB1F24BD
S123E060BDE5E1496E76616C6964205353522000BDE510BDE5E1206174202400ECE183005C
S123E08002BDE5D8BDE61B7EE25C8D01393407BDE5E150433D00EC65830002BDE5D8BDE53F
S123E0A0E12043433D00A6E4BDE5EDBDE5E12044503D001FB8BDE5EDBDE5E120413D00A6DE
S123E0C061BDE5EDBDE5E120423D00A662BDE5EDBDE5E120583D001F10BDE5D8BDE5E1200F
S123E0E0593D001F20BDE5D8BDE5E120553D001F30BDE5D8BDE5E120533D001F40C3000773
S123E100BDE5D8BDE61B358710CEDE008EDC006F808CDE0025F9BDE004BDE6B87FDCECBD6A
S123E120E5E1524F4D2E2E2E20008EE0024F5FEB8089008C000026F710B3E000270FBDE646
S123E140114661696C6564007ADCEC20028D32BDE5E152414D2E2E2E2000BEE002A684C6A5
S123E16080E784E18426325426F7A7801F105D2607BDE666811B27148CDFFF25E08D0220A4
S123E18034BDE6115061737365640039BDE61141626F72746564002019A784BDE5E14661F7
S123E1A0696C65642061742024001F10BDE5D8BDE61B7ADCECBDE6110A435542495820760C
S123E1C0657273696F6E20312E350A0D0A436F7079726967687420313938332D3230303534
S123E1E020446176652044756E6669656C640A0D416C6C207269676874732072657365720E
S123E2007665640A0D00B6DCEC2618108EF79ABDE40ACEE223344010FFDCDBBDE72526030F
S123E2207EE2F010CEDE00BDE6C6BDE5388D3427F21F89BDE5E152633D00BDE510BDE61B24
S123E24020E134018E0000BFDCE9BEDCE62604350120DC35017EF61110FFDCE94F5FFDDC80
S123E260E620C010FFDCDBB6DCEBB7DCDABDE56F271A10BFDCCF8140102712848EF87CBD0B
S123E280E598C10E2433588EF8D26E9539BDE329CC4558ED81A784BDE6ECA6881785201097
S123E2A027069DEC8813AE8815BFDCCDBDEF00F6DCEBBDE56F6E9FDCCD7FDCCD8EDCAEBD29
S123E2C0E4468D6D862AA784B6DCB7B7DCEBCC0000BDE68FBDE3B627173088208CE0002579
S123E2E0F3FCDCDFBDE67226E88EF7A486FF2060A68812B7DCCAEC8810FDDCC8108340008A
S123E30010271211108345582605A18812278B1F128EDCC0ED81A6A812A7806F808CDCC8E8
S123E32025F910BEDCCF7EE290BDE44386FFB7DCCDC608BDE57C2706812F2605313F7EE4C3
S123E3403CA7805A2AED7DDCCD279E8EF7B986013401F6DC6DC108240A108EDC7E5810AEBC
S123E360A52605C601F7DC6DF6DC6CC108240A108EDC6E5810AEA52605C601F7DC6C7DDC60
S123E380A22706BDE607BDE61B35013401F6DCDAF7DCEBBEDCD610BEDCD8F6DCD535012777
S123E3A00510FEDCDB3910FEDCDB1A04398EDCAEBDE4467EE32C3436108EDCB8A6842603BF
S123E3C04A2010C6088D0E260AC6088D082604C6038D0235B6A6A0812A2708A18026065A8F
S123E3E026F33930015A2704312120F7812A393416C6138EDCB8A680812A27045A26F74FBD
S123E4004D35968D058DE82620398D37C6088D26812E2707A7805A2AF5200E8D1FC603BD38
S123E420E57C2708A7805A2AF67EE34B8D0EBDE56F8EDCB84F39BDE57C27EE395A2B516FF4
S123E4408020F98EDCA5A680B7DCB7BDE56F270BE621C13A26058D3DB7DCB734201F128E09
S123E460DCB8C608A6A0A7805A26F93520A6A4815B261D8EDCB83121C608BDE436815D2774
S123E48008A7805A2AF47EE34B8DB17DDCB827F64F39BDE56FECA1C13A26EB80418104241D
S123E4A0E51A0439BDE56F27DD812426433121BDE56F27D28E0000BDE57C27288030810A67
S123E4C0250A81112DC08007811024BAB7DCCC8605B7DCCB1F10308B7ADCCB26F7FADCCC82
S123E4E01F0120D3BDE56F4F39BDE56F1027FE5B8E0000BDE57C27EC803081091022FE4B57
S123E5003402CC000ABDF729EBE089001F0120E34F3436108E00001F01CC000ABDF7493419
S123E5200431218C000026F135028B30BDE62D313F26F535B6BDE61B862ABDE62D108EDCEE
S123E540001F20C15022EEBDE66D817F27048108260B313FBDE5E10820080020E4BDE62D6B
S123E5608D2BA7A0810D26D9108EDC007EE61BA6A0812027FA6DA22702810D39A6A0270896
S123E58081202708810D2604313F1A0439816125FB817A22F7845F395F8DD4A6802AFC30BA
S123E5A01F3420847F272CB7DCCB30017ADCCBA6848DDAB7DCCC8DC42714B1DCCC27EB8176
S123E5C02F2709813D270535205C20CF313FBADCCB2AF48D9A5D35908D131E898D0F1E898C
S123E5E0393410AE628D20AF621A0435903402444444448D06A6E48D023582840F8B308171
S123E60039232A8B0720263402A680271E8D1E20F83410AE628DF0AF6235103402860A8DBA
S123E6200C860D2004340286208D0235823416F6DC6D20023416C108240D8EDC7E58AE858F
S123E6402705AD844F35968EF857860A7EE3508D0326FC393414C10824ED8EDC6E58AE85B1
S123E66027E5AD8435943414F6DC6C20E98DF726FC39340258498401C3DE001F013504CB01
S123E680014F34108D093510EC841083FFFF3934028EDE00B6DCEBB1DCDE2608A6E410B3C8
S123E6A0DCDF27108D20B6DCEBB7DCDEA6E4FDDCDFBDEB7235828D0E3406CCFFFFFDDCDF5F
S123E6C0B7DCDE4F35867DDCDD27C33416B6DCEB3402B6DCDEB7DCEBFCDCDF8EDE00BDEBE5
S123E6E0A57FDCDD3502B7DCEB4F35968D372758108EF7D4860234037DDCA22721BDE5E139
S123E7004572726F722070726F63657373696E672066696C653A2000BDE76ABDE61B1F2168
S123E72035037EE350B6DCB7B7DCEBCC0000BDE68FBDE3B627123088208CE00025F3FCDC64
S123E740DFBDE67226E88602398DA18D30BDE61B3088208CE000250BFCDCDFBDE67227E8FA
S123E760BDE68FBDE3B626E820E134168EDCB7A6808B41BDE62D863ABDE62D20023416864F
S123E7805BBDE62D8D12865DBDE62D8D0B862EBDE62DC6038D043596C608A6802703BDE6F6
S123E7A02D5A26F639B6DCEB3440BDEB9CE643A6423DA6413D35C0BDE3EF1026FB8DBDE7EC
S123E7C0252609108EF7E386077EE6F68D6FFDDCCDCC0000BDE68FC6106D842732308820EA
S123E7E05A26F6FCDCDFBDE67226E9FCDCCDED84BDE83434068D46FDDCCDBDE6CB3506FD7C
S123E800DCDF8EDE006F808CE00025F98EDE003420108EDCB8C613A6A0A7805A26F935204E
S123E8203088EDFCDCD3ED881586F0A78817FCDCCDED88137FDCDD7ADCDD1A0439BDE7A506
S123E840FDDCCB8300018B0134027DDCDF260EF6DCE0B1DCE02506C10125028D11C6018D39
S123E8600D5CE1E423F98EF7F786087EE3504F3434BDE68FEC8127078CE00025F735B41F7B
S123E8801083DE024456A6E4800110B3DCCB24ED3261108EFFFF10AF1E35303263209534F2
S123E8A014BDE936EC8813ED42ED444F5FED48ED46F6DCB78601ED40B6DCDAB7DCEB4F35BC
S123E8C0943414304AA641B7DCEBEC482612A6404A2676EC441083FFFF2776BDEB72EC4895
S123E8E0308BC3000110830200250F3410EC44ED46BDE672ED4435104F5FED48B6DCDAB794
S123E900DCEBA68081FF27491A0435943414A6404A2636A641B7DCEBEC441083FFFF2731DD
S123E920ED46BDEB72BDE672ED44B6DCDAB7DCEB4F5FED483594BDE6ECA688178580263576
S123E940108EF83D86037EE6F68EF80E86047EE35086067EE38B3406EC42ED444F5FED483A
S123E960ED463586BDE7252705BDE7B72007A68817854027CBFCDCDF1A043934148DE5EC7E
S123E9808813ED42ED444F5FED48ED46B6DCB7A7418602A740B6DCDAB7DCEB4F3594341676
S123E9A0304AEC481083020025048D19EC48308BC30001ED48A6E4A7841A0435968EF82510
S123E9C086057EE3503414A640810226F0A641B7DCEBEC441083FFFF2613BDE83D3406ECC9
S123E9E046BDE6723506ED84BDE834AE61ED46BDEBA5BDE672ED44B6DCDAB7DCEB4F5FEDD9
S123EA004835943414A64081022639A641B7DCEBEC482604AE462617304A308B1083020013
S123EA2024096F846380C3000120F1304A8D96EC46BDE672CCFFFFED84EC441083FFFF27F3
S123EA4003BDEE516F40B6DCDAB7DCEB4F3594BDE9563416E6405A1026FEEEA641B7DCEBB5
S123EA60EC48E3E410830200251A3406EC441083FFFF1027FEDBED46BDE672ED4435068381
S123EA80020020E0ED48270FEC441083FFFF1027FEBF304ABDEB72B6DCDAB7DCEB4F3596B8
S123EAA03430A641B7DCEB108E0000EC4210A344270931A90200BDE67226F2EC483420E322
S123EAC0E13402B6DCDAB7DCEB4F35B23506FDDCD3EC46AE4810AE423436EC403406810299
S123EAE0262D8C00002728A641B7DCEBEC441083FFFF2610BDE83D3406EC46BDE6723506EA
S123EB00ED84ED44304ABDEBA5B6DCDAB7DCEBBEDCD610BEDCD8F6DCD54F6E9FDCD33506BF
S123EB20FDDCD33506ED40F7DCEB3536AF4810AF42ED46260510AF442005BDE672ED44ECE4
S123EB40482707EC44304ABDEB72B6DCDAB7DCEB20B234161F01A643E6423DBDF7496F4552
S123EB60E1432506E0436C4520F6E7461F10E744359634767FDCEC8D20ECE48DD5AE62BD69
S123EB80F77A27137CDCECF6DCECC105273CC10326EBBDF77020E235F6B6DCEBC6073DC32B
S123EBA0DC501F033934767FDCEC8DEDECE48DA2AE62BDF77E27E07CDCECF6DCECC1052728
S123EBC009C10326EBBDF77020E2B7DCCB357610B3DCDF26123402B6DCEBB1DCDE350226F3
S123EBE006BDE6B87FDCDDBDE5E14572726F7220616363657373696E6720626C6F636B20D0
S123EC0000BDE511BDE5E1206F6E2064726976653A2000B6DCEB8B41BDE62DBDE61B8EECD8
S123EC203B7ADCCB270AA68026FCA68426F33001BDE607BDE61B86097EE38B4469736B20F9
S123EC40666F726D6174206572726F720042616420736563746F7200536563746F72206E28
S123EC606F7420666F756E64004469736B2077726974652070726F7465637465640000446D
S123EC8069736B2073797374656D206572726F7200BDE6B6BDE492B7DCEBBDEB99CC0203FE
S123ECA0FDDCD3BDE56F27288EF49BBDF1563404BDE4A435024D2605F7DCD320E64A2605D6
S123ECC0F7DCD420DE4A81031022F67FE7C620D3BDE5E1466F726D617474696E672000B602
S123ECE0DCEBBDF2A38EF49B4FF6DCD3BDF2E28601F6DCD4BDF2DCBDE5E10A0D4F6B3F20EA
S123ED0000BDE66DBDE62D84DF81591026F90CBDE61BB6DCD3BDF76CB6DCD4B7DCD38EDE1C
S123ED20006F808CE00025F98EDE00CC0000BDEBA5BDE7A58300011F89FDDCD1CC00027A6A
S123ED40DCD22B08BDEBA5C3000120F37ADCD32B08BDEBA5C3000120F3CCFFFFED00300241
S123ED60CC00027ADCD12B07ED81C3000120F434067DDCD42703FDDE00CCFFFFED81350643
S123ED807ADCD42B07C30001ED8120F4CCFFFFED1E8EDE00CC00017EEBA5BDE492B7DCEB00
S123EDA0BDE4A43410BDE4AF34108E0001BDE56F2703BDE4A41F1235103506BDEB7230899F
S123EDC00200C30001313F26F239BDE492B7DCEBBDE4A43410BDE4AF34108E0001BDE56F3A
S123EDE02703BDE4A41F1235103506BDEBA530890200C30001313F26F2398EDCB8C6136FF8
S123EE00805A26FB862AB7DCC0B7DCC83420BDE443BDE57C35202703BDE40A7EE749FCE08B
S123EE2002FDDCD3BDE403BDE56F2706BDE4AFBFDCD37EE7B7BDE40ABDE6ECBDE3EF262C49
S123EE40A6881785101027FAF76F84BDE834EC8813BDE672270F1083000027096F846F01E8
S123EE60BDE83420EC6F846F017EE834CC0000BDE68FBDE3B62654BDE77DA68817851026BD
S123EE8010BDE6112050726F74656374656400203ABDE5E12028592F4E2F51293F00BDE65A
S123EEA06DBDE62DBDE61B84DF8151272E8159261A6F84BDE8343414FCDCDFFDDCCDEC88CA
S123EEC0138D8EFCDCCDBDE68F35143088208CE000259FFCDCDFBDE6722694393410BDE92F
S123EEE036EC881335102018BDE403BDE936EC88133406AE8815BDE56F2703BDE4AF350682
S123EF00BDEB72308902003410BDE672351026F039BFDCD3FDDCD1200FBDE403BDE4AFBF31
S123EF20DCD3BDE4A4BFDCD17DDCD21027F41CBDE964EC8813FDDCCFBEDCD3BDEBA530894F
S123EF400200BFDCD3FCDCCF7ADCD22719BDE67226E3BDE83D3406FCDCCFBDE6723506ED10
S123EF6084BDE83420CFBDE67227A53406CCFFFFED84B7DCDD35067EEE51FCDCE927041F78
S123EF80044F39BDE6114E6F2073757370656E6465642070726F6772616D0010FEDCDB4F59
S123EFA039BDF18FF7DCCF7FDCD2CCFFFFFDDCD34F5F3406860DBDE62DB6DCD2BDE5ED7CD8
S123EFC0DCD28D282608ACE423EAAFE420E6BDE61B3506B3DCD3830001444CB7DCD2BDE5F0
S123EFE06F27BCBDE4037EEF28B7DCCF8D5B815326FA8D55813027F481392603860639816D
S123F00031263E8D4AB7DCD08003B7DCD18D4034028D3C1F89ABE4BBDCD0B7DCD035021F13
S123F0200110B3DCD32403FDDCD38D23A780BBDCD0B7DCD07ADCD126F18D14BBDCD04C272C
S123F0401A8EF866860B7EE350F6DCCF7EE64F8D0B4848484834028D03AAE0398DEB8030A7
S123F0608109230A811125D98007811024D339BDF18FF7DCCFBDE666260C811B1027F59B80
S123F080F6DCCFBDE634F6DCCFBDE65426E7BDE62D20E28EF413BDE598BDE56F27778EF47D
S123F0A056586E95BDE443BDE56F266934368EDCA520108EDCAEBDE446BDE56F2657343677
S123F0C08EDCAE108EDCB7C609A6A0A7805A26F935B6BDE403BDE6EC34108EF482BDF156C4
S123F0E05D260CBDE4AF1F103510ED8815200A5A26238D0D3510A78817BDE56F26DA7EE8C6
S123F100344F34168EF120BDE57C2712C680A18027065426F97EE34BEAE4E7E420E635960B
S123F120525745443F3F3F3FBDE6B6BDE492B7DCEBBDEB993420BDF77035208EF4BABDF19B
S123F140563404BDE4A41F103502810322C7E7C6BDE56F26E639BDE598A6A0813D26B639AF
S123F160BDE4AF3410BDE4AF1F103510E780BDE56F26F0398EF4E9BDF156C1022497340447
S123F1808D0D35028EDC6CE786BDE56F26E639BDE4A48C00081024F4AE1F10395434048ED0
S123F1A0F4E1BDE59835025D270B5A1026F19C3414C6FF200334145F81031024F18D8EDCE2
S123F1C0A23086A684E7841A0435948EF413BDE598588EF46C6E958EDCA520038EDCAEA64F
S123F1E0808B41BDE62DBDE5E13A5B00C608A6802703BDE62D5A26F6865DBDE62D7EE61B41
S123F200BDE403BDE6ECBDE5E146696C653A2000BDE77DBDE5E10A0D4469736B20616464CB
S123F220726573733D00EC8813BDE511BDE5E12C204C6F616420616464726573733D2400E0
S123F240EC8815BDE5D8BDE5E12C2050726F74656374696F6E3D00E68817108EF120A6A0FA
S123F260582403BDE62D5D26F5BDE61B108E0000EC88133121BDE67226F9BDE5E146696CBC
S123F2806520636F6E7461696E7320001F20BDE511BDE61120626C6F636B2873292E00396A
S123F2A0BDE4923442BDEB9CBDE5E144726976653A2000A6E48B41BDE62DBDE61B8EF4BA66
S123F2C04FE6408D1D8601E6418D118602E6428D0B8603E6438D0535427EE61BBDE5E12C8E
S123F2E020008D08863DBDE62D7EE51034144CE6802AFCC47F270F4A26F5A6802B05BDE658
S123F3002D20F74F3594860135948EF4E94FF6DC6C8DCF8601F6DC6D8DC27EE61B541F984A
S123F3208EF4138DC7863DBDE62D8EDCA2A685270286018EF4E18DB47EE61BBDE4AF3410AF
S123F340BDE56F2703BDE4AFBFDCCD35101F10BDE5D8C610C5032603BDE625BDE625A6804B
S123F360BDE5ED5A26EEC604BDE6255A26FA3010C610A68081202504817F2502862EBDE6FC
S123F3802D5A26EEBDE61BBDE6662705BCDCCD23BC4F39BDE492B7DCEB8D3EBDE5E144725A
S123F3A06976652000B6DCEB8B41BDE62DBDE5E1206861732000FCDCCFBDE511BDE5E120D0
S123F3C0626C6F636B732C2000FCDCCDBDE511BDE611206672656500393430BDE7A5FDDCD2
S123F3E0CF1F024F5FFDDCCDC601FDDCCBBDE68FEC8126075CF3DCCDFDDCCD313F270D8CC0
S123F400E00025ECFCDCCBC3000120DEFCDCCD1A0435B0834D65737361676583446562759F
S123F420678254726163658344454641554C548253595354454D8246494C458244524956A8
S123F44045834D454D4F525982434F4E534F4C45824652454580F19CF19CF19CF0A4F0B370
S123F460F0D2F128F160F174E34BE34BF31DF31DF31DF1D7F1DCF200F2A0F33BF30AF393A1
S123F480E34B814C4F41445F414444524553538150524F54454354494F4E8081496E74651B
S123F4A0726C65617665814469726563746F727920657874656E73696F6E81416464726535
S123F4C073738143796C696E6465727381486561647381536563746F72732F547261636B26
S123F4E080824F4646824F4E8081496E707574814F7574707574803506FDDCE6B6DCE839BC
S123F5003121B7DCCDBDE443BDE331CC4000ED816F80BDE6ECA6881785201027F422B6DCBF
S123F520B7B7DCE1EC8813FDDCE24F5FFDDCE4FCDCE634067FDCE810BEDCCFBDF63A8EDCE4
S123F54000BDF6AE27B1813F262DBDF6AE803081092308C63FE7808B30201C1F89108EDC10
S123F560EDBDE56F5A2B07BDE57C26FB20F3BDE57C27CEA78020F7A780810D26C4108EDC41
S123F580007DDCA42717862ABDE62D1F21A6802709810D2705BDE62D20F3BDE61BBDE56FAA
S123F5A0813F2659ECA1BDE56FC14F2704C1502616A6A02709810D2705BDE62D20F3C14FBF
S123F5C02766BDE61B2061C1462607B6DCE8275820CBC15326035F2009C152260CBDE4A4F4
S123F5E01F10F1DCE8264120B4C145263EBDE56F2708BDE4A41F10F7DCE87EF4F7BEDCE428
S123F600FCDCE23416B6DCE1340210FFDCE6BDE26326014FB7DCE810FEDCE63502B7DCE1FA
S123F6203516FDDCE2BFDCE47EF53EC13D2707C1492618BDE5388D0220EE34108EDCEDA664
S123F640A0A7802704810D26F63590C14026083506FDDCE67EF505C1412613BDE4A43001F3
S123F660301F27C48D482792810D26F820F2C14B2608BDE66DB7DCE82031C13F262DBDE5F5
S123F6806F27161F21A6A0810D270E812026F6A68081202708A1A027F686FF200BA6A081E9
S123F6A00D2704812026F24FB7DCE87EF53E3410B6DCE1B7DCEBFCDCE410830200250DFC26
S123F6C0DCE2BDE672271EFDDCE24F5F8EDE00308BC30001FDDCE43410FCDCE2BDE68F3598
S123F6E010A68081FF3590B6DC6C2020B6DC6D201B3404F6DC6CB7DC6C20083404F6DC6DFF
S123F700B7DC6D1F981A043584B7DCEB1A04393440CEDC6E48ECC6200C3440CEDC6E4833C9
S123F720C6ECC4AFC41A0435C03416A661E6633D3406A662E6653DEBE4E7E4A663E6643DFE
S123F740EBE4E7E435063264393416CC00008E00111CFE69636962301F270D594910A3E4DF
S123F76025EFA3E41A0120EB32623590AD9FDC946F446F456F466E9FDC8E6E9FDC906E9F96
S123F780DC926E9FDC966E9FDC986E9FDC9A6E9FDC9C6E9FDC9E6E9FDCA0535441525455FC
S123F7A0502E2A00556E7265636F676E697A656420636F6D6D616E64004F706572616E64E8
S123F7C0206D697373696E67206F7220696E76616C69640046696C65206E6F7420666F75A8
S123F7E06E640046696C6520616C72656164792065786973747300496E7375666669636555
S123F8006E74206469736B2073706163650046696C65206E6F74206F70656E20666F7220C1
S123F820726561640046696C65206E6F74206F70656E20666F722077726974650046696C98
S123F840652070726F74656374696F6E2076696F6C6174696F6E00496E76616C6964206498
S123F860657669636500446F776E6C6F616420666F726D6174206572726F720084464F52E2
S123F8804D415482524541448257524954458246494C4553824352454154458344454C450F
S123F8A05445824C4F414482534156458252554E8252455455524E825345548253484F574E
S123F8C082444F574E4C4F414482434F4E4E45435480EC91ED9AEDCAEDFAEE1EEE35EEE897
S123F8E0EF19E28DEF7AF093F1CBEFA1F06FE242E538E535E53DE56FE57CE4E9E4AFE4A4DC
S123F900E40AE403E329E3ADE3B0E443E446E492F101E598E3B6E3EFE625E61BE607E5E17F
S123F920E611E511E5D8E5EDE5FBE76AE77DF2ECE62DE66DE666E634E64FE654F6E7F6ECDA
S123F940F6F1F6FBE34BE6F0E940E949E9BDE7C3E866E647F041E6F6EEDCEF11E89FE97BDF
S123F960EA03E90CE8C1E9C5E99EE956EA52EA4FEAA0EACCEB1EE725E6ECE936E964E7B7DE
S123F980EE38F0ACF0BEF709E672EF00E83DEE51E7A8E7A5F3D9E68FE834E6C6E6CBE6B6D7
S123F9A0EB9CEB99EB52EB72EBA5E749E004F770F77AF77EF76CE263E258F70FF719F1AF15
S123F9C0F1B5F63AF729F749E08AEFE97F05008EFB8FC667A680A7A05A26F9B605008603B8
S123F9E0BDFB7086DFBDFB7086FFBDFB70CC0B1E8E00006F01ED0230048C010023F5860A56
S123FA008D02860D8E000020038E0100E601C51027FAA784398E000020038E0100A60185D3
S123FA20082705A6841A043986FF393402BDFAB8A6434CC6FF5CA0E42AFB34066F44BDFA07
S123FA40C16F456F466F62864DBDFB70A6454848AA40BDFB708602BDFB70A643A7E4BDFB43
S123FA60708650BDFB7086E5BDFB70E644B604002AFBF70401E645B604002AFBF70401E690
S123FA8046B604002AFBF70401EB61E14325046C62E662E746C602B604002AFBF704016A58
S123FAA0E426C88D706C45A645A14225966C44A644A14125893263398607BDFB70A6402086
S123FAC00C860FBDFB70A640BDFB70A644BDFB708608BDFB70BDFB15F60400C50F26F13998
S123FAE08DDF86468D61B604002AFB85202723B60401A780313F26EE20188DC586458D477F
S123FB00E680B604002AFB85202707F70401313F26EEB605006FE28D1F1F898D1B271510F5
S123FB208EFB874825062708312120F7A6A4A7E48D0626FCC5C03582B604002AFB84402716
S123FB4005B604011CFB39108E02008D23A6454848AA408D1BA6448D17A6458D13A6468DA2
S123FB600F86028D0BA6434A8D06862A8D0286FF3402B604002AFB854026063502B70401CF
S123FB8039B6040120EC3B0300020000030401002802090000000128020900000002280187
S123FBA009000000032801090000000101FA28FA15FA1A00000000000000000000FA2AFA9E
S123FBC004FA0900000000000000000000FAB8FAE0FAFAFA2BE00BFB86FB86FB86FB86FB8B
S119FBE086FF0000004D41494E000000000053595354454D00007C
S111FFF2F78AF786F792F78EF782F796E10802
S9030000FC
