S01E00005B6C77746F6F6C7320342E32325D2063756269786472762E61736D39
S123C1005886001F01EC89C113FD0101FC01096E9F0101C191C19CC181C8C6C8C6C8C6C85D
S123C120C6C8C6C8C6C8C6C8C6C8C6C8C6C8C6C8C6C8C6C8C6C8C6C8C6C8C6C8C6C1B9C235
S123C140A8C2C8C8C6C8C6C8C6C8C6C8C6C8C6C8C6C8C6C8C6C8C6C8C6C8C6C8C6C8C6C81D
S123C160C6C8C6C8C6C8C6C8C6C8C6C8C6C8C6C8C6C8C6C8C6C8C6C8C6C3EBC8C6C8C6C8BB
S123C180C68600B71F85860BB71F86861EB71F8739F61F85C41027F9B71F8439BDC50F25F6
S123C1A00139B61F8584082708B61F84B70109393986FFB70109390000BDC8C78EC377BD50
S123C1C0C8DBBDC8C78EC37FBDC8DBCC1300BDC8E7BDC1FF25037EC1E28EC386BDC8DB7E76
S123C1E0C1FBBDC8C78EC393BDC8DB8600BDC2438EC3A4BDC8DB8601BDC243BDC8C7398EF6
S123C2000000F61300C180262BC600F7130012F7130112F7130612F7130812F7130A12F71D
S123C220130C12F7130E12F7130E1230018C030026D0200CF61304C10126051CFE7EC242FD
S123C2401A01398401484848488AE0B7130CBDC2ED25438601B7130286EFB7130E121212F7
S123C260121212121212121286ECB7130EBDC3112524BDC33D8EC3B5BDC8DBB6027BBDC82B
S123C280F3B6027ABDC8F3B60279BDC8F3B60278BDC8F37EC2A28EC386BDC8DBBDC8C71A2D
S123C2A00139BDC8C71CFE39BDC2ED2515BDC3B88620B7130EBDC3112508BDC33D4FB701C3
S123C2C003398602B7010339BDC2ED251ABDC3B88630B7130EBDC311250DBDC35ABDC2ED28
S123C2E025054FB70103398602B701033934068600B7C1B7B7C1B8F6130EC480270F7CC164
S123C300B726F47CC1B826EF1A017EC30F1CFE358634268600B7C1B7B7C1B8F6130EC4885C
S123C320C1082715C401C101270A7CC1B726EC7CC1B826E71A017EC33B1CFE35A6108E000A
S123C34000F61300E7A902003121F61301E7A902003121108C020026E839108E0000E6A9EC
S123C3600200F713003121E6A90200F713013121108C020026E8395050494445203A00209C
S123C380494F3D307800204E4F542050524553454E5400205050494445303A20424C4F438E
S123C3A04B533D00205050494445313A20424C4F434B533D003078003406F60104C401588C
S123C3C0585858CAE0F7130CF60105F7130AF60106F71308F60107F71306C601F71304355A
S123C3E08600007000000040000000BDC8C78EC732BDC8DBBDC8C78EC37FBDC8DBCC13FE77
S123C400BDC8E7BDC8C7BDC40C25003986AABDC446BDC47A8155270C8EC740BDC8DBBDC800
S123C420C71A01398EC75ABDC8DBBDC8C78660BDC4468620BDC460BDC47ABDC4A2BDC4C0EF
S123C440BDC4ED1CFE398E30FFF613FFC402270ABDC712301F26F21A0139B713FF1CFE39EE
S123C4608E30FFF613FFC402270ABDC712301F26F21A0139B713FE1CFE398E30FFB613FF0B
S123C4808401260CBDC712301F26F286001A0139B613FE1CFE39B613FF840126F386001AEA
S123C4A0013986FFBDC460BDC47A8EF1003410BDC47A35102607301F26F31A01391CFE399E
S123C4C086EDBDC460BDC47A81FA27031A0139B6C3E3464646468407BDC460BDC47A81FABA
S123C4E027031A01398600B7C3E61CFE3986F3BDC460BDC47A81FA27031A0139B6C3E7BD16
S123C500C460BDC47A81FA27031A01391CFE39BDC52D240886FFB701091A0139B6C3E2B725
S123C5200109B6C3E6847FB7C3E61CFE39B6C3E6848027031A0139BDC49624031A0139B7AE
S123C540C3E181AA260FBDC723BDC4A2BDC4C0BDC4ED7EC70A81E0260BF6C3E6CA01F7C355
S123C560E67EC53781E1261686EEB7C3E28E00073410BDC47A3510301F26F57EC5E781F0CB
S123C580260BF6C3E6CA02F7C3E67EC537B6C3E68401272AF6C3E186001F01BEC878A6893F
S123C5A0C8783001810010270160B1C3E1270530017EC59EA689C878B7C3E27EC5E7B6C3EC
S123C5C0E181852222F6C3E3C401270DF6C3E186001F01A689C7F3200BF6C3E186001F0103
S123C5E0A689C76EB7C3E2B6C3E281B82C5281B0254E8E000480AFC6001A01594A270A4A01
S123C600270D301F26F57EC6408EC3E47EC6158EC3E57EC615B6C3E6840227037EC626EA74
S123C62084E7847EC62FC8FFE484E7847EC62FB6C3E384F0BAC3E4BAC3E5B7C3E37EC70A48
S123C640B6C3E68402102600C1B6C3E2C64081BC270FC62081BD2709C61081BE27037EC64F
S123C6606FF8C3E3F7C3E31F98BDC4C07EC70AB6C3E38402271AB6C3E281612506817A221D
S123C6800284DF81402509815F220584BFB7C3E2B6C3E384402721B6C3E281612507817AD0
S123C6A022037EC6B08141250F815A220B7EC6B0B6C3E28820B7C3E2B6C3E3847FB7C3E350
S123C6C0B6C3E284E081C0262DB6C3E38A80B7C3E394202708B6C3E28810B7C3E2F6C3E273
S123C6E0C0C08600FDC3E9CCC8A61CFEF3C3E91F01A684B7C3E2B6C3E281FF270DB6C3E680
S123C7008A80B7C3E686001CFE398600B7C3E67EC5373476357634763576347635763476C9
S123C72035763934768E0100BDC712301F26F9357639495341204D554C54492D494F3A0069
S123C74020204B42443A2056543832433432204E4F5420464F554E442E0020204B42443A87
S123C76020494E495449414C495A45442E00FFE8FFE4E2E0E1EBFFE9E7E5E30960FFFFB427
S123C780B0FFB27131FFFFFF7A73617732FFFF637864653433FFFF207666747235FFFF6E14
S123C7A06268677936FFFFFF6D6A753738FFFF2C6B696F3039FFFF2E2F6C3B702DFFFFFF6B
S123C7C027FF5B3DFFFFBCB10D5DFF5CFFFFFFFFFFFFFFFF08FFFFC0FFC3C6FFFFFFC9CA91
S123C7E0C1C4C5C71BBDFACEC2CDCCC8BEFFFFFFFFE6ECFFE8FFE4E2E0E1EBFFE9E7E5E3E6
S123C800097EFFFFB4B0FFB25121FFFFFF5A53415740FFFF435844452423FFFF205646540F
S123C8205225FFFF4E424847595EFFFFFF4D4A55262AFFFF3C4B494F2928FFFF3E3F4C3A01
S123C840505FFFFFFF22FF7B2BFFFFBCB10D7DFF7CFFFFFFFFFFFFFFFF08FFFFD0FFD3D67B
S123C860FFFFFFD9DAD1D4D5D71BBDFADED2DDDCD8BEFFFFFFFFE6EC11B514B31FB627B7D4
S123C8802FEF37FA3FFB4ACB5ACF5EFC69F36BF86CF270F071F172F774F975F67AF57CED7B
S123C8A07DF47EFD0000F3F7F5F8FFF9F2F6F4F0F12F2A2D2B0D3132333435363738393031
S123C8C02E2F2A2D2B0D393406860A8D40860D8D3C3586340686208D3435863406A680279E
S123C8E0048D2A20F8358634068D081E898D041E8935863406444444448D06A6E48D023512
S123C90086840F8B30813923048B0720007EC19134043402588600F601001F01EC89C11330
S10FC920FD01013502AD9F010135043911
S5030042BA
