S01E00005B6C77746F6F6C7320342E32325D2063756269786472762E61736D39
S123C1005886001F01EC89C113FD0101FC01096E9F0101C1ADC1B8C19DCADECAEBC93FCE48
S123C12067CE67CE67CE67CE67CE67CE67CE67CE67CE67CE67CE67CE67CE67CE67C1CFC25C
S123C140B9C346CBC9CD59CD99CE67CE67CE67CE67CE67CE67CE67CE67CE67CE67CE67CEE4
S123C16067CE67CE67CE67CE67CE67CE67CE67CE67CE67CE67CE67CE67C3FFC549C914CA61
S123C18097CA33CA40CA4DCAADCA52CA5FCAC3CA79CA8CCAD9CB05CB52CB22CB6F8600B710
S123C1A01F85860BB71F86861EB71F8739F61F85C41027F9B71F8439B61F8584082708B6C4
S123C1C01F84B70109393986FFB70109390000BDCE688EC388BDCE7CBDCE688EC390BDCED4
S123C1E07CCC1300BDCE88BDC21225037EC1F88EC397BDCE7C7EC211BDCE688EC3A4BDCE2A
S123C2007C8600BDC2548EC3B6BDCE7C8601BDC254398E0000F61300C180262BC600F713AB
S123C2200012F7130112F7130612F7130812F7130A12F7130C12F7130E12F7130E123001B2
S123C2408C030026D0200ABDC2D925051CFE7EC2531A01398401484848488AE0B7130CBD06
S123C260C2D925438601B7130286EFB7130E121212121212121212121286ECB7130EBDC288
S123C280FD2524BDC3298EC3C8BDCE7CB6027BBDCE94B6027ABDCE94B60279BDCE94B602E0
S123C2A078BDCE947EC2B38EC397BDCE7CBDCE681A0139BDCE681CFE39BDC2D92515BDC362
S123C2C0CB8620B7130EBDC2FD2508BDC3294FB70103398602B701033934068600B7C1CDFB
S123C2E0B7C1CEF6130EC480270F7CC1CD26F47CC1CE26EF1A017EC2FB1CFE358634268614
S123C30000B7C1CDB7C1CEF6130EC488C1082715C401C101270A7CC1CD26EC7CC1CE26E73A
S123C3201A017EC3271CFE35A6108E0000F61300E7A902003121F61301E7A90200312110F8
S123C3408C020026E839BDC2D9251ABDC3CB8630B7130EBDC2FD250DBDC36BBDC2D9250579
S123C3604FB70103398602B7010339108E0000E6A90200F713003121E6A90200F7130131A2
S123C38021108C020026E83958542D4944453A0020494F3D307800204E4F542050524553A6
S123C3A0454E54002058542D494445303A20424C4F434B533D002058542D494445313A20EC
S123C3C0424C4F434B533D003078003406F60104C40158585858CAE0F7130CF60105F71396
S123C3E00AF601065CF71308F60107F71306C601F71304358600007000000040000000BDB9
S123C400CE688EC76CBDCE7CBDCE688EC390BDCE7CCC13E0BDCE88BDCE68BDC440251E8EE8
S123C420C7A8BDCE7CBDCE688600B713F08608B713F2BDC75D860CB713F21CFE391A01392F
S123C44086AABDC480BDC4B48155270C8EC77ABDCE7CBDCE681A01398EC794BDCE7CBDCED1
S123C460688660BDC48025ED8620BDC49A25E6BDC4B425E1BDC4DCBDC4FABDC5271CFE397C
S123C4808E30FFF613FFC402270ABDC74C301F26F21A0139B713FF1CFE398E30FFF613FF70
S123C4A0C402270ABDC74C301F26F21A0139B713FE1CFE398E30FFB613FF8401260CBDC71B
S123C4C04C301F26F286001A0139B613FE1CFE39B613FF840126F386001A013986FFBDC46B
S123C4E09ABDC4B48EF1003410BDC4B435102607301F26F31A01391CFE3986EDBDC49ABDA5
S123C500C4B481FA27031A0139B6C3F7464646468407BDC49ABDC4B481FA27031A013986C4
S123C52000B7C3FA1CFE3986F3BDC49ABDC4B481FA27031A0139B6C3FBBDC49ABDC4B48129
S123C540FA27031A01391CFE39BDC567240886FFB701091A0139B6C3F6B70109B6C3FA8436
S123C5607FB7C3FA1CFE39B6C3FA848027031A0139BDC4D024031A0139B7C3F581AA260FE1
S123C580BDC75DBDC4DCBDC4FABDC5277EC74481E0260BF6C3FACA01F7C3FA7EC57181E1D2
S123C5A0261686EEB7C3F68E00073410BDC4B43510301F26F57EC62181F0260BF6C3FACA16
S123C5C002F7C3FA7EC571B6C3FA8401272AF6C3F586001F01BEC8C6A689C8C63001810095
S123C5E010270160B1C3F5270530017EC5D8A689C8C6B7C3F67EC621B6C3F581852222F67E
S123C600C3F7C401270DF6C3F586001F01A689C841200BF6C3F586001F01A689C7BCB7C32C
S123C620F6B6C3F681B82C5281B0254E8E000480AFC6001A01594A270A4A270D301F26F5D8
S123C6407EC67A8EC3F87EC64F8EC3F97EC64FB6C3FA840227037EC660EA84E7847EC66912
S123C660C8FFE484E7847EC669B6C3F784F0BAC3F8BAC3F9B7C3F77EC744B6C3FA8402109D
S123C6802600C1B6C3F6C64081BC270FC62081BD2709C61081BE27037EC6A9F8C3F7F7C3DB
S123C6A0F71F98BDC4FA7EC744B6C3F78402271AB6C3F681612506817A220284DF814025A9
S123C6C009815F220584BFB7C3F6B6C3F784402721B6C3F681612507817A22037EC6EA81CB
S123C6E041250F815A220B7EC6EAB6C3F68820B7C3F6B6C3F7847FB7C3F7B6C3F684E081CC
S123C700C0262DB6C3F78A80B7C3F784202708B6C3F68810B7C3F6F6C3F6C0C08600FDC358
S123C720FDCCC8F41CFEF3C3FD1F01A684B7C3F6B6C3F681FF270DB6C3FA8A80B7C3FA864F
S123C740001CFE398600B7C3FA7EC571347635763476357634763576347635763934768E0F
S123C7600100BDC74C301F26F9357639495341204D554C54492D494F3A0020204B42443AC0
S123C7802056543832433432204E4F5420464F554E442E0020204B42443A20494E495449F5
S123C7A0414C495A45442E0020204C50543A20494E495449414C495A45442E00FFE8FFE4D6
S123C7C0E2E0E1EBFFE9E7E5E30960FFFFB4B0FFB27131FFFFFF7A73617732FFFF637864E1
S123C7E0653433FFFF207666747235FFFF6E6268677936FFFFFF6D6A753738FFFF2C6B6952
S123C8006F3039FFFF2E2F6C3B702DFFFFFF27FF5B3DFFFFBCB10D5DFF5CFFFFFFFFFFFFB8
S123C820FFFF08FFFFC0FFC3C6FFFFFFC9CAC1C4C5C71BBDFACEC2CDCCC8BEFFFFFFFFE6A4
S123C840ECFFE8FFE4E2E0E1EBFFE9E7E5E3097EFFFFB4B0FFB25121FFFFFF5A534157406B
S123C860FFFF435844452423FFFF205646545225FFFF4E424847595EFFFFFF4D4A55262AB9
S123C880FFFF3C4B494F2928FFFF3E3F4C3A505FFFFFFF22FF7B2BFFFFBCB10D7DFF7CFF43
S123C8A0FFFFFFFFFFFFFF08FFFFD0FFD3D6FFFFFFD9DAD1D4D5D71BBDFADED2DDDCD8BE2B
S123C8C0FFFFFFFFE6EC11B514B31FB627B72FEF37FA3FFB4ACB5ACF5EFC69F36BF86CF208
S123C8E070F071F172F774F975F67AF57CED7DF47EFD0000F3F7F5F8FFF9F2F6F4F0F12FB2
S123C9002A2D2B0D313233343536373839302E2F2A2D2B0D8E30FFBDC9392607301F26F776
S123C9201A0139B713F0860DB713F2BDC74C860CB713F2BDC74C1CFE39F613F2C48039BD20
S123C940CE688ECB9FBDCE7CBDCE688EC390BDCE7CCC1100BDCE88BDCE68BDC967BDCE6800
S123C960BDC9D2BDCE68398ECBACBDCE7C86FFBDCB052554BDCB22254F8145264BBDCB2299
S123C980254681532642BDCB22253D81502639BDCB22253481332630BDCB22252B813226D0
S123C9A027BDCB2225228156261EBDCB222519813126158ECBC2BDCE7C8E00208600BDCB8D
S123C9C005301F26F71CFE398ECBBEBDCE7CBDCE68398ECBB5BDCE7C86FFBDCB5225E9BD06
S123C9E0CB6F25E4814526E0BDCB6F25DB815326D7BDCB6F25D2815026CEBDCB6F25C98143
S123CA003326C5BDCB6F25C0813226BCBDCB6F25B7815626B3BDCB6F25AE813126AA8ECB5B
S123CA20C2BDCE7C8E00208600BDCB52301F26F71CFE3934028605BDCB053502BDCB053911
S123CA4034028608BDCB053502BDCB0539860A7ECAED34028608BDCB523502BDCB52398651
S123CA600ABDCB52250DBDCB6F250881002704B701093986FFB701093934028619BDCB05F1
S123CA80B60100BDCB053502BDCB0539861ABDCB05B601007ECA618604BDCB052509BDCBF7
S123CAA0222504B70109398600B7010939860BBDCB052509BDCB222504B70109398600B757
S123CAC0010939860BBDCB522509BDCB6F2504B70109398600B7010939861C7ECAC53402F7
S123CAE08601BDCB053502BDCB05398603BDCB05250DBDCB22250881002704B701093986D6
S123CB00FFB701093934148E2500F61102C4022709301F26F535141A0139B7110035141CEA
S123CB20FE3934148EFF00F61102C4022709301F26F535141A01398EFF00F61102C401265E
S123CB4009301F26F535141A0139B6110035141CFE3934148E2500F61102C4102709301F07
S123CB6026F535141A0139B7110135141CFE3934148EFF00F61102C4102709301F26F53513
S123CB80141A01398EFF00F61102C4082609301F26F535141A0139B6110135141CFE3944E9
S123CBA055414C2045535020494F3A002020455350303A20002020455350313A20004E4F93
S123CBC05420464F554E442E00BDCE68BDCC0F26328ECE05BDCE7CBDCE68BDCCA425188EFD
S123CBE0CE17BDCE7CFC0200BDCE88FC0202BDCE88BDCE681CFE398ECE2ABDCE7CBDCE685B
S123CC001A01398ECE3FBDCE7CBDCE681A01398ECDFABDCE7CBDCE688EC390BDCE7CCC12BE
S123CC2060BDCE88BDCC5F8606BDCC3A86AABDCC49BDCC4DBDCC45815539B71261BDCC4D91
S123CC4039B6126139B6126039B71260391212121212123934108E0500301F26FC3590348C
S123CC60308605BDCC3A108E000F8EFFFF301F26FC313F26F535B03434108E00308E8000D4
S123CC80BDCC418480270D301F26F5313F26EE35341A01398622BDCC3ABDCC4DBDCC45359F
S123CCA0341CFE3934308615BDCC3A8607BDCC49BDCC4DBDCC45BDCC4D8615BDCC3A860664
S123CCC0BDCC49BDCC4DBDCC45BDCC4D108E01008651BDCC3A8E8000301F26FCBDCC7781CB
S123CCE014270E81162713BDCC4D313F26E27ECCF6BDCD0735B01A0135B08ECE55BDCE7C5A
S123CD00BDCE681A0135B08653BDCC3ABDCC7781142631BDCD4FBDCC4581082627BDCC4549
S123CD20B70200BDCC45B70201BDCC45B70202BDCC45B70203BDCC45BDCC45BDCC45BDCCA8
S123CD40451CFE391A01398602B701031A013986287ECC3A862B7ECC3A8654BDCDD98E0218
S123CD6000C608BDCC77811D26DDBDCD4FBDCC45814026D33404C640BDCC45A7805A26F834
S123CD8035048655BDCC3A5A26D9BDCC77811426B68600B701031CFE398656BDCDD98E028B
S123CDA000C608BDCC77811E269DBDCD548640BDCC493404C640A680BDCC495A26F83504E2
S123CDC08657BDCC3A5A26DBBDCC7781141026FF768600B701031CFE39BDCC3AB60107BD42
S123CDE0CC49B601064CBDCC49B60105BDCC498600BDCC498601BDCC49394348333735207D
S123CE005553423A00202043483337352044455445435445442E00202043483337353A202C
S123CE20424C4F434B533D30780020204348333735204D45444941204552524F522E002069
S123CE40204348333735204E4F542044455445435445442E0020204348333735204E4F209C
S123CE604D454449412E00393406860A8D40860D8D3C3586340686208D3435863406A6807D
S123CE8027048D2A20F8358634068D081E898D041E8935863406444444448D06A6E48D027A
S123CEA03586840F8B30813923048B0720003402BDCADE35027EC1AD000000000000000014
S123CEC000000000000000000000000000000000000000000000000000000000000000004E
S10BCEE0000000000000000046
S50300708C
