S12320008600B7EFE28601B7EFE18D1D8612B7EFDC8613B7EFDD8600B7EFE18D0C8600B7DD
S1232020EFE08601B7EFE2201C8EEFD08600A7804C811026F9860EB7EFD18610B7EFDE86E1
S123204011B7EFDF398E2200108EE000A680A7A0108C000026F68601B71FE08E4200108EAF
S1172060C100A680A7A0108CDFFF26F68600B71FE07EE10801
S1232200FFFF2000108E04507EF997F704DDBF04DE10BF04E0F604F3F704E2316AAEA4E6D3
S123222080AFA4C1712437588EF8B53AEC84FD04D310BF04E3B604A32606357F6E9F04D352
S1232240BDE54E5353522000AEA4E61FBDE47DBDE54E202D2000357F8D336E9F04D31F2405
S1232260BDE54E496E76616C6964205353522000BDE47DBDE54E206174202400ECE18300D4
S123228002BDE545BDE5887EE1C68D01393407BDE54E50433D00EC65830002BDE545BDE5E1
S12322A04E2043433D00A6E4BDE55ABDE54E2044503D001FB8BDE55ABDE54E20413D00A67B
S12322C061BDE55ABDE54E20423D00A662BDE55ABDE54E20583D001F10BDE545BDE54E203F
S12322E0593D001F20BDE545BDE54E20553D001F30BDE545BDE54E20533D001F40C300077D
S1232300BDE545BDE588358710CE06008E04006F808C060025F9BDE004BDE6257F04F4BD3A
S1232320E57E0A43554249582076657273696F6E20312E350A0D0A436F70797269676874FD
S123234020313938332D3230303520446176652044756E6669656C640A0D416C6C2072697A
S1232360676874732072657365727665640A0D00B604F42618108EF761BDE377CEE18D34A3
S12323804010FF04E3BDE69226037EE25B10CE0600BDE633BDE4A58D3427F21F89BDE54E78
S12323A052633D00BDE47DBDE58820E134018E0000BF04F1BE04EE2604350120DC35017EA7
S12323C0F5D010FF04F14F5FFD04EE20C010FF04E3B604F3B704E2BDE4DC271A10BF04D70B
S12323E08140102712D98EF843BDE505C10E2434588EF8996E9539BDE2968645C658ED8120
S1232400A784BDE659A688178520102706A4EC8813AE8815BF04D5BDEEBFF604F3BDE4DC88
S12324206E9F04D57F04D58E04AEBDE3B38D6F862AA784B604BFB704F3CC0000BDE5FCBDA2
S1232440E32327173088208C080025F3FC04E7BDE5DF26E88EF76B86FF2062A68812B70448
S1232460D2EC8810FD04D0108340001027126581452609C1582605A1881227891F128E04C9
S1232480C8ED81A6A812A7806F808C04D025F910BE04D77EE1FABDE3B086FFB704D5C608D9
S12324A0BDE4E92706812F2605313F7EE3A9A7805A2AED7D04D5279C8EF78086013401F6A4
S12324C0046DC108240A108E047E5810AEA52605C601F7046DF6046CC108240A108E046EEE
S12324E05810AEA52605C601F7046C7D04A22706BDE574BDE58835013401F604E2F704F3FF
S1232500BE04DE10BE04E0F604DD3501270510FE04E33910FE04E31A04398E04AEBDE3B31F
S12325207EE2993436108E04C0A68426034A2010C6088D0E260AC6088D082604C6038D0287
S123254035B6A6A0812A2708A18026065A26F33930015A2704312120F7812A393416C6134D
S12325608E04C0A680812A27045A26F74F4D35968D058DE82620398D37C6088D26812E278A
S123258007A7805A2AF5200E8D1FC603BDE4E92708A7805A2AF67EE2B88D0EBDE4DC8E04D1
S12325A0C04F39BDE4E927EE395A2B516F8020F98E04A5A680B704BFBDE4DC270BE621C1CB
S12325C03A26058D3DB704BF34201F128E04C0C608A6A0A7805A26F93520A6A4815B261D05
S12325E08E04C03121C608BDE3A3815D2708A7805A2AF47EE2B88DB17D04C027F64F39BD7D
S1232600E4DCECA1C13A26EB8041810424E51A0439BDE4DC27DD812426433121BDE4DC2732
S1232620D28E0000BDE4E927288030810A250A81112DC08007811024BAB704D48605B704A9
S1232640D31F10308B7A04D326F7FA04D41F0120D3BDE4DC4F39BDE4DC1027FE5B8E0000C6
S1232660BDE4E927EC803081091022FE4B3402CC000ABDF6F0EBE089001F0120E34F343625
S1232680108E00001F01CC000ABDF710340431218C000026F135028B30BDE59A313F26F5F8
S12326A035B6BDE588862ABDE59A108E04001F20C15022EEBDE5DA817F27048108260B3181
S12326C03FBDE54E0820080020E4BDE59A8D2BA7A0810D26D9108E04007EE588A6A0812057
S12326E027FA6DA22702810D39A6A0270881202708810D2604313F1A0439816125FB817AF5
S123270022F7845F395F8DD4A6802AFC301F3420847F272CB704D330017A04D3A6848DDADA
S1232720B704D48DC42714B104D427EB812F2709813D270535205C20CF313FBA04D32AF456
S12327408D9A5D35908D131E898D0F1E89393410AE628D20AF621A0435903402444444442E
S12327608D06A6E48D023582840F8B308139232A8B0720263402A680271E8D1E20F834101D
S1232780AE628DF0AF6235103402860A8D0C860D2004340286208D0235823416F6046D2049
S12327A0023416C108240D8E047E58AE852705AD844F35968EF81E860A7EE2BD8D0326FCBA
S12327C0393414C10824ED8E046E58AE8527E5AD8435943414F6046C20E98DF726FC39343F
S12327E00258498401C306001F013504CB014F34108D093510EC841083FFFF3934028E064D
S123280000B604F3B104E62608A6E410B304E727108D20B604F3B704E6A6E4FD04E7BDEABB
S1232820E435828D0E3406CCFFFFFD04E7B704E64F35867D04E527C33416B604F33402B694
S123284004E6B704F3FC04E78E0600BDEB177F04E53502B704F34F35968D372758108EF763
S12328609B860234037D04A22721BDE54E4572726F722070726F63657373696E6720666949
S12328806C653A2000BDE6D7BDE5881F2135037EE2BDB604BFB704F3CC0000BDE5FCBDE39F
S12328A02327123088208C080025F3FC04E7BDE5DF26E88602398DA18D30BDE58830882010
S12328C08C0800250BFC04E7BDE5DF27E8BDE5FCBDE32326E820E134168E04BFA6808B41BC
S12328E0BDE59A863ABDE59A20023416865BBDE59A8D12865DBDE59A8D0B862EBDE59AC607
S1232900038D043596C608A6802703BDE59A5A26F639B604F33450BDEB0EE643A6423D1FF7
S1232920014FE641BDF6F035D0BDE35C1026FB88BDE6922609108EF7AA86077EE6638D6FCC
S1232940FD04D5CC0000BDE5FCC6106D8427323088205A26F6FC04E7BDE5DF26E9FC04D579
S1232960ED84BDE7A634068D46FD04D5BDE6383506FD04E78E06006F808C080025F98E06EE
S1232980003420108E04C0C613A6A0A7805A26F935203088EDFC04DBED881586F0A78817A3
S12329A0FC04D5ED88137F04E57A04E51A0439BDE712FD04D38300018B0134027D04E72636
S12329C00EF604E8B104E82506C10125028D11C6018D0D5CE1E423F98EF7BE86087EE2BD28
S12329E04F3434BDE5FCEC8127078C080025F735B41F108306024456A6E4800110B304D351
S1232A0024ED3261108EFFFF10AF1E3530326320953414BDE8A8EC8813ED42ED444F5FEDCF
S1232A2048ED46F604BF8601EDC4B604E2B704F34F35943414304AA641B704F3EC48261201
S1232A40A6C44A2676EC441083FFFF2776BDEAE4EC48308BC3000110830200250F3410EC8D
S1232A6044ED46BDE5DFED4435104F5FED48B604E2B704F3A68081FF27491A043594341472
S1232A80A6C44A2636A641B704F3EC441083FFFF2731ED46BDEAE4BDE5DFED44B604E2B7B1
S1232AA004F34F5FED483594BDE659A6881785802635108EF80486037EE6638EF7D5860400
S1232AC07EE2BD86067EE2F83406EC42ED444F5FED48ED463586BDE6922705BDE729200732
S1232AE0A68817854027CBFC04E71A043934148DE5EC8813ED42ED444F5FED48ED46B60427
S1232B00BFA7418602A7C4B604E2B704F34F35943416304AEC481083020025048D19EC4825
S1232B20308BC30001ED48A6E4A7841A0435968EF7EC86057EE2BD3414A6C4810226F0A635
S1232B4041B704F3EC441083FFFF2613BDE7AF3406EC46BDE5DF3506ED84BDE7A6AE61ED56
S1232B6046BDEB17BDE5DFED44B604E2B704F34F5FED4835943414A6C481022639A641B772
S1232B8004F3EC482604AE462617304A308B1083020024096F846380C3000120F1304A8D02
S1232BA096EC46BDE5DFCCFFFFED84EC441083FFFF2703BDEE106FC4B604E2B704F34F35E6
S1232BC094BDE8C83416E6C45A1026FEEEA641B704F3EC48E3E410830200251A3406EC44B2
S1232BE01083FFFF1027FEDBED46BDE5DFED44350683020020E0ED48270FEC441083FFFF5F
S1232C001027FEBF304ABDEAE4B604E2B704F34F35963430A641B704F3108E0000EC42107E
S1232C20A344270931A90200BDE5DF26F2EC483420E3E13402B604E2B704F34F35B23506C7
S1232C40FD04DBEC46AE4810AE423436ECC434068102262D8C00002728A641B704F3EC44A2
S1232C601083FFFF2610BDE7AF3406EC46BDE5DF3506ED84ED44304ABDEB17B604E2B704DC
S1232C80F3BE04DE10BE04E0F604DD4F6E9F04DB3506FD04DB3506EDC4F704F33536AF4886
S1232CA010AF42ED46260510AF442005BDE5DFED44EC482707EC44304ABDEAE4B604E2B7ED
S1232CC004F320B234161F01A643E6423DBDF7106F45E1432506E0436C4520F6E7461F1062
S1232CE0E744359634767F04F48D20ECE48DD5AE62BDF74127137C04F4F604F4C105273C10
S1232D00C10326EBBDF73720E235F6B604F3C6073DC304501F033934767F04F48DEDECE42E
S1232D208DA2AE62BDF74527E07C04F4F604F4C1052709C10326EBBDF73720E2B704D33573
S1232D407610B304E726123402B604F3B104E635022606BDE6257F04E5BDE54E4572726F7A
S1232D607220616363657373696E6720626C6F636B2000BDE47EBDE54E206F6E2064726957
S1232D8076653A2000B604F38B41BDE59ABDE5888EEBAD7A04D3270AA68026FCA68426F3E8
S1232DA03001BDE574BDE58886097EE2F84469736B20666F726D6174206572726F720042F7
S1232DC0616420736563746F7200536563746F72206E6F7420666F756E64004469736B20B2
S1232DE077726974652070726F74656374656400004469736B2073797374656D2065727201
S1232E006F7200BDE623BDE3FFB704F3BDEB0BCC0203FD04DBBDE4DC27288EF45ABDF115EF
S1232E203404BDE41135024D2605F704DB20E64A2605F704DC20DE4A81031022F67AE7C6B2
S1232E4020D3BDE54E466F726D617474696E672000B604F3BDF2628EF45A4FF604DBBDF2E3
S1232E60A18601F604DCBDF29BBDE54E0A0D4F6B3F2000BDE5DABDE59A84DF81591026F9C2
S1232E8007BDE588B604DBBDF733B604DCB704DB8E06006F808C080025F98E0600CC0000C0
S1232EA0BDEB17BDE7128300011F89FD04D9CC00027C04DA7C04DB7A04DA2708BDEB17C307
S1232EC0000120F37A04DB2708BDEB17C3000120F3CCFFFFED843002108E01FECC00027C68
S1232EE004D97A04D9270BED81313F313FC3000120F034067D04DC2703FD0600CCFFFFEDCB
S1232F0081313F313FCC0001FD04D935067C04DC108C000026028D1E7A04DC270BC300014F
S1232F20ED81313F313F20E8CCFFFFED1E8E0600FC04D97EEB1734068E0600FC04D9BDEB26
S1232F4017108E02004FA780313F26F97C04DA8E0600108E0200350639BDE3FFB704F3BDA5
S1232F60E4113410BDE41C34108E0001BDE4DC2703BDE4111F1235103506BDEAE430890234
S1232F8000C30001313F26F239BDE3FFB704F3BDE4113410BDE41C34108E0001BDE4DC2731
S1232FA003BDE4111F1235103506BDEB1730890200C30001313F26F2398E04C0C6136F808E
S1232FC05A26FB862AB704C8B704D03420BDE3B0BDE4E935202703BDE3777EE6B6FCE002F8
S1232FE0FD04DBBDE370BDE4DC2706BDE41CBF04DB7EE729BDE377BDE659BDE35C262CA647
S1233000881785101027FAAA6F84BDE7A6EC8813BDE5DF270F1083000027096F846F01BD3F
S1233020E7A620EC6F846F017EE7A6CC0000BDE5FCBDE3232654BDE6EAA688178510261041
S1233040BDE57E2050726F74656374656400203ABDE54E2028592F4E2F51293F00BDE5DAB6
S1233060BDE59ABDE58884DF8151272E8159261A6F84BDE7A63414FC04E7FD04D5EC881379
S12330808D8EFC04D5BDE5FC35143088208C0800259FFC04E7BDE5DF2694393410BDE8A839
S12330A0EC881335102018BDE370BDE8A8EC88133406AE8815BDE4DC2703BDE41C3506BD43
S12330C0EAE4308902003410BDE5DF351026F039BF04DBFD04D9200FBDE370BDE41CBF04D3
S12330E0DBBDE411BF04D97D04DA1027F3CABDE8D6EC8813FD04D7BE04DBBDEB1730890263
S123310000BF04DBFC04D77A04DA2719BDE5DF26E3BDE7AF3406FC04D7BDE5DF3506ED8483
S1233120BDE7A620CFBDE5DF27A53406CCFFFFED84B704E535067EEE10FC04F127041F04FA
S12331404F39BDE57E4E6F2073757370656E6465642070726F6772616D0010FE04E34F3986
S1233160BDF14EF704D77F04DACCFFFFFD04DB4F5F3406860DBDE59AB604DABDE55A7C04B3
S1233180DA8D282608ACE423EAAFE420E6BDE5883506B304DB830001444CB704DABDE4DC1B
S12331A027BCBDE3707EEEE7B704D78D5B815326FA8D55813027F48139260386063981314F
S12331C0263E8D4AB704D88003B704D98D4034028D3C1F89ABE4BB04D8B704D835021F0182
S12331E010B304DB2403FD04DB8D23A780BB04D8B704D87A04D926F18D14BB04D84C271AF2
S12332008EF82D860B7EE2BDF604D77EE5BC8D0B4848484834028D03AAE0398DEB8030816F
S123322009230A811125D98007811024D339BDF14EF704D7BDE5D3260C811B1027F549F600
S123324004D7BDE5A1F604D7BDE5C126E7BDE59A20E28EF3D2BDE505BDE4DC27778EF41521
S1233260586E95BDE3B0BDE4DC266934368E04A520108E04AEBDE3B3BDE4DC265734368E3D
S123328004AE108E04BFC609A6A0A7805A26F935B6BDE370BDE65934108EF441BDF1155D44
S12332A0260CBDE41C1F103510ED8815200A5A26238D0D3510A78817BDE4DC26DA7EE7A6A3
S12332C04F34168EF0DFBDE4E92712C680A18027065426F97EE2B8EAE4E7E420E635965256
S12332E05745443F3F3F3FBDE623BDE3FFB704F3BDEB0B3420BDF73735208EF479BDF115D6
S12333003404BDE4111F103502810322C7E7C6BDE4DC26E639BDE505A6A0813D26B639BD00
S1233320E41C3410BDE41C1F103510E780BDE4DC26F0398EF4A8BDF115C102249734048DB1
S12333400D35028E046CE786BDE4DC26E639BDE4118C00081024F45C1F10395434048EF4B8
S1233360A0BDE50535025D270B5A1026F14A3414C6FF200334145F81031024F13B8E04A282
S12333803086A684E7841A0435948EF3D2BDE505588EF42B6E958E04A520038E04AEA68035
S12333A08B41BDE59ABDE54E3A5B00C608A6802703BDE59A5A26F6865DBDE59A7EE588BDE5
S12333C0E370BDE659BDE54E46696C653A2000BDE6EABDE54E0A0D4469736B2061646472F6
S12333E06573733D00EC8813BDE47EBDE54E2C204C6F616420616464726573733D2400EC8C
S12334008815BDE545BDE54E2C2050726F74656374696F6E3D00E68817108EF0DFA6A058F4
S12334202403BDE59A5D26F5BDE588108E0000EC88133121BDE5DF26F9BDE54E46696C65FC
S123344020636F6E7461696E7320001F20BDE47EBDE57E20626C6F636B2873292E0039BD38
S1233460E3FF3442BDEB0EBDE54E44726976653A2000A6E48B41BDE59ABDE5888EF4794FF0
S1233480E6C48D1D8601E6418D118602E6428D0B8603E6438D0535427EE588BDE54E2C205E
S12334A0008D08863DBDE59A7EE47D34144CE6802AFCC47F270F4A26F5A6802B05BDE59A05
S12334C020F74F3594860135948EF4A84FF6046C8DCF8601F6046D8DC27EE588541F988E6D
S12334E0F3D28DC7863DBDE59A8E04A2A685270286018EF4A08DB47EE588BDE41C3410BD95
S1233500E4DC2703BDE41CBF04D535101F10BDE545C610C5032603BDE592BDE592A680BDFB
S1233520E55A5A26EEC604BDE5925A26FA3010C610A68081202504817F2502862EBDE59A45
S12335405A26EEBDE588BDE5D32705BC04D523BC4F39BDE3FFB704F38D3EBDE54E4472690B
S123356076652000B604F38B41BDE59ABDE54E206861732000FC04D7BDE47EBDE54E2062C3
S12335806C6F636B732C2000FC04D5BDE47EBDE57E206672656500393430BDE712FD04D7BE
S12335A01F024F5FFD04D5C601FD04D3BDE5FCEC8126075CF304D5FD04D5313F270D8C0859
S12335C00025ECFC04D3C3000120DEFC04D51A0435B0834D657373616765834465627567B7
S12335E08254726163658344454641554C548253595354454D8246494C45824452495645C9
S1233600834D454D4F525982434F4E534F4C45824652454580F15BF15BF15BF063F072F008
S123362091F0E7F11FF133E2B8E2B8F2DCF2DCF2DCF196F19BF1BFF25FF2FAF2C9F352E26A
S1233640B8814C4F41445F414444524553538150524F54454354494F4E8081496E7465721D
S12336606C65617665814469726563746F727920657874656E73696F6E8141646472657332
S1233680738143796C696E6465727381486561647381536563746F72732F547261636B8017
S12336A0824F4646824F4E8081496E707574814F7574707574803506FD04EEB604F03931A9
S12336C021B704D5BDE3B0BDE29ECC4000ED816F80BDE659A6881785201027F3D5B604BFE1
S12336E0B704E9EC8813FD04EA4F5FFD04ECFC04EE34067F04F010BE04D7BDF5F98E040094
S1233700BDF66D27B1813F262DBDF66D803081092308C63FE7808B30201C1F89108E04F573
S1233720BDE4DC5A2B07BDE4E926FB20F3BDE4E927CEA78020F7A780810D26C4108E0400C0
S12337407D04A42717862ABDE59A1F21A6802709810D2705BDE59A20F3BDE588BDE4DC814F
S12337603F2659ECA1BDE4DCC14F2704C1502616A6A02709810D2705BDE59A20F3C14F273F
S123378066BDE5882061C1462607B604F0275820CBC15326035F2009C152260CBDE4111FF1
S12337A010F104F0264120B4C145263EBDE4DC2708BDE4111F10F704F07EF4B6BE04ECFC21
S12337C004EA3416B604E9340210FF04EEBDE1CD26014FB704F010FE04EE3502B704E93537
S12337E016FD04EABF04EC7EF4FDC13D2707C1492618BDE4A58D0220EE34108E04F5A6A03E
S1233800A7802704810D26F63590C14026083506FD04EE7EF4C4C1412613BDE41130013006
S12338201F27C48D482792810D26F820F2C14B2608BDE5DAB704F02031C13F262DBDE4DCAC
S123384027161F21A6A0810D270E812026F6A68081202708A1A027F686FF200BA6A0810D49
S12338602704812026F24FB704F07EF4FD3410B604E9B704F3FC04EC10830200250DFC04AF
S1233880EABDE5DF271EFD04EA4F5F8E0600308BC30001FD04EC3410FC04EABDE5FC3510CA
S12338A0A68081FF3590B6046C2020B6046D201B3404F6046CB7046C20083404F6046DB78E
S12338C0046D1F981A043584B704F31A04393440CE046E48ECC6200C3440CE046E4833C611
S12338E0ECC4AFC41A0435C0CC04B739CC0450393416A661E6633D3406A662E6653DEBE405
S1233900E7E4A663E6643DEBE4E7E435063264393416CC00008E00111CFE69636962301FEF
S1233920270D594910A3E425EFA3E41A0120EB32623590AD9F04946F446F456F466E9F04EB
S12339408E6E9F04906E9F04926E9F04966E9F04986E9F049A6E9F049C6E9F049E6E9F0429
S1233960A0535441525455502E2A00556E7265636F676E697A656420636F6D6D616E64002C
S12339804F706572616E64206D697373696E67206F7220696E76616C69640046696C652098
S12339A06E6F7420666F756E640046696C6520616C72656164792065786973747300496E7D
S12339C0737566666963656E74206469736B2073706163650046696C65206E6F74206F7035
S12339E0656E20666F7220726561640046696C65206E6F74206F70656E20666F722077729A
S1233A006974650046696C652070726F74656374696F6E2076696F6C6174696F6E00496ECD
S1233A2076616C69642064657669636500446F776E6C6F616420666F726D61742065727298
S1233A406F720084464F524D415482524541448257524954458246494C45538243524541F7
S1233A6054458344454C455445824C4F414482534156458252554E8252455455524E825372
S1233A8045548253484F5782444F574E4C4F414482434F4E4E45435480EC03ED59ED89ED48
S1233AA0B9EDDDEDF4EEA7EED8E1F7EF39F052F18AEF60F02EE1ACE4A5E4A2E4AAE4DCE44B
S1233AC0E9E456E41CE411E377E370E296E31AE31DE3B0E3B3E3FFF0C0E505E323E35CE5D9
S1233AE092E588E574E54EE57EE47EE545E55AE568E6D7E6EAF2ABE59AE5DAE5D3E5A1E531
S1233B00BCE5C1F6A6F6ABF6B0F6BAE2B8E65DE8B2E8BBE92FE735E7D8E5B4F000E663EEDF
S1233B209BEED0E811E8EDE975E87EE833E937E910E8C8E9C4E9C1EA12EA3EEA90E692E65F
S1233B4059E8A8E8D6E729EDF7F06BF07DF6C8E5DFEEBFE7AFEE10E715E712F398E5FCE7F3
S1233B60A6E633E638E623EB0EEB0BEAC4EAE4EB17E6B6E004F737F741F745F733E1CDE113
S1233B80C2F6CEF6D8F16EF174F5F9F6F0F710E08AEFA8F6E8F6EC8EFF09C66FA680A7A035
S1233BA05A26F98600B70100BDE57E0A5F5F5F5F5F5F5F5F5F5F5F5F5F5F5F5F5F5F5F5FB4
S1233BC05F5F5F5F5F5F5F5F5F5F5F5F5F5F5F5F5F5F5F5F5F5F5F5F5F5F5F5F5F5F5F5F01
S1233BE05F5F5F5F5F5F5F5F5F5F5F5F5F5F5F5F5F5F0D0A0D0A4375626978202D2D2064EC
S1233C006574656374696E672068617264776172650D0A5F5F5F5F5F5F5F5F5F5F5F5F5FF5
S1233C205F5F5F5F5F5F5F5F5F5F5F5F5F5F5F5F5F5F5F5F5F5F5F5F5F5F5F5F5F5F5F5FA0
S1233C405F5F5F5F5F5F5F5F5F5F5F5F5F5F5F5F5F5F5F5F5F5F5F5F5F00C602BDFB68C66B
S1233C6015BDFB68BDE57E5F5F5F5F5F5F5F5F5F5F5F5F5F5F5F5F5F5F5F5F5F5F5F5F5FA4
S1233C805F5F5F5F5F5F5F5F5F5F5F5F5F5F5F5F5F5F5F5F5F5F5F5F5F5F5F5F5F5F5F5F40
S1233CA05F5F5F5F5F5F5F5F5F5F5F5F5F0039C6007EFB68C601BDFB6881FF27031A043965
S1233CC086FF3986FF393939BDFB4184F08110260DC613BDFB688D18B6010381003981200E
S1233CE0260DC616BDFB688D07B60103810039393420108E0000A6A90200A7803121108CF8
S1233D00020026F23520393420108E0000A680A7A902003121108C020026F23520BDFB4137
S1233D2084F08110260BC614BDFB68B601038100398120260BC617BDFB68B6010381003998
S1233D40393420A645B70108A644B70106A646B701074FE6C4581F02A6A904B7E6A904B80D
S1233D60B70104F7010535A0FD0109BF010B10BF010DFF011110FF010F10CE00FF8601B7B7
S11F3D801FE0BDC1008600B71FE010FE010FBE010B10BE010DFE0111FC01093957
S12341003B030002000003040100FF01FF00000001FF01FF00000002FF01FF00000003FF51
S123412001FF0000000101FAC3FAB4000000000000000000000000FAC5FAAF0000000000A6
S123414000000000000000FAC7FAC8FB07FAC6E00BFF00FF00FF00FF00FF00FF0000004DE4
S11B416041494E000000000053595354454D0000200020012002200300
S12341F2F751F74DF759F755F749F75DE1085886001F01EC89C113FD0101FC01096E9F01AA
S123421201C184C18FC173C3CEC3CEC3CEC3CEC3CEC3CEC3CEC3CEC3CEC3CEC3CEC3CEC32F
S1234232CEC3CEC3CEC3CEC3CEC3CEC1A6C295C2B5C3CEC3CEC3CEC3CEC3CEC3CEC3CEC3D6
S1234252CEC3CEC3CEC3CEC3CEC3CEC3CEC3CEC3CEC3CEC3CEC3CEC3CEC3CEC3CEC3CEC338
S1234272CE8600B71F85860BB71F86861EB71F873939F61F85C41027F9B71F8439B61F859E
S123429284082708B61F84B70109393986FFB70109390000BDC3CF8EC364BDC3E3BDC3CF8C
S12342B28EC36CBDC3E3CC1300BDC3EFBDC1EC25037EC1CF8EC373BDC3E37EC1E8BDC3CF3D
S12342D28EC380BDC3E38600BDC2308EC391BDC3E38601BDC230BDC3CF398E0000F61300C5
S12342F2C180262BC600F7130012F7130112F7130612F7130812F7130A12F7130C12F71379
S12343120E12F7130E1230018C030026D0200CF61304C10126051CFE7EC22F1A01398401FF
S1234332484848488AE0B7130CBDC2DA25438601B7130286EFB7130E121212121212121216
S123435212121286ECB7130EBDC2FE2524BDC32A8EC3A2BDC3E3B6027BBDC3FBB6027ABD64
S1234372C3FBB60279BDC3FBB60278BDC3FB7EC28F8EC373BDC3E3BDC3CF1A0139BDC3CF2A
S12343921CFE39BDC2DA2515BDC3A58620B7130EBDC2FE2508BDC32A4FB70103398602B7A8
S12343B2010339BDC2DA251ABDC3A58630B7130EBDC2FE250DBDC347BDC2DA25054FB7015F
S12343D203398602B701033934068600B7C1A4B7C1A5F6130EC480270F7CC1A426F47CC14D
S12343F2A526EF1A017EC2FC1CFE358634268600B7C1A4B7C1A5F6130EC488C1082715C47C
S123441201C101270A7CC1A426EC7CC1A526E71A017EC3281CFE35A6108E0000F61300E7A9
S1234432A902003121F61301E7A902003121108C020026E839108E0000E6A90200F713005D
S12344523121E6A90200F713013121108C020026E8395050494445203A0020494F3D3078B8
S123447200204E4F542050524553454E5400205050494445303A20424C4F434B533D00209D
S12344925050494445313A20424C4F434B533D003078003406F60104C40158585858CAE062
S12344B2F7130CF60105F7130AF60106F71308F60107F71306C601F713043586393406861A
S12344D20A8D40860D8D3C3586340686208D3435863406A68027048D2A20F8358634068DA0
S12344F2081E898D041E8935863406444444448D06A6E48D023586840F8B30813923048B99
S12345120720007EC18434043402588600F601001F01EC89C113FD01013502AD9F01013536
S1054532043946
S9
