S1232000BE2E2E3F173F04813F26143F195573653A20454454203C66696C653E003F008654
S1232020301F8B8E3021A69F2E3026037F3005A6A0A780810D26F86F1F108E30213F0A265E
S1232040DC3F44270BCC2DA9FD301B8E329820058E32983F3586FFA7844F5FFD3000FD3000
S123206019CC3298FD300DFD300F7A3004B63005102A0130FE30192708BD2B574F5FFD30A3
S123208019BD2B0EF7301D3440B630042703BD2BADBE301B2713BD2CB2BD2C9A3F17BD2C2C
S12320A09EBD2C924F5FFD301BBD2CB7354010CE3298BD2CE88181270A81802706F6301DDB
S12320C0F730003402F630004F31CBA6E02A08488E2DECAD962096BD2A90E6A42B0DC10D87
S12320E02709810D27057D3007271134221F983121E6A4A7A42AF67C300B3522A7A47C30AD
S123210000810D260EBD2AD1BD27D37F3000BD28A220051F23BD2BE77E206DBD2CB23F1821
S1232120436F6D6D616E643A2000BD2C928E303A8D30BD2CB2BD2C9A7A30068E303AA68066
S12321402B05BD2C6C20F7BD2C9E7F3006BD2C92BD2AD1BD2235FC301B2606CC2DA8FD301B
S12321601B395FB630052A27BD2CE8818B260B5A2BF03F180820080020E9818D270CA785EC
S12321802BE15CBD2C6C20DB3F1686FFA785393F22810827DA817F27D6810D27EBA7855C34
S12321A03F2120EBBE301B27093F173F164F5FFD301BFE3019270ABD2B574F5FFD3019200B
S12321C005B63004271CFE300FA6C02B08810D270C3F2120F43F182A454F462A003F167F65
S12321E030043F183B2A20008E303ABD21628D457E206D81302506813922021A0439BD22C6
S12322002C8E0000A6A48DEB2622CC000A3F6B1F01E6A0C0303A20ECCE3298301F270CA6DA
S1232220C02B06810D26F820F2335F39A6A0812027FAA6A239108E303A7F30157F301F7F7E
S123224030208DE88DAD26068DB48DCC20383121813D26147A3020FE30112705BE301320BD
S123226027CC2D71FD301B39812F260ABD29AC1F31CE32982012FE300F812A27061F313126
S12322803F2008FE300F1F317A301FBD222CA6A0812B2613BD21FEA6C42B273341810D2687
S12322A0F6301F26F2201B812D261EBD21FE300111833298230CA6C2810D26F4301F26F081
S12322C033411F317A301FA6A0F630152605FF30151F13FF3017812C1027FF66FE3015BEBB
S12322E0301711B3301723051E31FF3015E6842B063001C10D26F6BF30178D174D2A1FFFD8
S12323003019B63020270B4F5FFD3011FD30137A300439816125FB817A22F7845F39815121
S12323202623A6A48DED81512710B6300A270BCC2DC3FD301B393F393F56B630052A03BD42
S12323402C8E4F3F00813F26451F21B6301F260FBD29ACFF3017FE3015F630005C33CB11E0
S1232360B3301724138D182606FF30197E2302334120ECB6300426F4CC2D81FD301B3934B9
S123238050A6802B06A1C027F835D04F35D08153267CA6A02B6DB7301D8E306C5FA6A02B67
S12323A062B1301D2705A7805C20F286FFA784F7301D274F8E306C11B3301724B68DC0260C
S12323C049FF30193472C6FF5CA6A02AFBB7300AB73004E7E44F1F02AE63F0301D271B256A
S12323E00BBD29B9F33017FD3017201150BD2A333406FC3017A3E1FD3017BD2A21357233EF
S1232400C620B4CC2D47FD301B39334120A98154260CFF3011301FBF30137A3004398143DD
S1232420262E8D037E2302FE300F11B33015230EB130172409CC2D5DFD301B326239FC30DE
S123244017B330151F02BE3015BD29B97A300439814D260F8DD1FE301511B3300F250E33B2
S1232460CB200A8144260FFC3017B33015BD2A337A30047E2302814C264D8D4311B33017A8
S1232480240EA6C0810D27043F2120F03F1620ECB630052A273F180A0D50726573732061DE
S12324A06E79206B657920746F20636F6E74696E75652E2E2E00BD2CE87A30047E2302B6DE
S12324C03005102B07C839815026718DF28E0001CE329811B33015240AA6C0810D26F430FD
S12324E00120F0862011B3300F2602862A3F218C270F22173F158C03E722103F158C0063AC
S123250022093F158C000922023F151F103F1A862011B33011250811B330132202863D3F9E
S1232520213F15A6C02B12810D27043F2120F43F16300111B3301725AA7E249081461026C3
S123254000C5BD24BFCE32988E000011B330152603BF301DA6C02B08810D26F8300120EB2D
S12325601F308332991F031F103F1846696C656E616D653A20008E30213F178D65FE30152D
S12325808E000011B33017240AA6C0810D26F4300120F03F18506F736974696F6E3A20001B
S12325A0FC301DC300013F1AFC3017B330151F031F108D2E3F1854686572652061726520A3
S12325C000B6300A26063F186E6F20003F19756E7361766564206368616E6765732E007E94
S12325E024903F182C20003F1A3F18204C696E65732C20001F303F1A3F192043686172616A
S1232600637465727300398149262BBD24BF3F19496E7075743A008E306CBD2162B63005AA
S12326202A023F165D27B8860DA7855C4F1F02BD29B933CB20E181562617FF30194F5FFDA9
S12326403000A69F2E3027067A30047330057E230281242626BD24BF8D0B34483F643548B8
S12326606AC47E24903420A6A42B07BD2313A7A020F56FA41F2335203F04398152264E8DDD
S1232680333F37263F7A3004CE303A8E306C3F3A2675A6842B0730018C326C25F51F108381
S12326A0306C1F02FE30158E306CBD29B933CBFF301520D48DAF2604108E30213F0A27074B
S12326C06AC432627E24906AC4CE303A39815727048058263FB7301EB6301F260CBD29AC55
S12326E0FF3017CE3298FF30158DC93F3826D5BE3015A6803F3D260FBC301725F57F300A3C
S1232700B6301E1027FC2F3F393F567F303A7F300C7E2302CC2D37FD301B39CC2D2BFD30F9
S12327201B397330087A30047E2AD1CC2DB27330072B03CC2DB9FD301B39BD2CB2BD2C9A9B
S12327403F1820437572736F723A2000F630018D3A3F1820646F776E2C2000F630028D2BDD
S12327603F18206F7665722C206174206368617261637465722000F630008D0F3F18206972
S12327806E206C696E6520007E2C9E4FC300013F1A39BD2926BD2B0EF73000BD2CB7BD2A42
S12327A0901F23A6C42B17E621E7A02AFA7A300B810D10260431BD2AD1B630042715398D93
S12327C034A6A0A7802B055C810D26F54FF7300CBD2A33F63001FE300F7E2BB48D17A6A0D8
S12327E0A7802B07810D27035C20F34FF7300CBD2A337E2C96BD2AD1F630004FF3300F1FFB
S1232800031F028E316C5F398DEBF6300C4F1F02BD29B920BEBD2AD17E2059BD2AD1FC30A3
S12328200FFD300D7F30017A300439BD2AD1FE300FBE30112613FF3011FF30134FB73002CD
S1232840F63001BD2CC07E2BE711B33011270D22021E13BF3011FF30137E2BAD8E00001F41
S12328601320F0A6A4810D272CA6A42B0B8120230731217C300020F1A6A02B18810D27145A
S1232880812022107C300020EF86FFB73000A6A4810D270E39A6A4810D27047C3000397F8D
S12328A030003416BD2AD1FE300FA6C42B133341810D26F6FF300FF63001C11624057C30CE
S12328C0013596BE300DA680810D26FABF300D8685BD2CA0BD2BB435963406BD2AD1C61694
S12328E0FE300DA6C42B093341810D26F65A26F3FF300DFF300F7F30017A30043586F630B1
S1232900002723A6A2812022055A26F7200B3121A6A2812023035A26F7F7300039B6300099
S1232920270E7F3000397A3000B630004C2701393416BD2AD1FE300F335F118332982506DF
S1232940A6C2810D26F43341FF300F7A30012A2DBE300DC60C8C3298230BA682810D26F58D
S12329605A26F23001BF300D5FF1300024095CA6C0810D26F4335FFF30197A30043596BD8D
S12329802AD1BD29ACFF3019FF300DFF300F3406BD2AD1C617FE300D11833298230BA6C2E6
S12329A0810D26F45A26F133417E28F03402FE300DA6C02AFC335F358234768DEF334130E0
S12329C0CB8CDBFF2253A6C2A78211A36622F711B3300D2408FC300DE3E4FD300D11B3302E
S12329E00F2408FC300FE3E4FD300F11B330112408FC3011E3E4FD301111B330132408FCB8
S1232A003013E3E4FD301311A3622406EC62E3E4ED62AE62BD2A2135F6CC2D8BFD301B3580
S1232A20F63121313F2706A680A7C020F686FFB7300A39345630CB11B3300F2412FC300F62
S1232A40A3E410A36424021F30FD300FFD301911B3300D2412FC300DA3E410A36424021F8A
S1232A6030FD300D7A300411B330112408FC3011A3E4FD301111B330132408FC3013A3E40E
S1232A80FD3013A680A7C02AFA86FFB7300A35D634568E306CF630004F318BB63009262F97
S1232AA0FE300F7F300B7C300BA6C42B0A3341A780810D271020EF860DA780F630015CBD5C
S1232AC02BB4BD2CB786FFA784B73009B7300A35D63476B630092734FE300F1F315FA684CD
S1232AE02B075C3001810D26F54F3404F6300B1F0235048E306CF0300B240650BD29B920CA
S1232B00082703BD2A33BD2A217F300935F63412FE300FB630092703CE306C1F317F300273
S1232B205FF130002414A6802B10810D270C5C7C3002810926EB8D6820E7B63003B130024A
S1232B4022078B50B13002220C8028B730038D817A300420E5359234565FBE300DAC64242A
S1232B600DA680810D26F65CC11623F1AE647F3000F7300111833298230DA65F810D2707F5
S1232B80335F7C300020EDFF300FAE64BC300D2504C11623097F3001FF300D7A300435D6CC
S1232BA0B63002850727057C300220F439FE300D5FF730043446B6300234024FB73002BD24
S1232BC02CC0A6C42B098D1F5CC117241020ECBD2C9A3F182A454F462A00BD2C9EBD2C923D
S1232BE03502B7300235C6B630038B50B7301E11B33011250C11B3301322067A3006BD2CEF
S1232C009AB63002B130032415A6C42B48810D274433417C3002810926E78D8420E3B63088
S1232C2002B1301E2431A6C42B2B810D27183341810927048D3620E63F157C3002B63002D1
S1232C40850726F420D87D30082A0A8D1FB63002B1301E24028D3FA6C42B063341810D26A1
S1232C60F6B6300627057F30068D33393406812024158683C6847D300627021E898D21A656
S1232C80E48B408D1B1F988D177C300235868680200E8682200A868120068683200286844D
S1232CA04D2B033F21393412488E2E32AE863F173592CC00172009B63002B03003F6300131
S1232CC03416BE2E30A680271D2B043F2120F6E6E485402702E661EB80852026041F98206B
S1232CE0EA4F3F1A20DF35963454CE2E3EC6808E2E24A6802722A1C42604334120F4A6C0A0
S1232D0026FC5CA6C426E88E2E24A680270EE680E71E26FA847F35D4A6C427083F22A71F27
S1232D206F8420C61F987F2E2435D4496E76616C6964206B657900556E6B6E6F776E206382
S1232D406F6D6D616E6400496E76616C69642073656172636820737472696E6700496E76B2
S1232D60616C69642064657374696E6174696F6E004E6F20746167676564206C696E65736F
S1232D80004E6F7420666F756E64004F7574206F66206D656D6F7279202D204368616E678E
S1232DA06573206C6F737407004E65772066696C6500496E73657274004F76657277726901
S1232DC0746500556E7361766564206368616E6765732C20757365202771712720746F203B
S1232DE07175697420616E7977617900293028A228952926298E28D92889291D2815297F90
S1232E00279E27922725211B2132272B2722273A281B282B27BF27DC2808286328FE271BB7
S1222E20271B271B000000000000000000002E3E2E3E2E3E2E3E2E3E2E3E2E3E2E3E00AB
S12030000000000000FF00FF0000000000329832980000000000000000000000001D
S9
